S0120000496F7446756E6347656E2E7372656340
S11300000C949C000C94B9000C94B9000C94B900A5
S11300100C94B9000C94B9000C94B9000C94B90078
S11300200C94B9000C94B9000C94B9000C94B90068
S11300300C94B9000C9460130C94B9000C94B9009E
S11300400C94B9000C94B9000C94B9000C94B90048
S11300500C94B9008E0BC20B050CD50BED0C030DE3
S1130060DB0B4E0D5A0D7F0D9A0DBF0DDA0DFE0DF3
S1130070310E171023104F1071109D10BF10EA108D
S11300801A116111A7110C130E1310131213141368
S11300901613181332133413361338133A133C134C
S11300A03E137913A413CF13FA132D14601493146D
S11300B0C614C6143A1507634236B79BD8A71A3933
S11300C0685618AEBAAB558C1D3CB7CC5763BD6DA2
S11300D0EDFD753EF6177231BF000000803F080049
S11300E00000BE922449123EABAAAA2ABECDCCCCB3
S11300F04C3E00000080BEABAAAAAA3E000000004D
S1130100BF000000803F0000000000084178D3BB1E
S11301104387D1133D190E3CC3BD4282AD2B3E68CB
S1130120EC8276BED98FE1A93E4C80EFFFBE01C4BC
S1130130FF7F3F000000000011241FBECFE5D8E080
S1130140DEBFCDBF14E0A0E6B0E0E4E2FAE302C013
S113015005900D92A438B107D9F726E0A4E8B4E0DD
S113016001C01D92A835B207E1F70E9463120C94F6
S1130170101D0C9400008F9A8E9A8D9A8C9AB99ABD
S1130180B89A0895979888230CF4979A969886FDC0
S1130190969A959885FD959A949884FD949AC19A17
S11301A08AEB8A95F1F700C0C1988AEB8A95F1F73A
S11301B000C00895CF93C82FC09AC1980E94C2006E
S11301C08C2F8295807F0E94C200CF9108950F9357
S11301D01F93CF93DF9300D0CDB7DEB78C011A8283
S11301E01982E981FA81E80FF91F80818823C9F017
S11301F0E981FA81E00FF11F80810E94DA00898190
S11302009A8101969A8389838FE391E00197F1F7AC
S113021000C00000E981FA81E00FF11F80818111A3
S1130220E7CF0F900F90DF91CF911F910F91089519
S1130230CF93C82FC098C1980E94C2008C2F82957A
S1130240807F0E94C200CF9108952FEF80E792E053
S1130250215080409040E1F700C00000C098C19850
S113026080E30E94C2008FE39CE90197F1F700C08C
S1130270000080E30E94C20087E592E00197F1F755
S113028000C0000080E30E94C20087E592E001976D
S1130290F1F700C0000088E20E94C20090EF9A9536
S11302A0F1F788E20E94180120EF2A95F1F788E01F
S11302B00E94180180EF8A95F1F781E00E941801ED
S11302C08FE79EE30197F1F700C0000086E00E94EB
S11302D0180190EF9A95F1F78CE00E94180120EF35
S11302E02A95F1F70895CF93DF93EC01862F806868
S11302F00E941801CE010E94E700DF91CF9108957A
S11303000F931F93CF93DF93CDB7DEB764970FB6E8
S1130310F894DEBF0FBECDBF60E080E690E00E949F
S1130320730160E485E790E00E9473011F9280E30B
S11303308F931F9282E38F938AE890E09F938F9329
S11303401F9284E18F938E010F5F1F4F1F930F93B2
S11303500E94C71964E1C8010E94730164E581EA3F
S113036090E00E9473010FB6F894DEBF0FBECDBFBC
S113037064960FB6F894DEBF0FBECDBFDF91CF9168
S11303801F910F910895682F86EB90E00E947301EE
S1130390089580E00E94C30180E40E94C30184E1C7
S11303A00E94C30184E50E94C3010895CF93C82F1E
S11303B0862F8068840F0E9418018C2F0E94DA0017
S11303C0CF910895CF93DF93EC01411105C0862F9F
S11303D080680E9418010FC0662311F0643131F463
S11303E086E0860F80680E94180105C08AE0860FA7
S11303F080680E941801CE010E94E700DF91CF912E
S11304000895611112C0882311F0843139F440E059
S1130410682F83EC90E00E94E201089540E0682F89
S113042080EC90E00E94E2010895882311F0843169
S113043039F4462F682F8DEB90E00E94E201089575
S1130440462F682F8FEB90E00E94E201089586E426
S1130450DB9AE3E5F3E03197F1F700C00000DB98A5
S1130460E3E5F3E03197F1F700C00000815081F734
S113047008958823B1F18CEEDB9AE3E5F3E031973C
S1130480F1F700C00000DB98E3E5F3E03197F1F702
S113049000C00000815081F788E291E0DB9AE3EA32
S11304A0F2E03197F1F700C00000DB98E3EAF2E0F4
S11304B03197F1F700C00000019781F780EC92E0DA
S11304C0DB9AE7E3F2E03197F1F700C00000DB9834
S11304D0E7E3F2E03197F1F700C00000019781F7FC
S11304E0089588E291E0DB9AE3EAF2E03197F1F7CC
S11304F000C00000DB98E3EAF2E03197F1F700C0B6
S11305000000019781F78CEEDB9AE3E5F3E0319785
S1130510F1F700C00000DB98E3E5F3E03197F1F771
S113052000C00000815081F780E691E0DB9AEFE69D
S1130530F4E03197F1F700C00000DB98EFE6F4E057
S11305403197F1F700C00000019781F7089584B353
S11305508C6F84BBD49A87B38C6187BB87B3836069
S113056087BB81B3806F81BB8AB38C7F8ABB87B31F
S1130570806A87BBBE98899A889884B3836084BB59
S11305808A988AB38C608ABB089586B1876886B9D5
S11305903E9A0895633041F4853011F4A898089583
S11305A0863049F4A9980895853011F4A89A0895DD
S11305B0863009F4A99A08958F929F92AF92BF92C0
S11305C0EF92FF920F931F93CF93DF93F82E4A017C
S11305D05B01E22E0E944213C501B4010E943C1645
S11305E027E73CEC4BE251E40E94CA160E940D1628
S11305F0EB01DF73DC01CB01072E7EE0B695A795F6
S1130600979587957A95D1F7702D8C011F734F2D8F
S113061060E081E20E94FF128D2F8F734F2D6C2FAB
S113062080640E94FF12812F8F734F2D602F80648E
S11306300E94FF124F2D60E080EC0E94FF1282E0C6
S1130640E81661F083E0E81679F081E0E81212C060
S11306504F2D60E280E20E94FF1211C04F2D62E034
S113066080E20E94FF120BC04F2D68E280E20E94DC
S1130670FF1205C04F2D60E880E20E94FF126E2D2C
S11306808F2D0E94CA020E945113DF91CF911F91B6
S11306900F91FF90EF90BF90AF909F908F9008952F
S11306A02FEF3FE0281B390B832F8F70653041F407
S11306B041E0622F806F0E94FF1280E090E0089575
S11306C0663041F442E0622F806F0E94FF1280E0A6
S11306D090E008958FEF9FEF0895829904C0829B64
S11306E0FECF81E0089580E008952FEF829FC0013E
S11306F0112464E670E00E942E19609547E081E1C0
S11307000E94FF1208958536F8F429E1829FC00102
S1130710112464E670E00E942E19655B70E080E0AD
S113072090E00E943E162DEC3CEC43E252E40E9421
S1130730CA160E940D16872F8F7042E080670E94B0
S1130740FF1280E090E008958FEF9FEF0895CF931C
S1130750C0E08C2F0E9483038FE19EE40197F1F7A0
S113076000C00000CF5FC536A1F7CF9108950E9465
S1130770A70384E60E9475030E94800181E00E9421
S113078039022FEF83ED90E3215080409040E1F750
S113079000C0000008957F70853019F0863099F00C
S11307A024C0442341F043E0872F80670E94FF1256
S11307B080E090E0089543E0872F806F0E94FF124D
S11307C080E090E00895442341F044E0872F80675F
S11307D00E94FF1280E090E0089544E0872F806F2C
S11307E00E94FF1280E090E008958FEF9FEF08953C
S11307F0CF93DF93C0E0D0E060E0CE010E94CC1C38
S11308002196C138D105C1F7DF91CF910895CF93D7
S1130810DF93D82F0E9427020E94C90160E08BEC6D
S113082090E00E94730160E480EE90E00E94730106
S113083064E185EF90E00E947301C5E343E064E165
S11308408C2F0E94D6012FEF89E698E12150804039
S11308509040E1F700C00000C150C03379F7D111D6
S11308600E94F80380E00E943902DA98DF91CF9168
S11308700895CF92DF92EF92FF920F931F93CF933D
S1130880DF93C6E9D4E080E8FE0111928A95E9F786
S113089009E515E080E2F80111928A95E9F70F2E37
S11308A0F9E7EF2EF5E0FF2EF02D80E4F701119229
S11308B08A95E9F70F2EF0EDCF2EF5E0DF2EF02D1F
S11308C0F601108240E250E061E070E0C8010E944D
S11308D0AA1C40E450E061E270E0C7010E94AA1C37
S11308E081E690E00E94BA1CF6018083FF92EF92A9
S11308F01F930F938AE091E09F938F93DF93CF939D
S11309000E94F719EDB7FEB738960FB6F894FEBFFC
S11309100FBEEDBFCE01DF91CF911F910F91FF90DC
S1130920EF90DF90CF90089540E250E061E070E0F6
S113093089E595E00E94C21C40E450E061E270E069
S113094089E795E00E94C21C6091D00581E690E0A1
S11309500E94CC1C0895CF93DF9300D01F92CDB793
S1130960DEB780E2E9E5F5E0DF011D928A95E9F75B
S113097080E4E9E7F5E0DF011D928A95E9F71B823F
S1130980EAEDF5E086E091919C3249F4908190354E
S113099031F49FEF980F99838E5F8A8303C08F5F32
S11309A0863289F74A81242F30E08A8190E0805C86
S11309B09F4F28173907CCF4F901EC52FA4F808184
S11309C08C3249F4F901EC52FA4F8181853419F4DF
S11309D041504B830AC04F5F242F30E08A8190E05E
S11309E0805C9F4F281739073CF3498150E04550FC
S11309F051096AED75E089E595E00E94B6194B81CD
S1130A008A816A8150E0481B51094F5F5F4F70E053
S1130A106C527A4F89E795E00E94B619EB81F0E0B9
S1130A20EC52FA4F83818093D0050F900F900F9072
S1130A30DF91CF910895E9EBF5E08DE491E49183A2
S1130A40808383E49DE39383828381E1E0EEF5E098
S1130A50ADEBB5E001900D928A95E1F78DE09AE057
S1130A609093CF058093CE0508950E94C90160E05C
S1130A708FE191E00E94730160E484E391E00E94BD
S1130A80730164E189E491E00E94730164E58EE5F9
S1130A9091E00E9473010E946D038823E1F383E7D0
S1130AA091E00E9477152FEF89E698E1215080406C
S1130AB09040E1F700C0000098E088E10FB6F89498
S1130AC0A89581BD0FBE91BDFFCF2FEF829FC001BE
S1130AD0112464E670E00E942E19609547E080E7D7
S1130AE00E94FF1208959091DB059D30C9F1309169
S1130AF0DC053D3011F4905321C02091DD052D30EB
S1130B0051F4990F20EA290F922F990F990F920F00
S1130B103053930F13C04091DE054D3019F5330F58
S1130B203056432F440F440F340F2053320F20ED1F
S1130B30290F932F44E6249F900D1124813021F432
S1130B409093D205892F0895811104C09093D10503
S1130B50892F0895823041F49093D305892F089505
S1130B6080E0089584E60895892F0895CF93DF9354
S1130B7000D0CDB7DEB71A821982389A369A3699E0
S1130B80FECF84B195B19A838983369A3699FECF84
S1130B9024B135B189819A81820F931F96958795E7
S1130BA09A83898389819A81843F914018F41092B1
S1130BB0170503C081E0809317050F900F90DF9114
S1130BC0CF910895ECE8F4E08AE0DF011D928A9564
S1130BD0E9F7809116051F928F938FE791E09F9319
S1130BE08F931F928BE08F93FF93EF930E94C7190B
S1130BF08DB79EB708960FB6F8949EBF0FBE8DBFF3
S1130C008CE894E0089588E0E4E8F4E0DF011D92C4
S1130C108A95E9F780911705882399F089E891E08E
S1130C209F938F931F9287E08F93CF019F93EF93AE
S1130C300E94C7190F900F900F900F900F900F9074
S1130C4009C089E0E1E9F1E0A4E8B4E001900D9283
S1130C508A95E1F784E894E00895843E2CE09207B5
S1130C6008F4A6C0AC019C01245E3C40243F314002
S1130C70B0F494E2949FB001959F700D11246051DB
S1130C80704D80E090E00E943C162FE632E143E094
S1130C905BE30E94CA160E940D16862F08959A01DE
S1130CA0285D3E4024363105E0F48AE1849FB0019A
S1130CB0859F700D1124605F714880E090E00E9470
S1130CC03C162AE037ED43E25CE30E94CA1620E0BA
S1130CD030E040E152E40E94A1150E940D16862FD7
S1130CE008959A012C533F4024363105E0F48BE0FB
S1130CF0849FB001859F700D11246459774A80E068
S1130D0090E00E943C162AE037ED43E25CE30E9447
S1130D10CA1620E030E048E752E40E94A1150E9480
S1130D200D16862F0895CA01805A9F408436910576
S1130D30E8F4BA01605A7F4F62957295707F762706
S1130D40607F762780E090E00E943C162AE037ED31
S1130D5043E25CE30E94CA1620E030E042E952E438
S1130D600E94A1150E940D16862F0895CA01845071
S1130D70904184369105F0F48BE0849FB001859F07
S1130D80700D11246C52704B80E090E00E943C1670
S1130D902AE037ED43E25CE30E94CA1620E030E02B
S1130DA042EB52E40E94A1150E940D16862F08956D
S1130DB080E0089584E6089517B8369A3699FECFF0
S1130DC064B175B180E090E00E943C162CEA3CE1ED
S1130DD04AE75FE30E94CA160E940D1680E090E085
S1130DE00E943C1626E933E443EB50E40E94CA1601
S1130DF00E940D16CB010E942D06809316050895BE
S1130E000F931F93CF93DF93CDB7DEB764970FB6DD
S1130E10F894DEBF0FBECDBF182F062F0E9401022B
S1130E20FE01319684E1DF011D928A95E9F71431C0
S1130E3009F46AC018F4112339F0C5C01034A1F1C3
S1130E40143509F491C0BFC0011117C08BE395E0BC
S1130E509F938F938AE991E09F938F931F9287E0EA
S1130E608F93CE0101969F938F930E94C7190FB65B
S1130E70F894DEBF0FBECDBFA6C089E195E09F9375
S1130E808F9380EA91E09F938F931F928DE08F93CD
S1130E90CE0101969F938F930E94C7190FB6F894C1
S1130EA0DEBF0FBECDBF8FC0011117C089E295E030
S1130EB09F938F9388EA91E09F938F931F928AE088
S1130EC08F93CE0101969F938F930E94C7190FB6FB
S1130ED0F894DEBF0FBECDBF76C081E395E09F934B
S1130EE08F9380EB91E09F938F931F928BE08F936E
S1130EF0CE0101969F938F930E94C7190FB6F89461
S1130F00DEBF0FBECDBF5FC0011117C08EE395E0F9
S1130F109F938F9388EB91E09F938F931F9287E029
S1130F208F93CE0101969F938F930E94C7190FB69A
S1130F30F894DEBF0FBECDBF46C081E295E09F931B
S1130F408F9380EA91E09F938F931F928DE08F930C
S1130F50CE0101969F938F930E94C7190FB6F89400
S1130F60DEBF0FBECDBF2FC0011117C08DE295E0CB
S1130F709F938F938EEB91E09F938F931F928AE0C0
S1130F808F93CE0101969F938F930E94C7190FB63A
S1130F90F894DEBF0FBECDBF16C086E395E09F93E5
S1130FA08F9386EC91E09F938F931F928BE08F93A6
S1130FB0CE0101969F938F930E94C7190FB6F894A0
S1130FC0DEBF0FBECDBF402F612FCE0101960E9420
S1130FD0E20164960FB6F894DEBF0FBECDBFDF9179
S1130FE0CF911F910F91089560E080E00E94000767
S1130FF061E080E00E94000760E080E40E94000756
S113100061E080E40E94000760E084E10E94000740
S113101061E084E10E94000760E084E50E9400072B
S113102061E084E50E94000708958F929F92AF9239
S1131030BF92CF92DF92EF92FF920F931F93CF93C1
S1131040DF9300D000D000D0CDB7DEB7182F1982BF
S11310501A821B821C821D821E82803341F488E026
S1131060E9E1F5E0DF011D928A95E9F707C088E020
S1131070E1E2F5E0DF011D928A95E9F789E08983D1
S113108089818032C0F4E981F0E0EC52FA4F818129
S1131090823259F407C0E981F0E0EC52FA4F8181C1
S11310A0823219F489818A8306C089818F5F89839A
S11310B08981803280F38A8189838981893008F427
S11310C05CC009816A81898170E0681B7109072EFF
S11310D0000C880B990B0E943E169B01AC0160E04A
S11310E070E080E291E40E9437176B017C018B80F1
S11310F09C80AD80BE80E02FF0E0EC52FA4F60811E
S113110070E060537109072E000C880B990B0E9444
S11311103E16A70196010E94CA166B017C01C50107
S1131120B4010E943C169B01AC01C701B6010E94A8
S1131130A1150E940D166B837C838D839E831033CF
S113114059F4E981A981F0E0E05FFA4FB0E0AC52D4
S1131150BA4F8C9180830AC0E981A981F0E0E85EEE
S1131160FA4FB0E0AC52BA4F8C91808389818150A0
S113117089838981893008F0A4CF8B819C81AD81DA
S1131180BE81BC01CD016F5F7F4F8F4F9F4F26966D
S11311900FB6F894DEBF0FBECDBFDF91CF911F9184
S11311A00F91FF90EF90DF90CF90BF90AF909F9002
S11311B08F900895EF92FF920F931F93CF93DF9335
S11311C0CDB7DEB727970FB6F894DEBF0FBECDBFFD
S11311D0E82E19821A821B821C82E4EDF5E0118547
S11311E01D8303850E83F484FF82CE0105960E943D
S11311F09819092E000CAA0BBB0B89839A83AB8325
S1131200BC8380E3E8121EC0E9E2F5E088E0DF0178
S11312101D928A95E9F71F92FF921F920F931F92D6
S11312201F9380ED91E09F938F931F9285E08F939E
S1131230FF93EF930E94C7190FB6F894DEBF0FBE59
S1131240CDBF1DC0EDE2F5E088E0DF011D928A9577
S1131250E9F71F92FF921F920F931F921F9380ED45
S113126091E09F938F931F9285E08F93FF93EF9369
S11312700E94C7190FB6F894DEBF0FBECDBF2981F7
S11312803A814B815C81AFEFBFE00E946A1926E48A
S113129030E040E050E00E944219C90127960FB6A1
S11312A0F894DEBF0FBECDBFDF91CF911F910F9198
S11312B0FF90EF900895EF92FF920F931F93CF93B7
S11312C0DF93CDB7DEB727970FB6F894DEBF0FBE16
S11312D0CDBFE82E19821A821B821C82E4EDF5E050
S11312E012851D8304850E83F584FF82CE01059645
S11312F00E949819092E000CAA0BBB0B89839A83B0
S1131300AB83BC8380E3E81222C0E1E3F5E088E02C
S1131310DF011D928A95E9F71F92FF921F920F93A6
S11313201F921F938091DD051F928F938EEC91E0A5
S11313309F938F931F9286E08F93FF93EF930E9466
S1131340C7190FB6F894DEBF0FBECDBF21C0E6E3C8
S1131350F5E088E0DF011D928A95E9F71F92FF927C
S11313601F920F931F921F938091DD051F928F93FD
S11313708EEC91E09F938F931F9286E08F93FF935F
S1131380EF930E94C7190FB6F894DEBF0FBECDBF0E
S113139029813A814B815C81AFEFBFE00E946A19D9
S11313A02AE431E040E050E00E944219C901279646
S11313B00FB6F894DEBF0FBECDBFDF91CF911F9162
S11313C00F91FF90EF90089581E09091DD059D329B
S11313D009F080E00895CF93DF938091D80580339E
S11313E009F0BBC08091DA05823409F490C020F47E
S11313F0813409F47DC06EC1863419F08435A9F0B6
S113140069C180E30E941508AB01BC01E1E4F5E089
S11314104083518362837383208985E00E94DC02C8
S113142061E080E00E94000755C18091DD058135AF
S1131430C9F028F4843491F18F34F1F14AC0833532
S113144019F08435E9F045C081E080935105EBE360
S1131450F5E083E599E4918380838EE490E09383BF
S1131460828337C083E080935105EBE3F5E083E5A5
S113147091E59183808382E590E09383828329C000
S113148082E080935105EBE3F5E084E592E59183F6
S1131490808387E490E0938382831BC084E08093FD
S11314A05105EBE3F5E084E493E49183808380E2E7
S11314B090E0938382830DC085E080935105EBE334
S11314C0F5E08FE496E49183808386E490E093834F
S11314D08283E1E4F5E04081518162817381208956
S11314E085E00E94DC0260E080E00E940007F2C018
S11314F080E30E94DA0890934E0580934D0565E0E1
S11315000E94500360E080E40E940007E3C080E38F
S11315100E945B09C1E4D5E09B8B8A8B0E94E4099D
S11315208E8B811107C041E060E070E085E00E948D
S1131530CB0306C040E060E070E085E00E94CB038E
S1131540E1E4F5E062897389468985E00E94CB0372
S113155061E080E40E940007BDC0813309F0BAC095
S11315608091DA05823409F490C020F4813409F4BE
S11315707DC0B0C0863419F08435A9F0ABC081E3D6
S11315800E941508AB01BC01E1E4F5E044835583F6
S113159066837783218986E00E94DC0261E084E12E
S11315A00E94000797C08091DD058135C9F028F4B9
S11315B0843491F18F34F1F14AC0833519F08435C4
S11315C0E9F045C081E080935205EEE3F5E083E560
S11315D099E4918380838EE490E09383828337C07F
S11315E083E080935205EEE3F5E083E591E5918392
S11315F0808382E590E09383828329C082E0809394
S11316005205EEE3F5E084E592E59183808387E477
S113161090E0938382831BC084E080935205EEE3C1
S1131620F5E084E493E49183808380E290E0938303
S113163082830DC085E080935205EEE3F5E08FE4EC
S113164096E49183808386E490E093838283E1E44B
S1131650F5E04481558166817781218986E00E9485
S1131660DC0260E084E10E94000734C081E30E9450
S1131670DA089093500580934F0566E00E9450036A
S113168060E084E50E94000725C081E30E945B09B5
S1131690C1E4D5E09D8B8C8B0E94E4098F8B811172
S11316A007C041E060E070E086E00E94CB0306C022
S11316B040E060E070E086E00E94CB03E1E4F5E006
S11316C064897589478986E00E94CB0361E084E5DB
S11316D00E940007DF91CF910895CF93DF931F926B
S11316E0CDB7DEB781E08983FF24F39404ED15E0E0
S11316F00F2EF5E58F2EF6E09F2EF02D0F2EF7E03E
S1131700AF2EF02D0F2EF5E0BF2EF02D6894CC24D3
S1131710C2F80F2EF3E0DF2EF02D7DC1F40180819D
S1131720882309F478C10E942702F8018281873452
S113173031F48381893419F582E089836CC1823460
S113174031F4F80183818F34D1F4D98264C18334B4
S113175031F4F80183818D3391F4C9825CC18C34F6
S113176031F4F8018381833451F4B98254C1823550
S113177031F4F8018381853411F4A9824CC10E94AB
S1131780861549C1F8018781813439F0823449F4DE
S11317900E94E2050E94771504C00E9403060E947D
S11317A077150E948615F98236C10E94EB090E94C2
S11317B08615F98230C10E94C90160E488ED91E088
S11317C00E94730164E18DEE91E00E94730115E3C0
S11317D049E064E5812F0E94D601FFEF29E688E104
S11317E0F15020408040E1F700C000001150103358
S11317F079F780E00E94390298E088E10FB6F89406
S1131800A89581BD0FBE91BDFFCFF80187818434B7
S113181061F564E480E090E00E94CC1C0E94C90160
S113182060E482E092E00E94730164E18DEE91E055
S11318300E94730115E349E064E1812F0E94D601FF
S1131840FFEF29E688E1F15020408040E1F700C035
S113185000001150103379F798E088E10FB6F8943E
S1131860A89581BD0FBE91BDFFCF8C3461F56CE4AA
S113187080E090E00E94CC1C0E94C90160E482E0F8
S113188092E00E94730164E18DEE91E00E94730185
S113189015E349E064E1812F0E94D6019FEFE9E658
S11318A0F8E19150E040F040E1F700C00000115031
S11318B0103379F798E088E10FB6F894A89581BDC4
S11318C00FBE91BDFFCF833539F50E94C90160E495
S11318D088ED91E00E94730164E18DEE91E00E9435
S11318E073010F2EF5E3EF2EF02D49E064E18E2D08
S11318F00E94D6012FEF89E698E121508040904064
S1131900E1F700C00000EA94E0E3EE12EECF80E0DD
S11319100E943902DA987FC0823509F05CC0F80170
S11319208285843561F50E94C90160E487E192E013
S11319300E94730164E18DEE91E00E94730115E34E
S113194049E064E1812F0E94D601FFEF29E688E196
S1131950F15020408040E1F700C0000011501033E6
S113196079F780E00E9439020E94F80398E088E148
S11319700FB6F894A89581BD0FBE91BDFFCF8534F5
S113198051F50E94C90160E482E092E00E94730173
S113199064E18DEE91E00E94730115E349E064E196
S11319A0812F0E94D6019FEFE9E6F8E19150E040D3
S11319B0F040E1F700C000001150103379F780E0E7
S11319C00E94390298E088E10FB6F894A89581BD89
S11319D00FBE91BDFFCFF9821EC0F801868182340B
S11319E019F0833439F00BC080E00E9473050E9423
S11319F0830305C08F2D0E9473050E9475030E9406
S1131A008615F98208C082E00E9473050E9465056C
S1131A100E948615F982898190E0FC013197E730B4
S1131A20F105C8F7E65DFF4F0C9464190E94270284
S1131A30D1E0C0E005E516E00F2EF7E5EF2EF6E065
S1131A40FF2EF02D6894BB24B3F86894CC24C2F81C
S1131A500F2EF7E07F2EF02D0F2EF6E08F2EF02DB7
S1131A600F2EF5E09F2EF02D0F2EF3E0AF2EF02D6C
S1131A706894DD24D1F800C181E00E940704C431D8
S1131A8008F0F8C08D2F90E0FC013197E830F105A3
S1131A9008F0F2C0EF5CFF4F0C9464190E94C90176
S1131AA060E08CE292E00E94730181E0F7018083A0
S1131AB0DD2DE2C0F8018081882391F00E94861513
S1131AC081E0F701808360E081E492E00E94730189
S1131AD060E486E592E00E947301DA2DC0E0CCC098
S1131AE0CF5F8BE692E00E947715FFEF29E688E14D
S1131AF0F15020408040E1F700C00000BDC0F80173
S1131B008081882341F00E94861581E0F70180835B
S1131B10DC2DC0E0B1C0CF5F82E792E00E94771570
S1131B20FFEF29E688E1F15020408040E1F700C052
S1131B300000A2C0F8018081882391F00E948615DC
S1131B4081E0F701808360E480E892E00E94730101
S1131B5064E185E992E00E947301D92DC0E08CC054
S1131B60CF5F8AEA92E00E947715FFEF29E688E1C9
S1131B70F15020408040E1F700C000007DC0F80132
S1131B808081882341F00E94861581E0F7018083DB
S1131B90D82DC0E071C0CF5F8BEC92E00E94771526
S1131BA0FFEF29E688E1F15020408040E1F700C0D2
S1131BB0000062C0F8018081882389F00E948615A4
S1131BC064E189ED92E00E94730164E58EEE92E097
S1131BD00E947301F701C082D72DC0E04DC0CF5FD2
S1131BE083E093E00E947715FFEF29E688E1F15046
S1131BF020408040E1F700C000003EC0F801808131
S1131C008823D1F1F701B0820E942702FFE728E37D
S1131C1081E0F15020408040E1F700C000000E94C4
S1131C2027029FE7E8E3F1E09150E040F040E1F75C
S1131C3000C000000E9427020E9486150E94C9016C
S1131C4060E489E193E00E9473012FEF83ED90E358
S1131C50215080409040E1F700C00000DB2DC0E03F
S1131C600BC064E480E090E00E94CC1C0E94F40766
S1131C700E946D0B0E9435050E946D03882309F4B0
S1131C80FECEFACEE1E4F5E01082118212821382D4
S1131C901482158216821782118610861386128684
S1131CA0158614861786168685E0808B818B138AA9
S1131CB0128A158A148A08951F93CF93DF93CFE273
S1131CC0D3E0DF93CF931F9214E01F9389E295E052
S1131CD09F938F930E94C719DF93CF931F921F93F3
S1131CE08DE295E09F938F930E94C719CEE2D3E0D3
S1131CF0DF93CF931F9215E01F9381E395E09F93A9
S1131D008F930E94C719DF93CF931F921F9386E38B
S1131D1095E09F938F930E94C71980E390E090937E
S1131D201A058093190590932205809321058FE16C
S1131D309EE40197F1F700C000008DB79EB7489666
S1131D400FB6F8949EBF0FBE8DBFDF91CF911F9148
S1131D5008950E942702C1E0D0E005E516E00F2EA9
S1131D60F7E5EF2EF6E0FF2EF02D6894CC24C2F8B0
S1131D706894662463F80F2EF6E1AF2EF5E0BF2ECB
S1131D80F02D0F2EF6E07F2EF02D0F2EF5E08F2E86
S1131D90F02D6894DD24D1F80F2EF3E09F2EF02D62
S1131DA0C33009F45BC028F4C13061F0C23059F18A
S1131DB0F1C0C53009F4ABC008F47CC0C63009F4E6
S1131DC0D8C0E8C00E94C90160E484E393E00E94A3
S1131DD0730164E189E493E00E9473012FEF83EDC2
S1131DE090E3215080409040E1F700C000000E9441
S1131DF0C90160E08CE292E00E94730181E0F70186
S1131E008083CD2DCBC0F8018081882381F00E948E
S1131E108615F701D08260E081E492E00E947301AC
S1131E2060E486E592E00E947301C92DB7C08BE699
S1131E3092E00E947715DF5FFFEF29E688E1F15019
S1131E4020408040E1F700C000000E946D03882319
S1131E5009F49CC081E00E94070498C0F8018081C5
S1131E60882389F081E0F70180830E94861560E46D
S1131E7080E892E00E94730164E185E992E00E94A7
S1131E807301CC2D8BC00E9439040E947715DF5F4B
S1131E90FFEF29E688E1F15020408040E1F700C0DF
S1131EA000000E946D03882309F470C081E00E9441
S1131EB007046CC0F8018081882391F0F701C08287
S1131EC00E94861564E189ED92E00E94730164E545
S1131ED08EEE92E00E9473010E94C901C82D5EC07B
S1131EE083E093E00E947715DF5FFFEF29E688E146
S1131EF0F15020408040E1F700C000000E946D03D3
S1131F00882309F443C081E00E9407043FC0F8011C
S1131F108081882331F1F70160820E9486150E9436
S1131F20C90160E489E193E00E94730181E0F50155
S1131F3082830E942702FFE728E381E0F1502040DA
S1131F408040E1F700C000000E9427029FEFE3ED0C
S1131F50F0E39150E040F040E1F700C00000C72DED
S1131F601DC00E946D03882389F081E00E9407044C
S1131F700DC06CE480E090E00E94CC1C0E945C0EDA
S1131F800E94F4070E946D0B0E943505D43108F4B9
S1131F9007CFFACFD43108F403CFF6CFD0E000CF87
S1131FA0CF93DF93CDB7DEB7A8970FB6F894DEBF13
S1131FB00FBECDBF01E010E00F2EF5E5EF2EF6E0E9
S1131FC0FF2EF02D0F2EF7E5CF2EF6E0DF2EF02DAD
S1131FD00F2EF9E07F2EF02D0F2EFAE0BF2EF02DFC
S1131FE00F2EF3E02F2EF02D0F2EF6E18F2EF5E0BD
S1131FF09F2EF02D6894332433F86894AA24A2F811
S11320000F2EF7E04F2EF02D0F2EF6E05F2EF02D61
S11320106894662461F8802F90E0FC013197EA30DF
S1132020F10508F00BC2E75CFF4F0C9464190E94A1
S1132030C90160E08CE292E00E94730181E0F60144
S11320408083062DF7C1F7018081882389F00E94DF
S1132050861560E081E492E00E94730160E486E505
S113206092E00E94730181E0F60180830A2DEBC1A6
S11320708BE692E00E9477151F5FFFEF29E688E167
S1132080F15020408040E1F700C000000E946D0341
S1132090882309F4CFC181E00E940704CBC1F70172
S11320A08081882339F00E94861581E0F6018083BF
S11320B00A2DC9C11F5F8EE593E00E947715FFEFDB
S11320C029E688E1F15020408040E1F700C000009B
S11320D00E946D03882309F4ADC181E00E940704C6
S11320E0A9C1F7018081882389F00E94861560E4E4
S11320F080E892E00E94730164E185E992E00E9425
S1132100730181E0F601808305E09DC18AEA92E0D3
S11321100E9477151F5FFFEF29E688E1F150204008
S11321208040E1F700C000000E946D03882309F499
S113213081C181E00E9407047DC1F7018081882369
S113214039F081E0F60180830E948615052D7BC15C
S11321501F5F8BEC92E00E947715FFEF29E688E180
S1132160F15020408040E1F700C000000E946D0360
S1132170882309F45FC181E00E9407045BC1F70171
S11321808081882381F0F601A0820E94861564E193
S113219089ED92E00E94730164E58EEE92E00E9464
S11321A07301042D50C183E093E00E9477151F5FF3
S11321B0FFEF29E688E1F15020408040E1F700C0BC
S11321C000000E946D03882309F434C181E00E9459
S11321D0070430C1F7018081882319F1F601B08228
S11321E00E9486150E94C90160E08CE693E00E947B
S11321F0730160E481E893E00E94730164E186E97D
S113220093E00E94730181E0F4018283FFEF29E6E9
S113221088E1F15020408040E1F700C00000032D28
S113222012C10E946D03882309F404C181E00E9455
S1132230070400C1F7018081882349F10E941B052E
S113224064E189EB95E00E947301FFEF29E688E1E0
S1132250F15020408040E1F700C00000F6012082E8
S11322600E9486158BEA93E00E947715FFEF29E61A
S113227088E1F15020408040E1F700C000000E9456
S11322806D0311E0072D882309F4C5CE14C08BEA31
S113229093E00E9477151F5F9FEFE9E6F8E1915004
S11322A0E040F040E1F700C000000E946D03882385
S11322B009F4C0C002C011E0072D81E00E940704A8
S11322C0B9C00E946D03882319F081E00E940704BD
S11322D0F7018081882351F00E948615F6017082EF
S11322E089EB95E00E94771510E015C0143120F0B9
S11322F081E00E940704E5CF8BEB93E00E94771501
S11323001F5FFFEF29E688E1F15020408040E1F7AC
S113231000C00000D6CF0E946D03882319F081E02D
S11323200E940704F701808181118CC0143120F0D0
S113233081E00E940704EFCF1F5FFFEF29E688E1E9
S1132340F15020408040E1F700C00000E4CFF701E5
S11323508081882309F464C00E94C9010E94AB04EF
S11323600E9494040F2EF4E1FF2EF02DCE0101966D
S11323706C01FC012F2D11922A95E9F78E010B5E59
S11323801F4FF8012F2D11922A95E9F789E595E061
S11323909F938F938DEC93E09F938F931F92FF9263
S11323A0DF92CF920E94C71989E795E09F938F939C
S11323B085ED93E09F938F931F92FF921F930F934A
S11323C00E94C71960E08DED93E00E94730160E400
S11323D0C6010E94730164E1C8010E9473010FB633
S11323E0F894DEBF0FBECDBF8091D005843331F0A9
S11323F064E582EF93E00E94730105C064E586E022
S113240094E00E9473019FEFE7EAF1E69150E04007
S1132410F040E1F700C000000E9486150E94A90E5A
S11324200E946D03882331F081E00E94070402C0FA
S11324300E943505143108F4EECDFACF143108F4B6
S1132440ECCDF6CF0B2D10E0E6CD80E2E9E5F5E02A
S1132450DF011D928A95E9F780E4E9E7F5E0DF0101
S11324601D928A95E9F787E1E9EBF5E0DF011D921A
S11324708A95E9F71092D00508950E94420E0E94B1
S113248025120E9486150E94B6050E94DC06089556
S11324900E94A702DA9A0E9451130E94BB002FEFF8
S11324A089E698E1215080409040E1F700C00000A7
S11324B00E9425010E9490150E94C5020E943D12AF
S11324C01092180508950E9448120E94B703789448
S11324D081E0D5E002E013E06894FF24F2F803C041
S11324E0812F01C08F2D833009F453C030F4813023
S11324F059F0823009F441C0F6CF843009F479C030
S1132500853009F473C0EFCF80E090E00E94BA1CDC
S1132510843421F08C34D1F40E94A90E0E94C901A4
S113252060E08BE194E00E94730160E489E493E04D
S11325300E94730164E580E394E00E9473010E94A9
S11325406D038823E1F378948D2FCDCF0E94C901C8
S113255060E485E494E00E94730164E18AE594E018
S11325600E9473012FEF8DE399E421508040904045
S1132570E1F700C00000802FB6CF0E94C90160E4DB
S113258080E394E00E9473010E946D038823E1F3C9
S1132590A7CF0E94C90160E08BE194E00E9473011F
S11325A060E489E493E00E94730164E180E394E0D1
S11325B00E94730164E58FE694E00E947301C5E311
S11325C04FE064E58C2F0E94D6012FEF89E698E155
S11325D0215080409040E1F700C000000E946D034C
S11325E0811180CFC150C03359F706C078940E943E
S11325F0160D78940E94D00F78948D2F74CF0F937A
S11326001F93042F10E0F8013197E730F10588F4A7
S1132610ED5BFF4F0C946419AA980BC0AB9809C0EA
S1132620AC9807C0AD9805C0AE9803C0AF9801C080
S1132630DC9898E29A95F1F78FB9779BFECF88E200
S11326408A95F1F76FB9779BFECF98E29A95F1F7E7
S113265050E0FA013197E730F10588F4E65BFF4F6B
S11326600C946419AA9A0BC0AB9A09C0AC9A07C01F
S1132670AD9A05C0AE9A03C0AF9A01C0DC9A1F910F
S11326800F91089585B38C6F85BBDC9A89E58DB96C
S113269081E08EB98FE19EE40197F1F700C000005C
S11326A0089585B38C6F85BBDC9A81E58DB981E093
S11326B08EB98FE19EE40197F1F700C00000089500
S11326C01F920F920FB60F9211248F939F93AF9383
S11326D0BF93EF93FF93E09157068E2F90E0FC0198
S11326E03197EA30F10508F0EFC1EF5AFF4F0C942F
S11326F06419A4E5B6E0EC918CB1F0E0EC52FA4F29
S11327008083EC91F0E0EC52FA4F80818A30B1F48E
S1132710E0915406F0E0EE52FA4F80818B3471F46C
S1132720E0915406F0E0EF52FA4F80818F3431F497
S113273081E08093550610925406CAC1E4E5F6E0A0
S113274080818F5F8083C4C1A4E5B6E0EC918CB135
S1132750F0E0EC52FA4F8083EC91F0E0EC52FA4F47
S113276080818A30B1F4E0915406F0E0EE52FA4FE1
S11327708081803571F4E0915406F0E0EF52FA4F15
S11327808081893431F481E0809355061092540697
S11327909FC1E4E5F6E080818F5F808399C1A4E561
S11327A0B6E0EC918CB1F0E0EC52FA4F8083EC91FE
S11327B0F0E0EC52FA4F80818E33B1F4E09154068C
S11327C0F0E0ED52FA4F80818A3071F4E0915406C2
S11327D0F0E0EE52FA4F80818D3031F481E0809345
S11327E055061092540674C1E4E5F6E080818F5FCB
S11327F080836EC1A4E5B6E0EC918CB1F0E0EC52BC
S1132800FA4F8083EC91F0E0EC52FA4F80818A30E9
S1132810F1F4E0915406F0E0EE52FA4F80818435F1
S1132820B1F4E0915406F0E0EF52FA4F8081833422
S113283071F4E0915406F0E0E053FA4F808185345E
S113284031F481E0809355061092540641C1E4E5C9
S1132850F6E080818F5F80833BC1A4E5B6E0EC9114
S11328608CB1F0E0EC52FA4F8083EC91F0E0EC5242
S1132870FA4F80818A30F1F4E0915406F0E0EE5290
S1132880FA4F80818434B1F4E0915406F0E0EF52C1
S1132890FA4F8081853471F4E0915406F0E0E053FE
S11328A0FA4F8081833531F481E08093550610928C
S11328B054060EC1E4E5F6E080818F5F808308C191
S11328C0A4E5B6E0EC918CB1F0E0EC52FA4F8083D1
S11328D0EC91F0E0EC52FA4F80818A30F1F4E0910F
S11328E05406F0E0EE52FA4F80818B34B1F4E0915B
S11328F05406F0E0EF52FA4F80818F3471F4E09186
S11329005406F0E0E153FA4F8081843431F481E0DD
S11329108093550610925406DBC0E4E5F6E080810E
S11329208F5F8083D5C0A4E5B6E0EC918CB1F0E074
S1132930EC52FA4F8083EC91F0E0EC52FA4F808134
S11329408A30F1F4E0915406F0E0EE52FA4F8081BF
S11329508937B1F4E0915406F0E0EF52FA4F8081E8
S1132960843671F4E0915406F0E0E053FA4F80812C
S1132970813631F481E08093550610925406A8C044
S1132980E4E5F6E080818F5F8083A2C0E091540685
S11329908CB1F0E0EC52FA4F80838091560681119D
S11329A01EC0E0915406F0E0ED52FA4F80818D3064
S11329B081F4E0915406F0E0EC52FA4F80818A30C1
S11329C041F4E6E5F6E080818F5F8083109254063F
S11329D07FC0E4E5F6E080818F5F808379C08091D9
S11329E05606813021F5E0915406F0E0EC52FA4F9E
S11329F080818A30B1F4E0915406F0E0ED52FA4F50
S1132A0080818D3071F4E4EDF5E080838AE0818388
S1132A10E6E5F6E080818F5F808382E08093540650
S1132A2057C0E4E5F6E080818F5F808351C08091D8
S1132A305606823009F04CC0E0915406F0E0EC52A6
S1132A40FA4F80818A3081F4E0915406F0E0ED522F
S1132A50FA4F80818D3041F410925606109254063C
S1132A6081E08093550634C0E4E5F6E080818F5F11
S1132A7080832EC0E09154068CB1F0E0EC52FA4F02
S1132A8080838091D4058B3219F01092540620C0B3
S1132A90E0915406F0E0ED52FA4F80818D3071F4EC
S1132AA0E0915406F0E0EC52FA4F80818A3031F420
S1132AB01092540681E0809355060AC0E4E5F6E0DE
S1132AC080818F5F808304C0109254061092550653
S1132AD0FF91EF91BF91AF919F918F910F900FBE96
S1132AE00F901F9018955D9BFECF8CB90895CF93DE
S1132AF0DF93EC018881882331F021960E947315BD
S1132B0089918111FBCFDF91CF91089510925506E1
S1132B1080E8E4EDF5E0DF011D928A95E9F7089578
S1132B2010BC83E089B988E98AB98EE880BD0E9427
S1132B308615109256061092540610925706089560
S1132B405058BB27AA270E94B8150C9490160E94CF
S1132B50821638F00E94891620F039F49F3F19F448
S1132B6026F40C947F160EF4E095E7FB0C9479168A
S1132B70E92F0E94A11658F3BA1762077307840756
S1132B80950720F079F4A6F50C94C3160EF4E0959D
S1132B900B2EBA2FA02D0B01B90190010C01CA0113
S1132BA0A0011124FF27591B99F0593F50F4503EBE
S1132BB068F11A16F040A22F232F342F4427585FB0
S1132BC0F3CF469537952795A795F0405395C9F7C8
S1132BD07EF41F16BA0B620B730B840BBAF0915080
S1132BE0A1F0FF0FBB1F661F771F881FC2F70EC01F
S1132BF0BA0F621F731F841F48F4879577956795F2
S1132C00B795F7959E3F08F0B0CF9395880F08F0DD
S1132C109927EE0F9795879508950E94A91688F035
S1132C209F5798F0B92F9927B751B0F0E1F0660F8C
S1132C30771F881F991F1AF0BA95C9F714C0B130CD
S1132C4091F00E94C316B1E008950C94C316672F47
S1132C50782F8827B85F39F0B93FCCF386957795FC
S1132C606795B395D9F73EF49095809570956195E5
S1132C707F4F8F4F9F4F0895E89409C097FB3EF410
S1132C8090958095709561957F4F8F4F9F4F9923B5
S1132C90A9F0F92F96E9BB279395F6958795779533
S1132CA06795B795F111F8CFFAF4BB0F11F460FFF3
S1132CB01BC06F5F7F4F8F4F9F4F16C0882311F04B
S1132CC096E911C0772321F09EE8872F762F05C05F
S1132CD0662371F096E8862F70E060E02AF09A95FA
S1132CE0660F771F881FDAF7880F9695879597F9EF
S1132CF0089597F99F6780E870E060E008959FEF7A
S1132D0080EC089500240A9416161706180609067E
S1132D10089500240A94121613061406050608954D
S1132D20092E0394000C11F4882352F0BB0F40F4D5
S1132D30BF2B11F460FF04C06F5F7F4F8F4F9F4F15
S1132D40089557FD9058440F551F59F05F3F71F097
S1132D504795880F97FB991F61F09F3F79F08795FE
S1132D600895121613061406551FF2CF4695F1DF87
S1132D7008C0161617061806991FF1CF8695710517
S1132D80610508940895E894BB2766277727CB014B
S1132D9097F908950E94DD160C9490160E948216ED
S1132DA038F00E94891620F0952311F00C947916BE
S1132DB00C947F1611240C94C4160E94A11670F36F
S1132DC0959FC1F3950F50E0551F629FF001729FCC
S1132DD0BB27F00DB11D639FAA27F00DB11DAA1FDB
S1132DE0649F6627B00DA11D661F829F2227B00D28
S1132DF0A11D621F739FB00DA11D621F839FA00DB3
S1132E00611D221F749F3327A00D611D231F849F02
S1132E10600D211D822F762F6A2F11249F57504059
S1132E209AF0F1F088234AF0EE0FFF1FBB1F661FD4
S1132E30771F881F91505040A9F79E3F510580F09D
S1132E400C9479160C94C4165F3FE4F3983ED4F3C3
S1132E50869577956795B795F795E7959F5FC1F741
S1132E60FE2B880F911D9695879597F90895FA0181
S1132E70EE0FFF1F309621053105A1F16115710593
S1132E8061F48038BFE39B0749F168949038810569
S1132E9061F08038BFEF9B0741F099234AF5FF3F6B
S1132EA0E1053105210519F1E8940894E795D90164
S1132EB0AA2329F4AB2FBE2FF85FD0F310C0FF5F15
S1132EC070F4A695E0F7F73950F019F0FF3A38F4AA
S1132ED09F779F930DD00F9007FC9058089546F06C
S1132EE00C947F1660E070E080E89FE308954FE75C
S1132EF09F775F934F933F932F930E9432182F91A4
S1132F003F914F915F910E94CA160C948F1729F438
S1132F1016F00C9479160C94C3160C947F160E9428
S1132F20A916A8F39638A0F707F80F92E8942BE3B4
S1132F303AEA48EB5FE70E94E0160F920F920F9275
S1132F404DB75EB70F920E947A18E6EBF0E00E944C
S1132F50C1174F915F91EF91FF91E595EE1FFF1F10
S1132F6049F0FE57E0684427EE0F441FFA95E1F755
S1132F704195550B0E94F4170F9007FE0C94E81727
S1132F800895DF93CF931F930F93FF92EF92DF92F5
S1132F907B018C01689406C0DA2EEF010E94DD16D5
S1132FA0FE01E894A5912591359145915591A6F39B
S1132FB0EF010E94B815FE019701A801DA9469F7A0
S1132FC0DF90EF90FF900F911F91CF91DF910895C3
S1132FD09B01AC0160E070E080E89FE30C94AE18C4
S1132FE00C9479160C9420190E94A916D8F39923ED
S1132FF0C9F3940F511DA3F39150504094F059F02C
S1133000882332F0660F771F881F91505040C1F714
S11330109E3F51052CF7880F911D9695879597F93A
S113302008955F3FACF0983E9CF0BB27869577955A
S11330306795B79508F4B1609395C1F7BB0F58F73E
S113304011F460FFE8CF6F5F7F4F8F4F9F4FE3CF47
S11330500C94C41616F00C9420190C947F166894E2
S11330600C9479160E94A916A8F39923C1F3AEF320
S1133070DF93CF931F930F93FF92C92FDD278823EC
S11330802AF02197660F771F881FDAF720E030E0D7
S113309040E85FEB9FE3883920F0803E38F02196CA
S11330A08F770E94A115EEEDF0E004C00E94A115F7
S11330B0EBE0F1E00E94C1178B01BE01EC01FB2E95
S11330C06F5771097595771F880B990B0E943E16EF
S11330D028E132E741E35FE30E94DD16AF2D98015A
S11330E0AE01FF900F911F91CF91DF910E94B8150F
S11330F00C949016FA01DC01AA0FBB1F9B01AC01D2
S1133100BF5728F4222733274427507820C0B751CB
S113311090F4AB2F0024469537952795011CA39571
S1133120D2F3002071F0220F331F441FB395DAF35A
S11331300ED00C94A01561307105A0E88A07B94639
S113314030F49B01AC016627772788279078309666
S113315021F0208331834283538308950E94C2184F
S11331600C9490160E94891658F00E94821640F022
S113317029F45F3F29F00C94791651110C94C4166C
S11331800C947F160E94A11668F39923B1F355237A
S113319091F3951B550BBB27AA2762177307840766
S11331A038F09F5F5F4F220F331F441FAA1FA9F3FC
S11331B035D00E2E3AF0E0E832D091505040E695EA
S11331C0001CCAF72BD0FE2F29D0660F771F881F4B
S11331D0BB1F261737074807AB07B0E809F0BB0B3E
S11331E0802DBF01FF2793585F4F3AF09E3F510552
S11331F078F00C9479160C94C4165F3FE4F3983E6F
S1133200D4F3869577956795B795F7959F5FC9F73A
S1133210880F911D9695879597F90895E1E0660FBB
S1133220771F881FBB1F621773078407BA0720F034
S1133230621B730B840BBA0BEE1F88F7E09508959D
S11332409F3F31F0915020F4879577956795B79516
S1133250880F911D9695879597F9089597FB072EEA
S113326016F4009407D077FD09D00E94751907FC65
S113327005D03EF4909581959F4F08957095619582
S11332807F4F0895A1E21A2EAA1BBB1BFD010DC09E
S1133290AA1FBB1FEE1FFF1FA217B307E407F50702
S11332A020F0A21BB30BE40BF50B661F771F881FDE
S11332B0991F1A9469F760957095809590959B0174
S11332C0AC01BD01CF010895EE0FFF1F0590F491ED
S11332D0E02D09940E948919A59F900DB49F900D2B
S11332E0A49F800D911D11240895AA1BBB1B51E1BD
S11332F007C0AA1FBB1FA617B70710F0A61BB70B62
S1133300881F991F5A95A9F780959095BC01CD0106
S11333100895A29FB001B39FC001A39F700D811DAA
S11333201124911DB29F700D811D1124911D0895CA
S1133330FC0188279927E89421912032E9F3293068
S113334010F02E30C8F32B3241F02D3239F468944A
S113335004C00E94BF19820F911D219120532A306D
S1133360C0F31EF4909581959F4F0895FB01DC01F5
S113337002C001900D9241505040D8F708957AE070
S1133380979F902D879F802D910D11240895AEE075
S1133390B0E0EDECF9E10C94E71C0D891E898F89EE
S11333A0988D26E02C831A83098397FF02C080E05E
S11333B090E801979E838D83AE01455E5F4F698DD2
S11333C07A8DCE0101960E94191A4D815E8157FDB6
S11333D00AC02F813885421753070CF49A01F8016B
S11333E0E20FF31F10822E96E4E00C94031DAEE06E
S11333F0B0E0EDEFF9E10C94E71C0D891E8986E03D
S11334008C831A8309838FEF9FE79E838D83AE019C
S1133410475E5F4F6F89788DCE0101960E94191A1D
S1133420EF81F885E00FF11F10822E96E4E00C94F2
S1133430031DABE0B0E0EFE1FAE10C94D91C6C01A0
S11334407B018A01FC0117821682838181FFCCC132
S1133450CE0101963C01F6019381F70193FD85911C
S113346093FF81917F01882309F4BAC1853239F42D
S113347093FD859193FF81917F01853229F4B601F3
S113348090E00E94101CE7CF912C212C312CFFE1FD
S1133490F315D8F08B3279F038F4803279F0833236
S11334A0A1F4232D20611DC08D3261F0803369F4B5
S11334B0232D216016C0832D8260382EE32DE46015
S11334C03E2E2AC0F32DF8601DC037FC2DC020ED20
S11334D0280F2A3040F08E32B9F436FC81C1232DF6
S11334E02064322E19C036FE06C08AE0989E200D54
S11334F01124922E11C0EAE02E9E200D1124222EBA
S1133500F32DF0623F2E08C08C3621F4832D8068A1
S1133510382E02C0883641F4F70193FD859193FF5C
S113352081917F018111B3CF982F9F7D9554933062
S113353028F40C5F1F4F9FE399830DC0833631F04D
S1133540833771F0833509F059C021C0F8018081B7
S113355089830E5F1F4F88248394912C530113C0D9
S11335602801F2E04F0E511CF801A080B18036FE14
S113357003C0692D70E002C06FEF7FEFC5010E94A8
S1133580051C4C018201F32DFF773F2E16C0280144
S113359022E0420E511CF801A080B18036FE03C027
S11335A0692D70E002C06FEF7FEFC5010E94FA1B26
S11335B04C01F32DF0683F2E820133FC1BC0822D99
S11335C090E088169906B0F4B60180E290E00E947B
S11335D0101C2A94F4CFF50137FC859137FE8191B4
S11335E05F01B60190E00E94101C21102A9421E092
S11335F0821A91088114910471F7E8C0843611F09D
S1133600893641F5F80137FE07C0608171818281F6
S113361093810C5F1F4F08C060817181072E000CDD
S1133620880B990B0E5F1F4FF32DFF763F2E97FFEC
S113363009C090958095709561957F4F8F4F9F4FEE
S1133640F0683F2E2AE030E0A3010E944C1C882E33
S1133650861845C0853731F4232D2F7EB22E2AE0FB
S113366030E025C0932D997FB92E8F36C1F018F420
S1133670883579F0B5C0803719F0883721F0B0C0AB
S1133680E92FE061BE2EB4FE0DC0FB2DF460BF2E09
S113369009C034FE0AC0292F2660B22E06C028E0D5
S11336A030E005C020E130E002C020E132E0F80162
S11336B0B7FE07C060817181828193810C5F1F4FC7
S11336C006C06081718180E090E00E5F1F4FA3010E
S11336D00E944C1C882E8618FB2DFF773F2E36FE49
S11336E00DC0232D2E7FA22E891458F434FE0BC056
S11336F032FC09C0832D8E7EA82E05C0B82CA32CC5
S113370003C0B82C01C0B92CA4FE0FC0FE01E80D03
S1133710F11D8081803321F49A2D997EA92E09C050
S1133720A2FE06C0B394B39404C08A2D867809F02F
S1133730B394A3FC11C0A0FE06C0B21488F4280CF4
S1133740922C9B180EC0B21460F4B60180E290E093
S11337500E94101CB394F7CFB21418F42B1802C0B3
S1133760982C212CA4FE10C0B60180E390E00E94A6
S1133770101CA2FE17C0A1FC03C088E790E002C0A1
S113378088E590E0B6010CC08A2D867859F0A1FE38
S113379002C08BE201C080E2A7FC8DE2B60190E09A
S11337A00E94101C891438F4B60180E390E00E9452
S11337B0101C9A94F7CF8A94F301E80DF11D8081CF
S11337C0B60190E00E94101C8110F5CF222009F46C
S11337D042CEB60180E290E00E94101C2A94F6CFFB
S11337E0F6018681978102C08FEF9FEF2B96E2E16D
S11337F00C94F51CFC010590615070400110D8F741
S1133800809590958E0F9F1F0895FC016150704024
S113381001900110D8F7809590958E0F9F1F089501
S11338200F931F93CF93DF93FB01238121FD03C0EB
S11338308FEF9FEF2CC022FF16C046815781248151
S113384035814217530744F4A081B1819D012F5F54
S11338503F4F318320838C93268137812F5F3F4FE5
S11338603783268314C08B01EC01FB010084F185AE
S1133870E02D0995892BE1F6D80116968D919C913E
S11338801797019617969C938E931697CE01DF9106
S1133890CF911F910F910895FA01AA27283051F171
S11338A0203181F1E8946F936E7F6E5F7F4F8F4F6D
S11338B09F4FAF4FB1E03ED0B4E03CD0670F781FCC
S11338C0891F9A1FA11D680F791F8A1F911DA11DB1
S11338D06A0F711D811D911DA11D20D009F46894EA
S11338E03F912AE0269F11243019305D3193DEF692
S11338F0CF010895462F4770405D4193B3E00FD048
S1133900C9F7F6CF462F4F70405D4A3318F0495D32
S113391031FD4052419302D0A9F7EACFB4E0A69515
S11339209795879577956795BA95C9F70097610537
S1133930710508959B01AC010A2E0694579547958D
S113394037952795BA95C9F7620F731F841F951F82
S1133950A01D0895DC01CB01FC01E199FECF06C056
S1133960FFBBEEBBE09A31960DB20D924150504030
S1133970B8F70895E199FECF9FBB8EBBE09A9927D3
S11339808DB30895DC01CB0103C02D910E94CD1CA1
S113399041505040D0F70895262FE199FECF9FBBA8
S11339A08EBB2DBB0FB6F894E29AE19A0FBE019636
S11339B008952F923F924F925F926F927F928F92CF
S11339C09F92AF92BF92CF92DF92EF92FF920F93AA
S11339D01F93CF93DF93CDB7DEB7CA1BDB0B0FB6B4
S11339E0F894DEBF0FBECDBF09942A883988488871
S11339F05F846E847D848C849B84AA84B984C88407
S1133A00DF80EE80FD800C811B81AA81B981CE0FFD
S1133A10D11D0FB6F894DEBF0FBECDBFED010895E2
S1073A20F894FFCF44
S1133A242020496F54204475616C2D4368616E6E87
S1133A34656C2020002046756E6374696F6E2047A0
S1133A44656E657261746F72200020204669726D20
S1133A5477617265205265763A25632E25632020AA
S1133A640020204B686F6D4C616273204465736958
S1133A74676E2020200020202020202020202020C9
S1133A8420202020202020202020003C3C53687546
S1133A9474646F776E20726571756573743E3E004D
S1133AA4446576696365207368757474696E672008
S1133AB4646F776E00696E2058207365632020203C
S1133AC42020202020202020200041542B43574A2A
S1133AD441503D222573222C222573220D0A0043D2
S1133AE46F6D6D756E69636174696F6E2065727252
S1133AF46F72210050726573732074686520627557
S1133B0474746F6E2020202000746F2072657374A7
S1133B146172742064657669636520202000202026
S1133B24203C3C3C204552524F52203E3E3E2020F5
S1133B3420200041542B474C53503D310D0A00566C
S1133B444241543D25640D0A0041433D4F4E0D0A44
S1133B540041433D4F46460D0A00413A25737C001B
S1133B64663A257320487A0056413D2573567C00F5
S1133B745662413D25735600423A25737C005642F1
S1133B843D2573567C005662423D257356002563D9
S1133B9425632E2563256300202053687574746996
S1133BA46E6720446F776E2E2E2E20200020202056
S1133BB4202020696E205820736563202020202053
S1133BC420002020205265626F6F74696E672E2E68
S1133BD42E202020202000526573657420746F20E9
S1133BE4666163746F72792E2E2E20004553503310
S1133BF432204465766963652E2E2E2E2E2E2020C7
S1133C04004553503332204465766963652E2E2E65
S1133C142E2E2E4F4B004F70656E696E67204E65D5
S1133C2474776F726B2E2E2E202000415445300D74
S1133C340A0041542B43574D4F44453D330D0A006C
S1133C444F70656E696E67204E6574776F726B2E64
S1133C542E2E4F4B004372656174696E6720536561
S1133C64727665722E2E2E20200041542B43575316
S1133C7441503D22494F545F46554E4347454E22D9
S1133C842C2230222C312C300D0A0041542B434970
S1133C94504D55583D310D0A004372656174696E87
S1133CA467205365727665722E2E2E4F4B003C5757
S1133CB4616974696E6720466F722044657669632E
S1133CC4653E0041542B4349505345525645523D99
S1133CD4312C313732360D0A00203C446576696351
S1133CE46520636F6E6E65637465643E20002B30DB
S1133CF42E303000205374617274696E67205769E2
S1133D042D4669204C414E2000636F6D6D756E69BC
S1133D14636174696F6E2077697A617264004154D7
S1133D242B43574D4F44453D310D0A00416E647297
S1133D346F69642064657669636520666F756E6473
S1133D440046756E6347656E204D414320416464AB
S1133D54726573733A003C2020205265747269655D
S1133D6476696E672E2E2E20203E0041542B434943
S1133D74505354414D41433F0D0A0041542B434990
S1133D845053454E443D302C32330D0A00535349AD
S1133D94443A257300504153533A25730057692D0F
S1133DA4466920646174612072656365697665643B
S1133DB43A00436F6E6E656374696F6E3A2053659F
S1133DC4637572656400436F6E6E656374696F6EC8
S1133DD43A204F70656E2020202000202053746107
S1133DE47274696E672044697265637420202000CC
S1133DF45075736820627574746F6E20746F2062DA
S1133E046567696E0020204E6F20446566696E659F
S1133E14642057692D4669202000436F6E6E6563E4
S1133E2474696F6E20417661696C61626C650057D8
S1133E344C414E2050616972696E672E2E205820C1
S1073E44736563003B
S9030000FC
