S0120000496F7446756E6347656E2E7372656340
S11300000C949C000C94B9000C94B9000C94B900A5
S11300100C94B9000C94B9000C94B9000C94B90078
S11300200C94B9000C94B9000C94B9000C94B90068
S11300300C94B9000C9470130C94B9000C94B9008E
S11300400C94B9000C94B9000C94B9000C94B90048
S11300500C94B9009F0BD30B160CE60BFE0C140D7D
S1130060EC0B5F0D6B0D900DAB0DD00DEB0D0F0E6A
S1130070420E2810341060108210AE10D010FB1005
S11300802B117211B8111C131E13201322132413E5
S11300902613281342134413461348134A134C13CC
S11300A04E138913B413DF130A143D147014A314EC
S11300B0D614D6144A1507634236B79BD8A71A3903
S11300C0685618AEBAAB558C1D3CB7CC5763BD6DA2
S11300D0EDFD753EF6177231BF000000803F080049
S11300E00000BE922449123EABAAAA2ABECDCCCCB3
S11300F04C3E00000080BEABAAAAAA3E000000004D
S1130100BF000000803F0000000000084178D3BB1E
S11301104387D1133D190E3CC3BD4282AD2B3E68CB
S1130120EC8276BED98FE1A93E4C80EFFFBE01C4BC
S1130130FF7F3F000000000011241FBECFE5D8E080
S1130140DEBFCDBF14E0A0E6B0E0EAE3FAE302C00C
S113015005900D92A238B107D9F726E0A2E8B4E0E1
S113016001C01D92A635B207E1F70E9474120C94E7
S11301701B1D0C9400008F9A8E9A8D9A8C9AB99AB2
S1130180B89A0895979888230CF4979A969886FDC0
S1130190969A959885FD959A949884FD949AC19A17
S11301A08AEB8A95F1F700C0C1988AEB8A95F1F73A
S11301B000C00895CF93C82FC09AC1980E94C2006E
S11301C08C2F8295807F0E94C200CF9108950F9357
S11301D01F93CF93DF9300D0CDB7DEB78C011A8283
S11301E01982E981FA81E80FF91F80818823C9F017
S11301F0E981FA81E00FF11F80810E94DA00898190
S11302009A8101969A8389838FE391E00197F1F7AC
S113021000C00000E981FA81E00FF11F80818111A3
S1130220E7CF0F900F90DF91CF911F910F91089519
S1130230CF93C82FC098C1980E94C2008C2F82957A
S1130240807F0E94C200CF9108952FEF80E792E053
S1130250215080409040E1F700C00000C098C19850
S113026080E30E94C2008FE39CE90197F1F700C08C
S1130270000080E30E94C20087E592E00197F1F755
S113028000C0000080E30E94C20087E592E001976D
S1130290F1F700C0000088E20E94C20090EF9A9536
S11302A0F1F788E20E94180120EF2A95F1F788E01F
S11302B00E94180180EF8A95F1F781E00E941801ED
S11302C08FE79EE30197F1F700C0000086E00E94EB
S11302D0180190EF9A95F1F78CE00E94180120EF35
S11302E02A95F1F70895CF93DF93EC01862F806868
S11302F00E941801CE010E94E700DF91CF9108957A
S11303000F931F93CF93DF93CDB7DEB764970FB6E8
S1130310F894DEBF0FBECDBF60E080E690E00E949F
S1130320730160E485E790E00E9473011F9280E30B
S11303308F931F9282E38F938AE890E09F938F9329
S11303401F9284E18F938E010F5F1F4F1F930F93B2
S11303500E94D21964E1C8010E94730164E581EA34
S113036090E00E9473010FB6F894DEBF0FBECDBFBC
S113037064960FB6F894DEBF0FBECDBFDF91CF9168
S11303801F910F910895682F86EB90E00E947301EE
S1130390089580E00E94C30180E40E94C30184E1C7
S11303A00E94C30184E50E94C3010895CF93C82F1E
S11303B0862F8068840F0E9418018C2F0E94DA0017
S11303C0CF910895CF93DF93EC01411105C0862F9F
S11303D080680E9418010FC0662311F0643131F463
S11303E086E0860F80680E94180105C08AE0860FA7
S11303F080680E941801CE010E94E700DF91CF912E
S11304000895611112C0882311F0843139F440E059
S1130410682F83EC90E00E94E201089540E0682F89
S113042080EC90E00E94E2010895882311F0843169
S113043039F4462F682F8DEB90E00E94E201089575
S1130440462F682F8FEB90E00E94E201089586E426
S1130450DB9AE3E5F3E03197F1F700C00000DB98A5
S1130460E3E5F3E03197F1F700C00000815081F734
S113047008958823B1F18CEEDB9AE3E5F3E031973C
S1130480F1F700C00000DB98E3E5F3E03197F1F702
S113049000C00000815081F788E291E0DB9AE3EA32
S11304A0F2E03197F1F700C00000DB98E3EAF2E0F4
S11304B03197F1F700C00000019781F780EC92E0DA
S11304C0DB9AE7E3F2E03197F1F700C00000DB9834
S11304D0E7E3F2E03197F1F700C00000019781F7FC
S11304E0089588E291E0DB9AE3EAF2E03197F1F7CC
S11304F000C00000DB98E3EAF2E03197F1F700C0B6
S11305000000019781F78CEEDB9AE3E5F3E0319785
S1130510F1F700C00000DB98E3E5F3E03197F1F771
S113052000C00000815081F780E691E0DB9AEFE69D
S1130530F4E03197F1F700C00000DB98EFE6F4E057
S11305403197F1F700C00000019781F7089584B353
S11305508C6F84BBD49A87B38C6187BB87B3836069
S113056087BB81B3806F81BB8AB38C7F8ABB87B31F
S1130570806A87BBBE98899A889884B3836084BB59
S11305808A988AB38C608ABB089586B1876886B9D5
S11305903E9A0895633041F4853011F4A898089583
S11305A0863049F4A9980895853011F4A89A0895DD
S11305B0863009F4A99A08958F929F92AF92BF92C0
S11305C0EF92FF920F931F93CF93DF93F82E4A017C
S11305D05B01E22E0E945213C501B4010E9447162A
S11305E027E73CEC4BE251E40E94D5160E94181612
S11305F0EB01DF73DC01CB01072E7EE0B695A795F6
S1130600979587957A95D1F7702D8C011F734F2D8F
S113061060E081E20E940F138D2F8F734F2D6C2F9A
S113062080640E940F13812F8F734F2D602F80647D
S11306300E940F134F2D60E080EC0E940F1382E0A4
S1130640E81661F083E0E81679F081E0E81212C060
S11306504F2D60E280E20E940F1311C04F2D62E023
S113066080E20E940F130BC04F2D68E280E20E94CB
S11306700F1305C04F2D60E880E20E940F136E2D0A
S11306808F2D0E94CA020E946113DF91CF911F91A6
S11306900F91FF90EF90BF90AF909F908F9008952F
S11306A02FEF3FE0281B390B832F8F70653041F407
S11306B041E0622F806F0E940F1380E090E0089564
S11306C0663041F442E0622F806F0E940F1380E095
S11306D090E008958FEF9FEF0895829904C0829B64
S11306E0FECF81E0089580E008952FEF829FC0013E
S11306F0112464E670E00E943919609547E081E1B5
S11307000E940F1308958536F8F429E1829FC001F1
S1130710112464E670E00E943919655B70E080E0A2
S113072090E00E9449162DEC3CEC43E252E40E9416
S1130730D5160E941816872F8F7042E080670E949A
S11307400F1380E090E008958FEF9FEF0895CF930B
S1130750C0E08C2F0E9483038FE19EE40197F1F7A0
S113076000C00000CF5FC536A1F7CF9108950E9465
S1130770A70384E60E9475030E94800181E00E9421
S113078039022FEF8DE399E4215080409040E1F746
S113079000C0000008957F70853019F0863099F00C
S11307A024C0442341F043E0872F80670E940F1345
S11307B080E090E0089543E0872F806F0E940F133C
S11307C080E090E00895442341F044E0872F80675F
S11307D00E940F1380E090E0089544E0872F806F1B
S11307E00E940F1380E090E008958FEF9FEF08952B
S11307F0CF93DF93C0E0D0E060E0CE010E94D71C2D
S11308002196C138D105C1F7DF91CF910895CF93D7
S1130810DF93D82F0E9427020E94C90160E08BEC6D
S113082090E00E94730160E480EE90E00E94730106
S113083064E185EF90E00E947301C5E343E064E165
S11308408C2F0E94D6012FEF89E698E12150804039
S11308509040E1F700C00000C150C03379F7D111D6
S11308600E94F80380E00E943902DA98DF91CF9168
S11308700895CF92DF92EF92FF920F931F93CF933D
S1130880DF93C4E9D4E080E8FE0111928A95E9F788
S113089007E515E080E2F80111928A95E9F70F2E39
S11308A0F7E7EF2EF5E0FF2EF02D80E4F70111922B
S11308B08A95E9F70F2EFEECCF2EF5E0DF2EF02D12
S11308C0F601108240E250E061E070E0C8010E944D
S11308D0B51C40E450E061E270E0C7010E94B51C21
S11308E081E690E00E94C51CF6018083FF92EF929E
S11308F01F930F938AE091E09F938F93DF93CF939D
S11309000E94021AEDB7FEB738960FB6F894FEBFF0
S11309100FBEEDBFCE01DF91CF911F910F91FF90DC
S1130920EF90DF90CF90089540E250E061E070E0F6
S113093087E595E00E94CD1C40E450E061E270E060
S113094087E795E00E94CD1C6091CE0581E690E09A
S11309500E94D71C0895CF93DF9300D01F92CDB788
S1130960DEB780E2E7E5F5E0DF011D928A95E9F75D
S113097080E4E7E7F5E0DF011D928A95E9F71B8241
S1130980E8EDF5E086E091919C3249F49081903550
S113099031F49FEF980F99838E5F8A8303C08F5F32
S11309A0863289F74A81242F30E08A8190E0805C86
S11309B09F4F28173907CCF4F901EE52FA4F808182
S11309C08C3249F4F901EE52FA4F8181853419F4DD
S11309D041504B830AC04F5F242F30E08A8190E05E
S11309E0805C9F4F281739073CF3498150E04550FC
S11309F0510968ED75E087E595E00E94C1194B81C6
S1130A008A816A8150E0481B51094F5F5F4F70E053
S1130A106E527A4F87E795E00E94C119EB81F0E0AE
S1130A20EE52FA4F83818093CE050F900F900F9072
S1130A30DF91CF910895E7EBF5E08DE491E49183A4
S1130A40808383E49DE39383828381E1EEEDF5E08B
S1130A50ABEBB5E001900D928A95E1F78DE09AE059
S1130A609093CD058093CC0508950E94C90160E060
S1130A708FE191E00E94730160E484E391E00E94BD
S1130A80730164E189E491E00E94730164E58EE5F9
S1130A9091E00E947301C0E00E946D03882381F0FD
S1130AA0CF5F2FEF89E698E1215080409040E1F735
S1130AB000C00000C43080F381E00E940704ECCF42
S1130AC083E791E00E9482152FEF84E39CE021509C
S1130AD080409040E1F700C0000098E088E10FB644
S1130AE0F894A89581BD0FBE91BDFFCF2FEF829FD3
S1130AF0C001112464E670E00E943919609547E052
S1130B0080E70E940F1308959091D9059D30C9F193
S1130B103091DA053D3011F4905321C02091DB056A
S1130B202D3051F4990F20EA290F922F990F990F24
S1130B30920F3053930F13C04091DC054D3019F5DB
S1130B40330F3056432F440F440F340F2053320FCA
S1130B5020ED290F932F44E6249F900D112481301A
S1130B6021F49093D005892F0895811104C09093A6
S1130B70CF05892F0895823041F49093D105892FB0
S1130B80089580E0089584E60895892F0895CF9309
S1130B90DF9300D0CDB7DEB71A821982389A369A1D
S1130BA03699FECF84B195B19A838983369A369962
S1130BB0FECF24B135B189819A81820F931F969516
S1130BC087959A83898389819A81843F914018F417
S1130BD01092150503C081E0809315050F900F90C6
S1130BE0DF91CF910895EAE8F4E08AE0DF011D92F5
S1130BF08A95E9F7809114051F928F938DE791E010
S1130C009F938F931F928BE08F93FF93EF930E9498
S1130C10D2198DB79EB708960FB6F8949EBF0FBE33
S1130C208DBF8AE894E0089588E0E2E8F4E0DF010B
S1130C301D928A95E9F780911505882399F087E834
S1130C4091E09F938F931F9287E08F93CF019F939F
S1130C50EF930E94D2190F900F900F900F900F9066
S1130C600F9009C089E0EFE8F1E0A2E8B4E0019058
S1130C700D928A95E1F782E894E00895843E2CE091
S1130C80920708F4A6C0AC019C01245E3C40243FBA
S1130C903140B0F494E2949FB001959F700D1124FB
S1130CA06051704D80E090E00E9447162FE632E1DB
S1130CB043E05BE30E94D5160E941816862F089520
S1130CC09A01285D3E4024363105E0F48AE1849F90
S1130CD0B001859F700D1124605F714880E090E041
S1130CE00E9447162AE037ED43E25CE30E94D516E2
S1130CF020E030E040E152E40E94AC150E94181656
S1130D00862F08959A012C533F4024363105E0F490
S1130D108BE0849FB001859F700D11246459774A3C
S1130D2080E090E00E9447162AE037ED43E25CE35E
S1130D300E94D51620E030E048E752E40E94AC154A
S1130D400E941816862F0895CA01805A9F4084363F
S1130D509105E8F4BA01605A7F4F62957295707FED
S1130D607627607F762780E090E00E9447162AE08D
S1130D7037ED43E25CE30E94D51620E030E042E91F
S1130D8052E40E94AC150E941816862F0895CA01D9
S1130D908450904184369105F0F48BE0849FB00137
S1130DA0859F700D11246C52704B80E090E00E947E
S1130DB047162AE037ED43E25CE30E94D51620E0B3
S1130DC030E042EB52E40E94AC150E941816862FC4
S1130DD0089580E0089584E6089517B8369A369900
S1130DE0FECF64B175B180E090E00E9447162CEA12
S1130DF03CE14AE75FE30E94D5160E94181680E0A2
S1130E0090E00E94471626E933E443EB50E40E9445
S1130E10D5160E941816CB010E943E068093140535
S1130E2008950F931F93CF93DF93CDB7DEB76497E5
S1130E300FB6F894DEBF0FBECDBF182F062F0E9449
S1130E400102FE01319684E1DF011D928A95E9F7E2
S1130E50143109F46AC018F4112339F0C5C01034F0
S1130E60A1F1143509F491C0BFC0011117C089E381
S1130E7095E09F938F9388E991E09F938F931F92BE
S1130E8087E08F93CE0101969F938F930E94D2198E
S1130E900FB6F894DEBF0FBECDBFA6C087E195E0C4
S1130EA09F938F938EE991E09F938F931F928DE090
S1130EB08F93CE0101969F938F930E94D2190FB600
S1130EC0F894DEBF0FBECDBF8FC0011117C087E2FB
S1130ED095E09F938F9386EA91E09F938F931F925F
S1130EE08AE08F93CE0101969F938F930E94D2192B
S1130EF00FB6F894DEBF0FBECDBF76C08FE295E08B
S1130F009F938F938EEA91E09F938F931F928BE030
S1130F108F93CE0101969F938F930E94D2190FB69F
S1130F20F894DEBF0FBECDBF5FC0011117C08CE3C4
S1130F3095E09F938F9386EB91E09F938F931F92FD
S1130F4087E08F93CE0101969F938F930E94D219CD
S1130F500FB6F894DEBF0FBECDBF46C08FE195E05B
S1130F609F938F938EE991E09F938F931F928DE0CF
S1130F708F93CE0101969F938F930E94D2190FB63F
S1130F80F894DEBF0FBECDBF2FC0011117C08BE296
S1130F9095E09F938F938CEB91E09F938F931F9297
S1130FA08AE08F93CE0101969F938F930E94D2196A
S1130FB00FB6F894DEBF0FBECDBF16C084E395E034
S1130FC09F938F9384EC91E09F938F931F928BE078
S1130FD08F93CE0101969F938F930E94D2190FB6DF
S1130FE0F894DEBF0FBECDBF402F612FCE01019616
S1130FF00E94E20164960FB6F894DEBF0FBECDBF27
S1131000DF91CF911F910F91089560E080E00E94DD
S1131010110761E080E00E94110760E080E40E9413
S1131020110761E080E40E94110760E084E10E94FE
S1131030110761E084E10E94110760E084E50E94E9
S1131040110761E084E50E94110708958F929F9231
S1131050AF92BF92CF92DF92EF92FF920F931F93C2
S1131060CF93DF9300D000D000D0CDB7DEB7182FD8
S113107019821A821B821C821D821E82803341F4D3
S113108088E0E7E1F5E0DF011D928A95E9F707C002
S113109088E0EFE1F5E0DF011D928A95E9F789E048
S11310A0898389818032C0F4E981F0E0EE52FA4FFD
S11310B08181823259F407C0E981F0E0EE52FA4F9F
S11310C08181823219F489818A8306C089818F5F84
S11310D089838981803280F38A81898389818930F7
S11310E008F45CC009816A81898170E0681B710918
S11310F0072E000C880B990B0E9449169B01AC012A
S113110060E070E080E291E40E9442176B017C0190
S11311108B809C80AD80BE80E02FF0E0EE52FA4FD1
S1131120608170E060537109072E000C880B990BE5
S11311300E944916A70196010E94D5166B017C01F5
S1131140C501B4010E9447169B01AC01C701B60159
S11311500E94AC150E9418166B837C838D839E833A
S1131160103359F4E981A981F0E0E25FFA4FB0E06D
S1131170AE52BA4F8C9180830AC0E981A981F0E014
S1131180EA5EFA4FB0E0AE52BA4F8C918083898107
S1131190815089838981893008F0A4CF8B819C8117
S11311A0AD81BE81BC01CD016F5F7F4F8F4F9F4FDB
S11311B026960FB6F894DEBF0FBECDBFDF91CF9158
S11311C01F910F91FF90EF90DF90CF90BF90AF9061
S11311D09F908F900895EF92FF920F931F93CF9358
S11311E0DF93CDB7DEB727970FB6F894DEBF0FBEF7
S11311F0CDBFE82E19821A821B821C82E2EDF5E033
S113120011851D8303850E83F484FF82CE01059628
S11312100E94A319092E000CAA0BBB0B89839A8385
S1131220AB83BC8380E3E8121EC0E7E2F5E088E00C
S1131230DF011D928A95E9F71F92FF921F920F9387
S11312401F921F938EEC91E09F938F931F9285E0E2
S11312508F93FF93EF930E94D2190FB6F894DEBFD9
S11312600FBECDBF1DC0EBE2F5E088E0DF011D92AB
S11312708A95E9F71F92FF921F920F931F921F9373
S11312808EEC91E09F938F931F9285E08F93FF9351
S1131290EF930E94D2190FB6F894DEBF0FBECDBFF4
S11312A029813A814B815C81AFEFBFE00E947519BF
S11312B026E430E040E050E00E944D19C901279631
S11312C00FB6F894DEBF0FBECDBFDF91CF911F9153
S11312D00F91FF90EF900895EF92FF920F931F9359
S11312E0CF93DF93CDB7DEB727970FB6F894DEBF61
S11312F00FBECDBFE82E19821A821B821C82E2ED3A
S1131300F5E012851D8304850E83F584FF82CE01EA
S113131005960E94A319092E000CAA0BBB0B898306
S11313209A83AB83BC8380E3E81222C0EFE2F5E04A
S113133088E0DF011D928A95E9F71F92FF921F92C0
S11313400F931F921F938091DB051F928F938CEC58
S113135091E09F938F931F9286E08F93FF93EF9377
S11313600E94D2190FB6F894DEBF0FBECDBF21C0C4
S1131370E4E3F5E088E0DF011D928A95E9F71F9226
S1131380FF921F920F931F921F938091DB051F9270
S11313908F938CEC91E09F938F931F9286E08F93B1
S11313A0FF93EF930E94D2190FB6F894DEBF0FBEDD
S11313B0CDBF29813A814B815C81AFEFBFE00E94B0
S11313C075192AE431E040E050E00E944D19C9014A
S11313D027960FB6F894DEBF0FBECDBFDF91CF9135
S11313E01F910F91FF90EF90089581E09091DB059C
S11313F09D3209F080E00895CF93DF938091D60564
S1131400803309F0BBC08091D805823409F490C0C0
S113141020F4813409F47DC06EC1863419F084351A
S1131420A9F069C180E30E942608AB01BC01EFE387
S1131430F5E04083518362837383208985E00E94B1
S1131440DC0261E080E00E94110755C18091DB0558
S11314508135C9F028F4843491F18F34F1F14AC014
S1131460833519F08435E9F045C081E080934F0558
S1131470E9E3F5E083E599E4918380838EE490E0E9
S11314809383828337C083E080934F05E9E3F5E0DB
S113149083E591E59183808382E590E09383828361
S11314A029C082E080934F05E9E3F5E084E592E505
S11314B09183808387E490E0938382831BC084E0DC
S11314C080934F05E9E3F5E084E493E4918380831A
S11314D080E290E0938382830DC085E080934F0582
S11314E0E9E3F5E08FE496E49183808386E490E079
S11314F093838283EFE3F5E04081518162817381BC
S1131500208985E00E94DC0260E080E00E941107EF
S1131510F2C080E30E94EB0890934C0580934B0546
S113152065E00E94500360E080E40E941107E3C07C
S113153080E30E946C09CFE3D5E09B8B8A8B0E94E9
S1131540F5098E8B811107C041E060E070E085E011
S11315500E94CB0306C040E060E070E085E00E949A
S1131560CB03EFE3F5E062897389468985E00E9445
S1131570CB0361E080E40E941107BDC0813309F010
S1131580BAC08091D805823409F490C020F4813423
S113159009F47DC0B0C0863419F08435A9F0ABC01D
S11315A081E30E942608AB01BC01EFE3F5E044832C
S11315B0558366837783218986E00E94DC0261E09B
S11315C084E10E94110797C08091DB058135C9F041
S11315D028F4843491F18F34F1F14AC0833519F041
S11315E08435E9F045C081E080935005ECE3F5E0F3
S11315F083E599E4918380838EE490E093838283EE
S113160037C083E080935005ECE3F5E083E591E592
S11316109183808382E590E09383828329C082E072
S113162080935005ECE3F5E084E592E591838083B3
S113163087E490E0938382831BC084E08093500509
S1131640ECE3F5E084E493E49183808380E290E02A
S1131650938382830DC085E080935005ECE3F5E02D
S11316608FE496E49183808386E490E0938382837D
S1131670EFE3F5E04481558166817781218986E035
S11316800E94DC0260E084E10E94110734C081E31F
S11316900E94EB0890934E0580934D0566E00E94EE
S11316A0500360E084E50E94110725C081E30E9495
S11316B06C09CFE3D5E09D8B8C8B0E94F5098F8B51
S11316C0811107C041E060E070E086E00E94CB0336
S11316D006C040E060E070E086E00E94CB03EFE3E8
S11316E0F5E064897589478986E00E94CB0361E04F
S11316F084E50E941107DF91CF910895CF93DF9382
S11317001F92CDB7DEB781E08983FF24F39402ED05
S113171015E00F2EF3E58F2EF6E09F2EF02D0F2E01
S1131720F7E0AF2EF02D0F2EF5E0BF2EF02D6894CC
S1131730CC24C2F80F2EF3E0DF2EF02D7DC1F4018E
S11317408081882309F478C10E942702F8018281EC
S1131750873431F48381893419F582E089836CC13B
S1131760823431F4F80183818F34D1F4D98264C195
S1131770833431F4F80183818D3391F4C9825CC1DF
S11317808C3431F4F8018381833451F4B98254C127
S1131790823531F4F8018381853411F4A9824CC176
S11317A00E94911549C1F8018781813439F082344E
S11317B049F40E94F3050E94821504C00E94140695
S11317C00E9482150E949115F98236C10E94FC097B
S11317D00E949115F98230C10E94C90160E486ED2E
S11317E091E00E94730164E18BEE91E00E94730129
S11317F015E349E064E5812F0E94D601FFEF29E655
S113180088E1F15020408040E1F700C00000115011
S1131810103379F780E00E94390298E088E10FB62E
S1131820F894A89581BD0FBE91BDFFCFF8018781C3
S1131830843461F564E480E090E00E94D71C0E9447
S1131840C90160E480E092E00E94730164E18BEEE0
S113185091E00E94730115E349E064E1812F0E9445
S1131860D601FFEF29E688E1F15020408040E1F7FE
S113187000C000001150103379F798E088E10FB6EA
S1131880F894A89581BD0FBE91BDFFCF8C3461F54E
S11318906CE480E090E00E94D71C0E94C90160E4DF
S11318A080E092E00E94730164E18BEE91E00E947B
S11318B0730115E349E064E1812F0E94D6019FEF93
S11318C0E9E6F8E19150E040F040E1F700C00000A3
S11318D01150103379F798E088E10FB6F894A89581
S11318E081BD0FBE91BDFFCF833539F50E94C9017B
S11318F060E486ED91E00E94730164E18BEE91E077
S11319000E9473010F2EF5E3EF2EF02D49E064E100
S11319108E2D0E94D6012FEF89E698E12150804058
S11319209040E1F700C00000EA94E0E3EE12EECF4D
S113193080E00E943902DA987FC0823509F05CC0E9
S1131940F8018285843561F50E94C90160E485E16E
S113195092E00E94730164E18BEE91E00E947301B6
S113196015E349E064E1812F0E94D601FFEF29E6E7
S113197088E1F15020408040E1F700C000001150A0
S1131980103379F780E00E9439020E94F80398E04E
S113199088E10FB6F894A89581BD0FBE91BDFFCF25
S11319A0853451F50E94C90160E480E092E00E9410
S11319B0730164E18BEE91E00E94730115E349E049
S11319C064E1812F0E94D6019FEFE9E6F8E191508E
S11319D0E040F040E1F700C000001150103379F707
S11319E080E00E94390298E088E10FB6F894A89547
S11319F081BD0FBE91BDFFCFF9821EC0F801868163
S1131A00823419F0833439F00BC080E00E948405DD
S1131A100E94830305C08F2D0E9484050E947503D4
S1131A200E949115F98208C082E00E9484050E94F8
S1131A3076050E949115F982898190E0FC01319725
S1131A40E730F105C8F7E65DFF4F0C946F190E946B
S1131A502702D1E0C0E003E516E00F2EF5E5EF2EF6
S1131A60F6E0FF2EF02D6894BB24B3F86894CC24E0
S1131A70C2F80F2EF7E07F2EF02D0F2EF6E08F2EFA
S1131A80F02D0F2EF5E09F2EF02D0F2EF3E0AF2E4C
S1131A90F02D6894DD24D1F800C181E00E94070490
S1131AA0C43108F0F8C08D2F90E0FC013197E83084
S1131AB0F10508F0F2C0EF5CFF4F0C946F190E941F
S1131AC0C90160E08AE292E00E94730181E0F701BB
S1131AD08083DD2DE2C0F8018081882391F00E948B
S1131AE0911581E0F701808360E08FE392E00E942A
S1131AF0730160E484E592E00E947301DA2DC0E092
S1131B00CCC0CF5F89E692E00E948215FFEF23EC00
S1131B1089E0F15020408040E1F700C00000BDC0E2
S1131B20F8018081882341F00E94911581E0F7013A
S1131B308083DC2DC0E0B1C0CF5F80E792E00E94DB
S1131B408215FFEF23EC89E0F15020408040E1F75B
S1131B5000C00000A2C0F8018081882391F00E9497
S1131B60911581E0F701808360E48EE792E00E94A2
S1131B70730164E183E992E00E947301D92DC0E00E
S1131B808CC0CF5F88EA92E00E948215FFEF27E8BD
S1131B9083E1F15020408040E1F700C000007DC0A7
S1131BA0F8018081882341F00E94911581E0F701BA
S1131BB08083D82DC0E071C0CF5F89EC92E00E9491
S1131BC08215FFEF23EC89E0F15020408040E1F7DB
S1131BD000C0000062C0F8018081882389F00E945F
S1131BE0911564E187ED92E00E94730164E58CEE47
S1131BF092E00E947301F701C082D72DC0E04DC06E
S1131C00CF5F81E093E00E948215FFEF27E883E134
S1131C10F15020408040E1F700C000003EC0F801D0
S1131C2080818823D1F1F701B0820E942702FFE767
S1131C3028E381E0F15020408040E1F700C000003B
S1131C400E9427029FE7E8E3F1E09150E040F04072
S1131C50E1F700C000000E9427020E9491150E9433
S1131C60C90160E487E193E00E9473012FEF83EDE3
S1131C7090E3215080409040E1F700C00000DB2D4C
S1131C80C0E00BC064E480E090E00E94D71C0E9496
S1131C9005080E947E0B0E9435050E946D0388236F
S1131CA009F4FECEFACEEFE3F5E01082118212823F
S1131CB01382148215821682178211861086138667
S1131CC01286158614861786168685E0808B818B8E
S1131CD0138A128A158A148A08951F93CF93DF9367
S1131CE0CDE2D3E0DF93CF931F9214E01F9387E2FA
S1131CF095E09F938F930E94D219DF93CF931F9205
S1131D001F938BE295E09F938F930E94D219CCE2AC
S1131D10D3E0DF93CF931F9215E01F938FE295E0FA
S1131D209F938F930E94D219DF93CF931F921F9397
S1131D3084E395E09F938F930E94D21980E390E00F
S1131D4090931805809317059093200580931F05A1
S1131D508FE19EE40197F1F700C000008DB79EB7B4
S1131D6048960FB6F8949EBF0FBE8DBFDF91CF91FA
S1131D701F9108950E942702C1E0D0E003E516E018
S1131D800F2EF5E5EF2EF6E0FF2EF02D6894CC240F
S1131D90C2F86894662463F80F2EF4E1AF2EF5E0E0
S1131DA0BF2EF02D0F2EF6E07F2EF02D0F2EF5E036
S1131DB08F2EF02D6894DD24D1F80F2EF3E09F2EA2
S1131DC0F02DC33009F45BC028F4C13061F0C23097
S1131DD059F1F1C0C53009F4ABC008F47CC0C63079
S1131DE009F4D8C0E8C00E94C90160E482E393E02A
S1131DF00E94730164E187E493E00E9473012FEF72
S1131E0083ED90E3215080409040E1F700C0000052
S1131E100E94C90160E08AE292E00E94730181E0BD
S1131E20F7018083CD2DCBC0F8018081882381F018
S1131E300E949115F701D08260E08FE392E00E9446
S1131E40730160E484E592E00E947301C92DB7C078
S1131E5089E692E00E948215DF5FFFEF23EC89E0C0
S1131E60F15020408040E1F700C000000E946D0363
S1131E70882309F49CC081E00E94070498C0F801FB
S1131E808081882389F081E0F70180830E94911585
S1131E9060E48EE792E00E94730164E183E992E0DA
S1131EA00E947301CC2D8BC00E9439040E948215BC
S1131EB0DF5FFFEF21E18AE7F15020408040E1F746
S1131EC000C000000E946D03882309F470C081E003
S1131ED00E9407046CC0F8018081882391F0F70107
S1131EE0C0820E94911564E187ED92E00E94730123
S1131EF064E58CEE92E00E9473010E94C901C82D32
S1131F005EC081E093E00E948215DF5FFFEF27E867
S1131F1083E1F15020408040E1F700C000000E94BE
S1131F206D03882309F443C081E00E9407043FC085
S1131F30F8018081882331F1F70160820E949115B4
S1131F400E94C90160E487E193E00E94730181E08B
S1131F50F50182830E942702FFE728E381E0F15024
S1131F6020408040E1F700C000000E9427029FEF5C
S1131F70E3EDF0E39150E040F040E1F700C00000F1
S1131F80C72D1DC00E946D03882389F081E00E9443
S1131F9007040DC06CE480E090E00E94D71C0E940E
S1131FA06D0E0E9405080E947E0B0E943505D431F7
S1131FB008F407CFFACFD43108F403CFF6CFD0E03A
S1131FC000CFCF93DF93CDB7DEB7A8970FB6F894C1
S1131FD0DEBF0FBECDBF01E010E00F2EF3E5EF2E04
S1131FE0F6E0FF2EF02D0F2EF5E5CF2EF6E0DF2ED6
S1131FF0F02D0F2EF9E07F2EF02D0F2EFAE0BF2EDC
S1132000F02D0F2EF3E02F2EF02D0F2EF4E18F2E56
S1132010F5E09F2EF02D6894332433F86894AA24B5
S1132020A2F80F2EF7E04F2EF02D0F2EF6E05F2EC4
S1132030F02D6894662461F8802F90E0FC013197BC
S1132040EA30F10508F00BC2E75CFF4F0C946F19FE
S11320500E94C90160E08AE292E00E94730181E07B
S1132060F6018083062DF7C1F7018081882389F06A
S11320700E94911560E08FE392E00E94730160E496
S113208084E592E00E94730181E0F60180830A2DC9
S1132090EBC189E692E00E9482151F5FFFEF23ECFB
S11320A089E0F15020408040E1F700C000000E9428
S11320B06D03882309F4CFC181E00E940704CBC1DA
S11320C0F7018081882339F00E94911581E0F6019F
S11320D080830A2DC9C11F5F8CE593E00E9482159D
S11320E0FFEF23EC89E0F15020408040E1F700C08D
S11320F000000E946D03882309F4ADC181E00E94B1
S11321000704A9C1F7018081882389F00E949115F1
S113211060E48EE792E00E94730164E183E992E057
S11321200E94730181E0F601808305E09DC188EA85
S113213092E00E9482151F5FFFEF27E883E1F150D0
S113214020408040E1F700C000000E946D03882316
S113215009F481C181E00E9407047DC1F7018081F7
S1132160882339F081E0F60180830E949115052DC2
S11321707BC11F5F89EC92E00E948215FFEF23EC84
S113218089E0F15020408040E1F700C000000E9447
S11321906D03882309F45FC181E00E9407045BC1D9
S11321A0F7018081882381F0F601A0820E949115B5
S11321B064E187ED92E00E94730164E58CEE92E0A5
S11321C00E947301042D50C181E093E00E948215A6
S11321D01F5FFFEF27E883E1F15020408040E1F7E3
S11321E000C000000E946D03882309F434C181E01B
S11321F00E94070430C1F7018081882319F1F60198
S1132200B0820E9491150E94C90160E08AE693E0C1
S11322100E94730160E48FE793E00E94730164E11C
S113222084E993E00E94730181E0F4018283FFEF6B
S113223029E688E1F15020408040E1F700C0000029
S1132240032D12C10E946D03882309F404C181E0A7
S11322500E94070400C1F7018081882349F10E948C
S11322601B0564E187EB95E00E947301FFEF29E60B
S113227088E1F15020408040E1F700C00000F60101
S113228020820E94911589EA93E00E948215FFEF53
S113229023EC89E0F15020408040E1F700C00000C9
S11322A00E946D0311E0072D882309F4C5CE14C0E4
S11322B089EA93E00E9482151F5F9FEFE3ECF9E047
S11322C09150E040F040E1F700C000000E946D032F
S11322D0882309F4C0C002C011E0072D81E00E94E8
S11322E00704B9C00E946D03882319F081E00E949D
S11322F00704F7018081882351F00E949115F601AB
S1132300708287EB95E00E94821510E015C01431AD
S113231020F081E00E940704E5CF89EB93E00E945E
S113232082151F5FFFEF24E38CE0F15020408040D2
S1132330E1F700C00000D6CF0E946D03882319F096
S113234081E00E940704F701808181118CC014315F
S113235020F081E00E940704EFCF1F5FFFEF24E32A
S11323608CE0F15020408040E1F700C00000E4CF51
S1132370F7018081882309F464C00E94C9010E9486
S1132380AB040E9494040F2EF4E1FF2EF02DCE0135
S113239001966C01FC012F2D11922A95E9F78E010B
S11323A00B5E1F4FF8012F2D11922A95E9F787E54F
S11323B095E09F938F938BEC93E09F938F931F9261
S11323C0FF92DF92CF920E94D21987E795E09F9304
S11323D08F9383ED93E09F938F931F92FF921F93AC
S11323E00F930E94D21960E08BED93E00E94730179
S11323F060E4C6010E94730164E1C8010E94730194
S11324000FB6F894DEBF0FBECDBF8091CE058433E6
S113241031F064E580EF93E00E94730105C064E548
S113242084E094E00E9473019FEFE7EAF1E69150A3
S1132430E040F040E1F700C000000E9491150E94C6
S1132440BA0E0E946D03882331F081E00E940704D4
S113245002C00E943505143108F4EECDFACF1431D0
S113246008F4ECCDF6CF0B2D10E0E6CD80E2E7E5E5
S1132470F5E0DF011D928A95E9F780E4E7E7F5E0EE
S1132480DF011D928A95E9F787E1E7EBF5E0DF01CB
S11324901D928A95E9F71092CE0508950E94530E75
S11324A00E9436120E9491150E94C7050E94ED06F3
S11324B008950E94A702DA9A0E9461130E94BB0049
S11324C02FEF80E792E0215080409040E1F700C078
S11324D000000E9425010E949B150E94C5020E94D3
S11324E04E121092160508950E9459120E94B703C5
S11324F081E0D5E002E013E06894FF24F2F803C021
S1132500812F01C08F2D833009F453C030F4813002
S113251059F0823009F441C0F6CF843009F479C00F
S1132520853009F473C0EFCF80E090E00E94C51CB1
S1132530843421F08C34D1F40E94BA0E0E94C90173
S113254060E089E194E00E94730160E487E493E031
S11325500E94730164E58EE294E00E9473010E947C
S11325606D038823E1F378948D2FCDCF0E94C901A8
S113257060E483E494E00E94730164E188E594E0FC
S11325800E9473012FEF8DE399E421508040904025
S1132590E1F700C00000802FB6CF0E94C90160E4BB
S11325A08EE294E00E9473010E946D038823E1F39C
S11325B0A7CF0E94C90160E089E194E00E94730101
S11325C060E487E493E00E94730164E18EE294E0A6
S11325D00E94730164E58DE694E00E947301C5E3F3
S11325E04FE064E58C2F0E94D6012FEF89E698E135
S11325F0215080409040E1F700C000000E946D032C
S1132600811180CFC150C03359F706C078940E941D
S1132610270D78940E94E10F78948D2F74CF0F9337
S11326201F93042F10E0F8013197E730F10588F487
S1132630ED5BFF4F0C946F19AA980BC0AB9809C0BF
S1132640AC9807C0AD9805C0AE9803C0AF9801C060
S1132650DC9898E29A95F1F78FB9779BFECF88E2E0
S11326608A95F1F76FB9779BFECF98E29A95F1F7C7
S113267050E0FA013197E730F10588F4E65BFF4F4B
S11326800C946F19AA9A0BC0AB9A09C0AC9A07C0F4
S1132690AD9A05C0AE9A03C0AF9A01C0DC9A1F91EF
S11326A00F91089585B38C6F85BBDC9A89E58DB94C
S11326B081E08EB98FE19EE40197F1F700C000003C
S11326C0089585B38C6F85BBDC9A81E58DB981E073
S11326D08EB98FE19EE40197F1F700C000000895E0
S11326E01F920F920FB60F9211248F939F93AF9363
S11326F0BF93EF93FF93E09155068E2F90E0FC017A
S11327003197EA30F10508F0EEC1EF5AFF4F0C940F
S11327106F19A2E5B6E0EC918CB1F0E0EE52FA4FFD
S11327208083EC91F0E0EE52FA4F80818A30B1F46C
S1132730E0915206F0E0E053FA4F80818B3471F45B
S1132740E0915206F0E0E153FA4F80818F3431F486
S113275081E08093530610925206C5C1E2E5F6E08B
S113276080818F5F8083BFC1A2E5B6E0EC918CB11C
S1132770F0E0EE52FA4F8083EC91F0E0EE52FA4F23
S113278080818A30B1F4E0915206F0E0E053FA4FD0
S11327908081803571F4E0915206F0E0E153FA4F04
S11327A08081893431F481E080935306109252067B
S11327B09AC1E2E5F6E080818F5F808394C1A2E54F
S11327C0B6E0EC918CB1F0E0EE52FA4F8083EC91DC
S11327D0F0E0EE52FA4F80818E33B1F4E09152066C
S11327E0F0E0EF52FA4F80818A3071F4E0915206A2
S11327F0F0E0E053FA4F80818D3031F481E0809332
S11328005306109252066FC1E2E5F6E080818F5FB5
S1132810808369C1A2E5B6E0EC918CB1F0E0EE52A0
S1132820FA4F8083EC91F0E0EE52FA4F80818A30C7
S1132830F1F4E0915206F0E0E053FA4F80818435E0
S1132840B1F4E0915206F0E0E153FA4F8081833411
S113285071F4E0915206F0E0E253FA4F808185343E
S113286031F481E080935306109252063CC1E2E5B4
S1132870F6E080818F5F808336C1A2E5B6E0EC91FB
S11328808CB1F0E0EE52FA4F8083EC91F0E0EE521E
S1132890FA4F80818A30F1F4E0915206F0E0E0537F
S11328A0FA4F80818434B1F4E0915206F0E0E153B0
S11328B0FA4F8081853471F4E0915206F0E0E253DE
S11328C0FA4F8081833531F481E08093530610926E
S11328D0520609C1E2E5F6E080818F5F808303C17F
S11328E0A2E5B6E0EC918CB1F0E0EE52FA4F8083B1
S11328F0EC91F0E0EE52FA4F80818A30F1F4E091ED
S11329005206F0E0E053FA4F80818B34B1F4E09149
S11329105206F0E0E153FA4F80818F3471F4E09174
S11329205206F0E0E353FA4F8081843431F481E0BD
S11329308093530610925206D6C0E2E5F6E08081F9
S11329408F5F8083D0C0A2E5B6E0EC918CB1F0E05B
S1132950EE52FA4F8083EC91F0E0EE52FA4F808110
S11329608A30F1F4E0915206F0E0E053FA4F8081AE
S11329708937B1F4E0915206F0E0E153FA4F8081D7
S1132980843671F4E0915206F0E0E253FA4F80810C
S1132990813631F481E08093530610925206A3C02D
S11329A0E2E5F6E080818F5F80839DC0E09152066E
S11329B08CB1F0E0EE52FA4F80838091540681117D
S11329C01EC0E0915206F0E0EF52FA4F80818D3044
S11329D081F4E0915206F0E0EE52FA4F80818A30A1
S11329E041F4E4E5F6E080818F5F80831092520623
S11329F07AC0E2E5F6E080818F5F808374C08091C5
S1132A005406813021F5E0915206F0E0EE52FA4F7F
S1132A1080818A30B1F4E0915206F0E0EF52FA4F2F
S1132A2080818D3071F4E2EDF5E080838AE081836A
S1132A30E4E5F6E080818F5F808382E08093520634
S1132A4052C0E2E5F6E080818F5F80834CC08091C4
S1132A505406823009F047C0E0915206F0E0EE528D
S1132A60FA4F80818A3081F4E0915206F0E0EF520F
S1132A70FA4F80818D3041F4109254061092520620
S1132A8081E0809353062FC0E2E5F6E080818F5FFA
S1132A90808329C0E09152068CB1F0E0EE52FA4FE7
S1132AA080838091D2058B3219F0109252061BC09C
S1132AB0E0915206F0E0EF52FA4F80818D3071F4CC
S1132AC0E0915206F0E0EE52FA4F80818A3031F400
S1132AD01092520681E08093530605C0E2E5F6E0C9
S1132AE080818F5F8083FF91EF91BF91AF919F9120
S1132AF08F910F900FBE0F901F9018955D9BFECF86
S1132B008CB90895CF93DF93EC018881882331F049
S1132B1021960E947E1589918111FBCFDF91CF917F
S1132B2008951092530680E8E2EDF5E0DF011D926E
S1132B308A95E9F7089510BC83E089B988E98AB9D0
S1132B408EE880BD0E949115109254061092520690
S1132B501092550608955058BB27AA270E94C31502
S1132B600C949B160E948D1638F00E94941620F047
S1132B7039F49F3F19F426F40C948A160EF4E09568
S1132B80E7FB0C948416E92F0E94AC1658F3BA178D
S1132B90620773078407950720F079F4A6F50C946F
S1132BA0CE160EF4E0950B2EBA2FA02D0B01B90111
S1132BB090010C01CA01A0011124FF27591B99F0AF
S1132BC0593F50F4503E68F11A16F040A22F232FBB
S1132BD0342F4427585FF3CF469537952795A7950B
S1132BE0F0405395C9F77EF41F16BA0B620B730BB2
S1132BF0840BBAF09150A1F0FF0FBB1F661F771F23
S1132C00881FC2F70EC0BA0F621F731F841F48F4D7
S1132C10879577956795B795F7959E3F08F0B0CF60
S1132C209395880F08F09927EE0F97958795089547
S1132C300E94B41688F09F5798F0B92F9927B7517E
S1132C40B0F0E1F0660F771F881F991F1AF0BA954C
S1132C50C9F714C0B13091F00E94CE16B1E00895C6
S1132C600C94CE16672F782F8827B85F39F0B93FB8
S1132C70CCF3869577956795B395D9F73EF49095FF
S1132C808095709561957F4F8F4F9F4F0895E8947D
S1132C9009C097FB3EF490958095709561957F4FA0
S1132CA08F4F9F4F9923A9F0F92F96E9BB2793954E
S1132CB0F695879577956795B795F111F8CFFAF45E
S1132CC0BB0F11F460FF1BC06F5F7F4F8F4F9F4F8F
S1132CD016C0882311F096E911C0772321F09EE8ED
S1132CE0872F762F05C0662371F096E8862F70E053
S1132CF060E02AF09A95660F771F881FDAF7880F2D
S1132D009695879597F9089597F99F6780E870E0FD
S1132D1060E008959FEF80EC089500240A9416164D
S1132D20170618060906089500240A9412161306B5
S1132D30140605060895092E0394000C11F4882343
S1132D4052F0BB0F40F4BF2B11F460FF04C06F5F5F
S1132D507F4F8F4F9F4F089557FD9058440F551F35
S1132D6059F05F3F71F04795880F97FB991F61F009
S1132D709F3F79F087950895121613061406551F80
S1132D80F2CF4695F1DF08C0161617061806991FEC
S1132D90F1CF86957105610508940895E894BB27E1
S1132DA066277727CB0197F908950E94E8160C94BB
S1132DB09B160E948D1638F00E94941620F09523DD
S1132DC011F00C9484160C948A1611240C94CF16CA
S1132DD00E94AC1670F3959FC1F3950F50E0551FF8
S1132DE0629FF001729FBB27F00DB11D639FAA275C
S1132DF0F00DB11DAA1F649F6627B00DA11D661FAB
S1132E00829F2227B00DA11D621F739FB00DA11DCB
S1132E10621F839FA00D611D221F749F3327A00D85
S1132E20611D231F849F600D211D822F762F6A2F21
S1132E3011249F5750409AF0F1F088234AF0EE0F86
S1132E40FF1FBB1F661F771F881F91505040A9F7B3
S1132E509E3F510580F00C9484160C94CF165F3F6E
S1132E60E4F3983ED4F3869577956795B795F795EF
S1132E70E7959F5FC1F7FE2B880F911D9695879567
S1132E8097F90895FA01EE0FFF1F309621053105D9
S1132E90A1F16115710561F48038BFE39B0749F125
S1132EA068949038810561F08038BFEF9B0741F04A
S1132EB099234AF5FF3FE1053105210519F1E8940D
S1132EC00894E795D901AA2329F4AB2FBE2FF85F04
S1132ED0D0F310C0FF5F70F4A695E0F7F73950F017
S1132EE019F0FF3A38F49F779F930DD00F9007FCA9
S1132EF09058089546F00C948A1660E070E080E8DB
S1132F009FE308954FE79F775F934F933F932F93EA
S1132F100E943D182F913F914F915F910E94D516C9
S1132F200C949A1729F416F00C9484160C94CE166B
S1132F300C948A160E94B416A8F39638A0F707F8E2
S1132F400F92E8942BE33AEA48EB5FE70E94EB1612
S1132F500F920F920F924DB75EB70F920E94851891
S1132F60E6EBF0E00E94CC174F915F91EF91FF9157
S1132F70E595EE1FFF1F49F0FE57E0684427EE0F6A
S1132F80441FFA95E1F74195550B0E94FF170F90E6
S1132F9007FE0C94F3170895DF93CF931F930F93B9
S1132FA0FF92EF92DF927B018C01689406C0DA2EC7
S1132FB0EF010E94E816FE01E894A5912591359150
S1132FC045915591A6F3EF010E94C315FE019701A7
S1132FD0A801DA9469F7DF90EF90FF900F911F91A9
S1132FE0CF91DF9108959B01AC0160E070E080E82F
S1132FF09FE30C94B9180C9484160C942B190E941A
S1133000B416D8F39923C9F3940F511DA3F3915027
S1133010504094F059F0882332F0660F771F881FD0
S113302091505040C1F79E3F51052CF7880F911DD8
S11330309695879597F908955F3FACF0983E9CF07C
S1133040BB27869577956795B79508F4B1609395F6
S1133050C1F7BB0F58F711F460FFE8CF6F5F7F4FE4
S11330608F4F9F4FE3CF0C94CF1616F00C942B196F
S11330700C948A1668940C9484160E94B416A8F3CF
S11330809923C1F3AEF3DF93CF931F930F93FF9272
S1133090C92FDD2788232AF02197660F771F881F01
S11330A0DAF720E030E040E85FEB9FE3883920F076
S11330B0803E38F021968F770E94AC15EEEDF0E05B
S11330C004C00E94AC15EBE0F1E00E94CC178B0128
S11330D0BE01EC01FB2E6F5771097595771F880BA4
S11330E0990B0E94491628E132E741E35FE30E940D
S11330F0E816AF2D9801AE01FF900F911F91CF916B
S1133100DF910E94C3150C949B16FA01DC01AA0FEF
S1133110BB1F9B01AC01BF5728F422273327442748
S1133120507820C0B75190F4AB2F002446953795C2
S11331302795011CA395D2F3002071F0220F331FB1
S1133140441FB395DAF30ED00C94AB1561307105BE
S1133150A0E88A07B94630F49B01AC0166277727BB
S113316088279078309621F02083318342835383DB
S113317008950E94CD180C949B160E94941658F042
S11331800E948D1640F029F45F3F29F00C948416B8
S113319051110C94CF160C948A160E94AC1668F345
S11331A09923B1F3552391F3951B550BBB27AA27FC
S11331B062177307840738F09F5F5F4F220F331F36
S11331C0441FAA1FA9F335D00E2E3AF0E0E832D0FE
S11331D091505040E695001CCAF72BD0FE2F29D001
S11331E0660F771F881FBB1F261737074807AB07D3
S11331F0B0E809F0BB0B802DBF01FF2793585F4F48
S11332003AF09E3F510578F00C9484160C94CF1636
S11332105F3FE4F3983ED4F3869577956795B79529
S1133220F7959F5FC9F7880F911D9695879597F934
S11332300895E1E0660F771F881FBB1F62177307AD
S11332408407BA0720F0621B730B840BBA0BEE1FC2
S113325088F7E09508959F3F31F0915020F48795C9
S113326077956795B795880F911D9695879597F9EA
S1133270089597FB072E16F4009407D077FD09D024
S11332800E94801907FC05D03EF4909581959F4FCC
S11332900895709561957F4F0895A1E21A2EAA1B97
S11332A0BB1BFD010DC0AA1FBB1FEE1FFF1FA217F2
S11332B0B307E407F50720F0A21BB30BE40BF50BEF
S11332C0661F771F881F991F1A9469F76095709578
S11332D0809590959B01AC01BD01CF010895EE0F3F
S11332E0FF1F0590F491E02D09940E949419A59F65
S11332F0900DB49F900DA49F800D911D11240895ED
S1133300AA1BBB1B51E107C0AA1FBB1FA617B70707
S113331010F0A61BB70B881F991F5A95A9F7809523
S11333209095BC01CD010895A29FB001B39FC00147
S1133330A39F700D811D1124911DB29F700D811DDD
S11333401124911D0895FC0188279927E89421915F
S11333502032E9F3293010F02E30C8F32B3241F03B
S11333602D3239F4689404C00E94CA19820F911D49
S1133370219120532A30C0F31EF4909581959F4FDC
S11333800895FB01DC0102C001900D9241505040B0
S1133390D8F708957AE0979F902D879F802D910DFF
S11333A011240895AEE0B0E0E8EDF9E10C94F21CCC
S11333B00D891E898F89988D26E02C831A830983B1
S11333C097FF02C080E090E801979E838D83AE0151
S11333D0455E5F4F698D7A8DCE0101960E94241A55
S11333E04D815E8157FD0AC02F81388542175307EE
S11333F00CF49A01F801E20FF31F10822E96E4E018
S11334000C940E1DAEE0B0E0E8E0FAE10C94F21C7E
S11334100D891E8986E08C831A8309838FEF9FE7C9
S11334209E838D83AE01475E5F4F6F89788DCE0199
S113343001960E94241AEF81F885E00FF11F108293
S11334402E96E4E00C940E1DABE0B0E0EAE2FAE163
S11334500C94E41C6C017B018A01FC011782168226
S1133460838181FFCCC1CE0101963C01F601938199
S1133470F70193FD859193FF81917F01882309F4DE
S1133480BAC1853239F493FD859193FF81917F010F
S1133490853229F4B60190E00E941B1CE7CF912CE1
S11334A0212C312CFFE1F315D8F08B3279F038F46C
S11334B0803279F08332A1F4232D20611DC08D3236
S11334C061F0803369F4232D216016C0832D82605E
S11334D0382EE32DE4603E2E2AC0F32DF8601DC083
S11334E037FC2DC020ED280F2A3040F08E32B9F47D
S11334F036FC81C1232D2064322E19C036FE06C04D
S11335008AE0989E200D1124922E11C0EAE02E9E8E
S1133510200D1124222EF32DF0623F2E08C08C368C
S113352021F4832D8068382E02C0883641F4F701D7
S113353093FD859193FF81917F018111B3CF982FE2
S11335409F7D9554933028F40C5F1F4F9FE399831C
S11335500DC0833631F0833771F0833509F059C0DB
S113356021C0F801808189830E5F1F4F88248394D2
S1133570912C530113C02801F2E04F0E511CF801A5
S1133580A080B18036FE03C0692D70E002C06FEFE9
S11335907FEFC5010E94101C4C018201F32DFF77BF
S11335A03F2E16C0280122E0420E511CF801A080D3
S11335B0B18036FE03C0692D70E002C06FEF7FEF6B
S11335C0C5010E94051C4C01F32DF0683F2E8201B9
S11335D033FC1BC0822D90E088169906B0F4B60126
S11335E080E290E00E941B1C2A94F4CFF50137FC82
S11335F0859137FE81915F01B60190E00E941B1C0A
S113360021102A9421E0821A91088114910471F7FF
S1133610E8C0843611F0893641F5F80137FE07C059
S113362060817181828193810C5F1F4F08C060812A
S11336307181072E000C880B990B0E5F1F4FF32D21
S1133640FF763F2E97FF09C0909580957095619500
S11336507F4F8F4F9F4FF0683F2E2AE030E0A30149
S11336600E94571C882E861845C0853731F4232DB7
S11336702F7EB22E2AE030E025C0932D997FB92EFB
S11336808F36C1F018F4883579F0B5C0803719F059
S1133690883721F0B0C0E92FE061BE2EB4FE0DC022
S11336A0FB2DF460BF2E09C034FE0AC0292F26600A
S11336B0B22E06C028E030E005C020E130E002C0B0
S11336C020E132E0F801B7FE07C060817181828198
S11336D093810C5F1F4F06C06081718180E090E090
S11336E00E5F1F4FA3010E94571C882E8618FB2DC6
S11336F0FF773F2E36FE0DC0232D2E7FA22E891478
S113370058F434FE0BC032FC09C0832D8E7EA82EE3
S113371005C0B82CA32C03C0B82C01C0B92CA4FE3E
S11337200FC0FE01E80DF11D8081803321F49A2D34
S1133730997EA92E09C0A2FE06C0B394B39404C016
S11337408A2D867809F0B394A3FC11C0A0FE06C0AC
S1133750B21488F4280C922C9B180EC0B21460F496
S1133760B60180E290E00E941B1CB394F7CFB21420
S113377018F42B1802C0982C212CA4FE10C0B601FA
S113378080E390E00E941B1CA2FE17C0A1FC03C0B2
S113379088E790E002C088E590E0B6010CC08A2D6D
S11337A0867859F0A1FE02C08BE201C080E2A7FC3A
S11337B08DE2B60190E00E941B1C891438F4B60116
S11337C080E390E00E941B1C9A94F7CF8A94F30143
S11337D0E80DF11D8081B60190E00E941B1C811050
S11337E0F5CF222009F442CEB60180E290E00E9497
S11337F01B1C2A94F6CFF6018681978102C08FEFB5
S11338009FEF2B96E2E10C94001DFC0105906150A2
S113381070400110D8F7809590958E0F9F1F0895E2
S1133820FC016150704001900110D8F7809590958B
S11338308E0F9F1F08950F931F93CF93DF93FB0168
S1133840238121FD03C08FEF9FEF2CC022FF16C000
S113385046815781248135814217530744F4A0815E
S1133860B1819D012F5F3F4F318320838C9326814B
S113387037812F5F3F4F3783268314C08B01EC01C0
S1133880FB010084F185E02D0995892BE1F6D8012F
S113389016968D919C911797019617969C938E93EB
S11338A01697CE01DF91CF911F910F910895FA01E0
S11338B0AA27283051F1203181F1E8946F936E7F6B
S11338C06E5F7F4F8F4F9F4FAF4FB1E03ED0B4E05C
S11338D03CD0670F781F891F9A1FA11D680F791F9D
S11338E08A1F911DA11D6A0F711D811D911DA11DAE
S11338F020D009F468943F912AE0269F11243019BE
S1133900305D3193DEF6CF010895462F4770405D58
S11339104193B3E00FD0C9F7F6CF462F4F70405D07
S11339204A3318F0495D31FD4052419302D0A9F762
S1133930EACFB4E0A6959795879577956795BA955C
S1133940C9F700976105710508959B01AC010A2E22
S113395006945795479537952795BA95C9F7620FF9
S1133960731F841F951FA01D0895DC01CB01FC016A
S1133970E199FECF06C0FFBBEEBBE09A31960DB2D3
S11339800D9241505040B8F70895E199FECF9FBB86
S11339908EBBE09A99278DB30895DC01CB0103C057
S11339A02D910E94D81C41505040D0F70895262FE5
S11339B0E199FECF9FBB8EBB2DBB0FB6F894E29A64
S11339C0E19A0FBE019608952F923F924F925F9213
S11339D06F927F928F929F92AF92BF92CF92DF921B
S11339E0EF92FF920F931F93CF93DF93CDB7DEB780
S11339F0CA1BDB0B0FB6F894DEBF0FBECDBF099414
S1133A002A88398848885F846E847D848C849B846A
S1133A10AA84B984C884DF80EE80FD800C811B8178
S1133A20AA81B981CE0FD11D0FB6F894DEBF0FBEA7
S10D3A30CDBFED010895F894FFCF17
S1133A3A2020496F54204475616C2D4368616E6E71
S1133A4A656C2020002046756E6374696F6E20478A
S1133A5A656E657261746F72200020204669726D0A
S1133A6A77617265205265763A25632E2563202094
S1133A7A0020204B686F6D4C616273204465736942
S1133A8A676E2020200020202020202020202020B3
S1133A9A20202020202020202020003C3C53687530
S1133AAA74646F776E20726571756573743E3E0037
S1133ABA446576696365207368757474696E6720F2
S1133ACA646F776E00696E20582073656320202026
S1133ADA2020202020202020200041542B43574A14
S1133AEA41503D222573222C222573220D0A0043BC
S1133AFA6F6D6D756E69636174696F6E206572723C
S1133B0A6F72210050726573732074686520627540
S1133B1A74746F6E202D2D3E004C6F6E6720707288
S1133B2A6573733A2053687574646F776E005368CB
S1133B3A6F72742070726573733A205265626F6F84
S1133B4A74200041542B47534C500D0A00564241ED
S1133B5A543D25640D0A0041433D4F4E0D0A004170
S1133B6A433D4F46460D0A00413A25737C00663AA6
S1133B7A257320487A0056413D2573567C005662C7
S1133B8A413D25735600423A25737C0056423D2531
S1133B9A73567C005662423D25735600256325639D
S1133BAA2E256325630020205368757474696E6733
S1133BBA20446F776E2E2E2E2020002020202020D5
S1133BCA20696E205820736563202020202020005D
S1133BDA2020205265626F6F74696E672E2E2E2024
S1133BEA2020202000526573657420746F2066615A
S1133BFA63746F72792E2E2E20004553503332206F
S1133C0A4465766963652E2E2E2E2E2E20200045BD
S1133C1A53503332204465766963652E2E2E2E2E38
S1133C2A2E4F4B004F70656E696E67204E65747730
S1133C3A6F726B2E2E2E202000415445300D0A003F
S1133C4A41542B43574D4F44453D330D0A004F70A1
S1133C5A656E696E67204E6574776F726B2E2E2EB1
S1133C6A4F4B004372656174696E672053657276BF
S1133C7A65722E2E2E20200041542B435753415057
S1133C8A3D22494F545F46554E4347454E222C2206
S1133C9A30222C312C300D0A0041542B4349504D0B
S1133CAA55583D310D0A004372656174696E672087
S1133CBA5365727665722E2E2E4F4B003C576169FE
S1133CCA74696E6720466F72204465766963653E3F
S1133CDA0041542B4349505345525645523D312CC9
S1133CEA313732360D0A00203C4465766963652013
S1133CFA636F6E6E65637465643E20002B302E30EC
S1133D0A3000205374617274696E672057692D46B6
S1133D1A69204C414E2000636F6D6D756E69636155
S1133D2A74696F6E2077697A6172640041542B4317
S1133D3A574D4F44453D310D0A00416E64726F6917
S1133D4A642064657669636520666F756E640046EF
S1133D5A756E6347656E204D414320416464726504
S1133D6A73733A003C20202052657472696576693F
S1133D7A6E672E2E2E20203E0041542B4349505369
S1133D8A54414D41433F0D0A0041542B434950537A
S1133D9A454E443D302C32330D0A00535349443ABC
S1133DAA257300504153533A25730057692D4669C8
S1133DBA20646174612072656365697665643A009A
S1133DCA436F6E6E656374696F6E3A2053656375EB
S1133DDA72656400436F6E6E656374696F6E3A2030
S1133DEA4F70656E20202020002020537461727465
S1133DFA696E6720446972656374202020005075D7
S1133E0A736820627574746F6E20746F20626567BC
S1133E1A696E0020204E6F20446566696E656420D1
S1133E2A57692D4669202000436F6E6E6563746975
S1133E3A6F6E20417661696C61626C6500574C4112
S1133E4A4E2050616972696E672E2E205820736560
S1053E5A6300FF
S9030000FC
