:100000000C9442000C945F000C945F000C945F0011
:100010000C945F000C945F000C945F000C945F00E4
:100020000C945F000C945F000C945F000C945F00D4
:100030000C945F000C94E8040C945F000C945F0037
:100040000C945F000C945F000C945F000C945F00B4
:100050000C945F00A304A504A704A904AB04AD0499
:10006000AF04C904CB04CD04CF04D104D304D50418
:1000700001052C0557058205B505E8051B064E064A
:100080004E06C20611241FBECFE5D8E0DEBFCDBFAD
:1000900015E0A0E6B0E0EEECF7E102C005900D92AD
:1000A000A03DB107D9F727E0A0EDB5E001C01D9252
:1000B000A231B207E1F70E94A7030C94E50B0C9460
:1000C00000008F9A8E9A8D9A8C9AB99AB89A089550
:1000D000979888230CF4979A969886FD969A959807
:1000E00085FD959A949884FD949AC19A8AEB8A9595
:1000F000F1F700C0C1988AEB8A95F1F700C0089526
:10010000CF93C82FC09AC1980E9468008C2F829507
:10011000807F0E946800CF9108950F931F93CF9323
:10012000DF9300D0CDB7DEB78C011A821982E98146
:10013000FA81E80FF91F80818823C9F0E981FA81EB
:10014000E00FF11F80810E94800089819A810196D1
:100150009A8389838FE391E00197F1F700C0000053
:10016000E981FA81E00FF11F80818111E7CF0F90C3
:100170000F90DF91CF911F910F910895CF93C82FCA
:10018000C098C1980E9468008C2F8295807F0E9441
:100190006800CF9108952FEF80E792E021508040D2
:1001A0009040E1F700C00000C098C19880E30E9431
:1001B00068008FE39CE90197F1F700C0000080E33D
:1001C0000E94680087E592E00197F1F700C0000007
:1001D00080E30E94680087E592E00197F1F700C094
:1001E000000088E20E94680090EF9A95F1F788E29B
:1001F0000E94BE0020EF2A95F1F788E00E94BE0021
:1002000080EF8A95F1F781E00E94BE008FE79EE3C0
:100210000197F1F700C0000086E00E94BE0090EF59
:100220009A95F1F78CE00E94BE0020EF2A95F1F735
:100230000895CF93DF93EC01862F80680E94BE0063
:10024000CE010E948D00DF91CF9108950F931F93EF
:10025000CF93DF93CDB7DEB764970FB6F894DEBFC8
:100260000FBECDBF60E080E690E00E94190160E41F
:1002700085E790E00E9419011F9280E38F931F92FF
:1002800082E38F938AE890E09F938F931F9284E19B
:100290008F938E010F5F1F4F1F930F930E94ED08E6
:1002A00064E1C8010E94190164E581EA90E00E94BE
:1002B00019010FB6F894DEBF0FBECDBF64960FB61E
:1002C000F894DEBF0FBECDBFDF91CF911F910F918C
:1002D00008958823B1F18CEEDB9AE3E5F3E03197E2
:1002E000F1F700C00000DB98E3E5F3E03197F1F7A8
:1002F00000C00000815081F788E291E0DB9AE3EAD8
:10030000F2E03197F1F700C00000DB98E3EAF2E099
:100310003197F1F700C00000019781F780EC92E07F
:10032000DB9AE7E3F2E03197F1F700C00000DB98D9
:10033000E7E3F2E03197F1F700C00000019781F7A1
:10034000089588E291E0DB9AE3EAF2E03197F1F771
:1003500000C00000DB98E3EAF2E03197F1F700C05B
:100360000000019781F78CEEDB9AE3E5F3E031972B
:10037000F1F700C00000DB98E3E5F3E03197F1F717
:1003800000C00000815081F780E691E0DB9AEFE643
:10039000F4E03197F1F700C00000DB98EFE6F4E0FD
:1003A0003197F1F700C00000019781F7089584B3F9
:1003B0008C6F84BBD49A87B38C6187BB87B383600F
:1003C00087BB81B3806F81BB8AB38C7F8ABB87B3C5
:1003D000806A87BBBE98899A889884B3836084BBFF
:1003E0008A988AB38C608ABB089586B1876886B97B
:1003F0003E9A08952FEF829FC001112464E670E0B9
:100400000E94BF08609547E081E10E94960408952C
:100410008536F8F429E1829FC001112464E670E07A
:100420000E94BF08655B70E080E090E00E94C60714
:100430002DEC3CEC43E252E40E9452080E949507E6
:10044000872F8F7042E080670E94960480E090E0E2
:1004500008958FEF9FEF0895CF93C0E08C2F0E94F7
:1004600008028FE19EE40197F1F700C00000CF5F22
:10047000C536A1F7CF9108950E942C0284E60E9410
:10048000FA010E94260181E00E9469012FEF83EDAD
:1004900090E3215080409040E1F700C000000895B3
:1004A000CF93DF9300D0CDB7DEB71A821982389A86
:1004B000369A3699FECF84B195B19A838983369A5C
:1004C0003699FECF24B135B189819A81820F931F6D
:1004D000969587959A83898389819A81843F9140F3
:1004E00018F41092D10503C081E08093D1050F90DC
:1004F0000F90DF91CF910895843E2CE0920708F48D
:10050000A6C0AC019C01245E3C40243F3140B0F4C5
:1005100094E2949FB001959F700D11246051704D2D
:1005200080E090E00E94C4072FE632E143E05BE305
:100530000E9452080E949507862F08959A01285D0F
:100540003E4024363105E0F48AE1849FB001859F66
:10055000700D1124605F714880E090E00E94C40734
:100560002AE037ED43E25CE30E94520820E030E0ED
:1005700040E152E40E9429070E949507862F0895C2
:100580009A012C533F4024363105E0F48BE0849FE0
:10059000B001859F700D11246459774A80E090E086
:1005A0000E94C4072AE037ED43E25CE30E94520850
:1005B00020E030E048E752E40E9429070E949507B6
:1005C000862F0895CA01805A9F4084369105E8F429
:1005D000BA01605A7F4F62957295707F7627607F6F
:1005E000762780E090E00E94C4072AE037ED43E2DE
:1005F0005CE30E94520820E030E042E952E40E94AD
:1006000029070E949507862F0895CA0184509041BA
:1006100084369105F0F48BE0849FB001859F700DC6
:1006200011246C52704B80E090E00E94C4072AE0D5
:1006300037ED43E25CE30E94520820E030E042EBF9
:1006400052E40E9429070E949507862F089580E0B2
:10065000089584E6089517B8369A3699FECF64B1A6
:1006600075B180E090E00E94C4072CEA3CE14AE7C3
:100670005FE30E9452080E94950780E090E00E948C
:10068000C40726E933E443EB50E40E9452080E9479
:100690009507CB010E947C028093D0050895EBEF73
:1006A000F5E0108211821282138214821582168262
:1006B0001782118610861386128615861486178671
:1006C000168685E0808B818B138A128A158A148A9C
:1006D000089580E2E3E1F6E0DF011D928A95E9F7F3
:1006E00080E4E3E3F6E0DF011D928A95E9F787E114
:1006F000E3E7F6E0DF011D928A95E9F710928A069A
:1007000008950E944F030E9469030E940E070E94F1
:1007100050020E942B0308950E94D701DA9A0E948A
:10072000D9040E9461002FEF89E698E121508040B2
:100730009040E1F700C000000E94CB000E94180723
:100740000E94F5010E9481031092D20508950E9433
:100750008C030E943C02789401E117E066246394C4
:10076000CFE0D7E06894772471F80F2EF3E08F2E56
:10077000F02D6894992492F80F2EF5E0AF2EF02D0D
:100780000F2EF6E0BF2EF02D0F2EF7E0CF2EF02D1E
:100790006894DD24D3F80F2EF9E0EF2EF02D0F2E04
:1007A000FAE0FF2EF02D8BE194E00E94FF0680E33B
:1007B00094E00E94FF06F801608288818823E9F3B3
:1007C00086E594E00E94FF068EE896E00E94FF0610
:1007D0000E940E07F801708288818823E9F386E67B
:1007E00094E00E94FF0688E794E00E94FF068EE8EE
:1007F00096E00E94FF060E940E07F8018082888121
:100800008823E9F386E694E00E94FF0689EA94E0F3
:100810000E94FF068EE896E00E94FF060E940E07E7
:10082000F801908288818823E9F386E694E00E94AB
:10083000FF0684ED94E00E94FF068EE896E00E9499
:10084000FF060E940E07F801A08288818823E9F341
:1008500086E694E00E94FF068EEF94E00E94FF0679
:100860008EE896E00E94FF060E940E07F801B08213
:1008700088818823E9F386E694E00E94FF0689E2F6
:1008800095E00E94FF068EE896E00E94FF060E9417
:100890000E07F801C08288818823E9F386E694E098
:1008A0000E94FF0682E595E00E94FF068EE896E032
:1008B0000E94FF060E940E07F801D08288818823DB
:1008C000E9F386E694E00E94FF068AE795E00E943D
:1008D000FF068EE896E00E94FF060E940E07F801D0
:1008E000E08288818823E9F386E694E00E94FF068F
:1008F00080E394E00E94FF068EE896E00E94FF06E7
:100900000E940E07F801F08288818823E9F386E6C9
:1009100094E00E94FF0689EA95E00E94FF068EE8B7
:1009200096E00E94FF060E940E073DCF0F931F9393
:10093000042F10E0F8013197E730F10588F4E65D07
:10094000FF4F0C94D308AA980BC0AB9809C0AC9881
:1009500007C0AD9805C0AE9803C0AF9801C0DC9841
:1009600098E29A95F1F78FB9779BFECF88E28A9546
:10097000F1F76FB9779BFECF98E29A95F1F750E0C7
:10098000FA013197E730F10588F4EF5CFF4F0C94E2
:10099000D308AA9A0BC0AB9A09C0AC9A07C0AD9A0B
:1009A00005C0AE9A03C0AF9A01C0DC9A1F910F91A7
:1009B000089585B38C6F85BBDC9A81E58DB981E0A4
:1009C0008EB98FE19EE40197F1F700C00000089511
:1009D0001F920F920FB60F9211248F939F93AF9394
:1009E000BF93EF93FF93E09111078E2F90E0FC01EE
:1009F0003197EA30F10508F0EFC1E85CFF4F0C9445
:100A0000D308AEE0B7E0EC918CB1F0E0E257F94FDB
:100A10008083EC91F0E0E257F94F80818A30B1F4A5
:100A2000E0910E07F0E0E457F94F80818B3471F4C8
:100A3000E0910E07F0E0E557F94F80818F3431F4F3
:100A400081E080930F0710920E07CAC1EEE0F7E035
:100A500080818F5F8083C4C1AEE0B7E0EC918CB140
:100A6000F0E0E257F94F8083EC91F0E0E257F94F64
:100A700080818A30B1F4E0910E07F0E0E457F94F3D
:100A80008081803571F4E0910E07F0E0E557F94F71
:100A90008081893431F481E080930F0710920E0732
:100AA0009FC1EEE0F7E080818F5F808399C1AEE067
:100AB000B7E0EC918CB1F0E0E257F94F8083EC9114
:100AC000F0E0E257F94F80818E33B1F4E0910E07E8
:100AD000F0E0E357F94F80818A3071F4E0910E071E
:100AE000F0E0E457F94F80818D3031F481E080935C
:100AF0000F0710920E0774C1EEE0F7E080818F5F60
:100B000080836EC1AEE0B7E0EC918CB1F0E0E257CB
:100B1000F94F8083EC91F0E0E257F94F80818A3001
:100B2000F1F4E0910E07F0E0E457F94F808184354D
:100B3000B1F4E0910E07F0E0E557F94F808183347E
:100B400071F4E0910E07F0E0E657F94F80818534AB
:100B500031F481E080930F0710920E0741C1EEE05F
:100B6000F7E080818F5F80833BC1AEE0B7E0EC911E
:100B70008CB1F0E0E257F94F8083EC91F0E0E2575E
:100B8000F94F80818A30F1F4E0910E07F0E0E457EC
:100B9000F94F80818434B1F4E0910E07F0E0E5571D
:100BA000F94F8081853471F4E0910E07F0E0E6574B
:100BB000F94F8081833531F481E080930F071092E3
:100BC0000E070EC1EEE0F7E080818F5F808308C1E1
:100BD000AEE0B7E0EC918CB1F0E0E257F94F8083E2
:100BE000EC91F0E0E257F94F80818A30F1F4E09126
:100BF0000E07F0E0E457F94F80818B34B1F4E091B7
:100C00000E07F0E0E557F94F80818F3471F4E091E1
:100C10000E07F0E0E757F94F8081843431F481E02A
:100C200080930F0710920E07DBC0EEE0F7E08081A3
:100C30008F5F8083D5C0AEE0B7E0EC918CB1F0E07F
:100C4000E257F94F8083EC91F0E0E257F94F808151
:100C50008A30F1F4E0910E07F0E0E457F94F80811B
:100C60008937B1F4E0910E07F0E0E557F94F808144
:100C7000843671F4E0910E07F0E0E657F94F808179
:100C8000813631F481E080930F0710920E07A8C0DF
:100C9000EEE0F7E080818F5F8083A2C0E0910E07D5
:100CA0008CB1F0E0E257F94F8083809110078111F9
:100CB0001EC0E0910E07F0E0E357F94F80818D30C0
:100CC00081F4E0910E07F0E0E257F94F80818A301D
:100CD00041F4E0E1F7E080818F5F808310920E079E
:100CE0007FC0EEE0F7E080818F5F808379C08091E4
:100CF0001007813021F5E0910E07F0E0E257F94F3F
:100D000080818A30B1F4E0910E07F0E0E357F94FAB
:100D100080818D3071F4EEE8F6E080838AE0818393
:100D2000E0E1F7E080818F5F808382E080930E07AF
:100D300057C0EEE0F7E080818F5F808351C08091E3
:100D40001007823009F04CC0E0910E07F0E0E25746
:100D5000F94F80818A3081F4E0910E07F0E0E3578B
:100D6000F94F80818D3041F41092100710920E07D8
:100D700081E080930F0734C0EEE0F7E080818F5F61
:100D800080832EC0E0910E078CB1F0E0E257F94F5E
:100D9000808380918E068B3219F010920E0720C04E
:100DA000E0910E07F0E0E357F94F80818D3071F448
:100DB000E0910E07F0E0E257F94F80818A3031F47C
:100DC00010920E0781E080930F070AC0EEE0F7E073
:100DD00080818F5F808304C010920E0710920F07EE
:100DE000FF91EF91BF91AF919F918F910F900FBEA7
:100DF0000F901F9018955D9BFECF8CB90895CF93EF
:100E0000DF93EC018881882331F021960E94FB0654
:100E100089918111FBCFDF91CF91089510920F0737
:100E200080E8EEE8F6E0DF011D928A95E9F7089583
:100E300010BC83E089B988E98AB98EE880BD0E9438
:100E40000E071092100710920E07109211070895C6
:100E50005058BB27AA270E9440070C9418080E94EC
:100E60000A0838F00E94110820F039F49F3F19F465
:100E700026F40C9407080EF4E095E7FB0C940108A7
:100E8000E92F0E94290858F3BA17620773078407ED
:100E9000950720F079F4A6F50C944B080EF4E09534
:100EA0000B2EBA2FA02D0B01B90190010C01CA0124
:100EB000A0011124FF27591B99F0593F50F4503ECF
:100EC00068F11A16F040A22F232F342F4427585FC1
:100ED000F3CF469537952795A795F0405395C9F7D9
:100EE0007EF41F16BA0B620B730B840BBAF0915091
:100EF000A1F0FF0FBB1F661F771F881FC2F70EC030
:100F0000BA0F621F731F841F48F487957795679502
:100F1000B795F7959E3F08F0B0CF9395880F08F0EE
:100F20009927EE0F9795879508950E94310888F0CC
:100F30009F5798F0B92F9927B751B0F0E1F0660F9D
:100F4000771F881F991F1AF0BA95C9F714C0B130DE
:100F500091F00E944B08B1E008950C944B08672F64
:100F6000782F8827B85F39F0B93FCCF3869577950D
:100F70006795B395D9F73EF49095809570956195F6
:100F80007F4F8F4F9F4F0895E89409C097FB3EF421
:100F900090958095709561957F4F8F4F9F4F9923C6
:100FA000A9F0F92F96E9BB279395F6958795779544
:100FB0006795B795F111F8CFFAF4BB0F11F460FF04
:100FC0001BC06F5F7F4F8F4F9F4F16C0882311F05C
:100FD00096E911C0772321F09EE8872F762F05C070
:100FE000662371F096E8862F70E060E02AF09A950B
:100FF000660F771F881FDAF7880F9695879597F900
:10100000089597F99F6780E870E060E008959FEF8A
:1010100080EC089500240A9416161706180609068F
:10102000089500240A94121613061406050608955E
:10103000092E0394000C11F4882352F0BB0F40F4E6
:10104000BF2B11F460FF04C06F5F7F4F8F4F9F4F26
:10105000089557FD9058440F551F59F05F3F71F0A8
:101060004795880F97FB991F61F09F3F79F087950F
:101070000895121613061406551FF2CF4695F1DF98
:1010800008C0161617061806991FF1CF8695710528
:10109000610508940895E894BB2766277727CB015C
:1010A00097F908950E9465080C9418080E940A0890
:1010B00038F00E94110820F0952311F00C940108DB
:1010C0000C94070811240C944C080E94290870F312
:1010D000959FC1F3950F50E0551F629FF001729FDD
:1010E000BB27F00DB11D639FAA27F00DB11DAA1FEC
:1010F000649F6627B00DA11D661F829F2227B00D39
:10110000A11D621F739FB00DA11D621F839FA00DC3
:10111000611D221F749F3327A00D611D231F849F13
:10112000600D211D822F762F6A2F11249F5750406A
:101130009AF0F1F088234AF0EE0FFF1FBB1F661FE5
:10114000771F881F91505040A9F79E3F510580F0AE
:101150000C9401080C944C085F3FE4F3983ED4F3E0
:10116000869577956795B795F795E7959F5FC1F752
:10117000FE2B880F911D9695879597F9089597FBFB
:10118000072E16F4009407D077FD09D00E94D908E5
:1011900007FC05D03EF4909581959F4F089570957A
:1011A00061957F4F0895EE0FFF1F0590F491E02D9C
:1011B0000994AA1BBB1B51E107C0AA1FBB1FA6179E
:1011C000B70710F0A61BB70B881F991F5A95A9F7F0
:1011D00080959095BC01CD010895AEE0B0E0E3EFBD
:1011E000F8E00C94BC0B0D891E898F89988D26E040
:1011F0002C831A83098397FF02C080E090E801974F
:101200009E838D83AE01455E5F4F698D7A8DCE01E1
:1012100001960E941D094D815E8157FD0AC02F81F4
:101220003885421753070CF49A01F801E20FF31FB7
:1012300010822E96E4E00C94D80BABE0B0E0E3E231
:10124000F9E00C94AE0B6C017B018A01FC01178262
:101250001682838181FFCCC1CE0101963C01F6014B
:101260009381F70193FD859193FF81917F018823FD
:1012700009F4BAC1853239F493FD859193FF8191C8
:101280007F01853229F4B60190E00E94140BE7CF6C
:10129000912C212C312CFFE1F315D8F08B3279F011
:1012A00038F4803279F08332A1F4232D20611DC0FF
:1012B0008D3261F0803369F4232D216016C0832DB7
:1012C0008260382EE32DE4603E2E2AC0F32DF860B4
:1012D0001DC037FC2DC020ED280F2A3040F08E3283
:1012E000B9F436FC81C1232D2064322E19C036FE9C
:1012F00006C08AE0989E200D1124922E11C0EAE0CB
:101300002E9E200D1124222EF32DF0623F2E08C0B8
:101310008C3621F4832D8068382E02C0883641F443
:10132000F70193FD859193FF81917F018111B3CFE7
:10133000982F9F7D9554933028F40C5F1F4F9FE3A7
:1013400099830DC0833631F0833771F0833509F00E
:1013500059C021C0F801808189830E5F1F4F882406
:101360008394912C530113C02801F2E04F0E511CBD
:10137000F801A080B18036FE03C0692D70E002C084
:101380006FEF7FEFC5010E94090B4C018201F32D25
:10139000FF773F2E16C0280122E0420E511CF801B3
:1013A000A080B18036FE03C0692D70E002C06FEFEF
:1013B0007FEFC5010E94FE0A4C01F32DF0683F2E1D
:1013C000820133FC1BC0822D90E088169906B0F490
:1013D000B60180E290E00E94140B2A94F4CFF5014C
:1013E00037FC859137FE81915F01B60190E00E9444
:1013F000140B21102A9421E0821A9108811491047F
:1014000071F7E8C0843611F0893641F5F80137FEEE
:1014100007C060817181828193810C5F1F4F08C07A
:1014200060817181072E000C880B990B0E5F1F4F96
:10143000F32DFF763F2E97FF09C09095809570950C
:1014400061957F4F8F4F9F4FF0683F2E2AE030E02D
:10145000A3010E94500B882E861845C0853731F4B1
:10146000232D2F7EB22E2AE030E025C0932D997FC8
:10147000B92E8F36C1F018F4883579F0B5C08037B1
:1014800019F0883721F0B0C0E92FE061BE2EB4FE1C
:101490000DC0FB2DF460BF2E09C034FE0AC0292FF9
:1014A0002660B22E06C028E030E005C020E130E022
:1014B00002C020E132E0F801B7FE07C0608171810F
:1014C000828193810C5F1F4F06C06081718180E033
:1014D00090E00E5F1F4FA3010E94500B882E8618CC
:1014E000FB2DFF773F2E36FE0DC0232D2E7FA22E23
:1014F000891458F434FE0BC032FC09C0832D8E7E53
:10150000A82E05C0B82CA32C03C0B82C01C0B92C40
:10151000A4FE0FC0FE01E80DF11D8081803321F48F
:101520009A2D997EA92E09C0A2FE06C0B394B39449
:1015300004C08A2D867809F0B394A3FC11C0A0FEE4
:1015400006C0B21488F4280C922C9B180EC0B2145A
:1015500060F4B60180E290E00E94140BB394F7CFE0
:10156000B21418F42B1802C0982C212CA4FE10C021
:10157000B60180E390E00E94140BA2FE17C0A1FC0C
:1015800003C088E790E002C088E590E0B6010CC097
:101590008A2D867859F0A1FE02C08BE201C080E25C
:1015A000A7FC8DE2B60190E00E94140B891438F478
:1015B000B60180E390E00E94140B9A94F7CF8A94CE
:1015C000F301E80DF11D8081B60190E00E94140B3B
:1015D0008110F5CF222009F442CEB60180E290E0DE
:1015E0000E94140B2A94F6CFF6018681978102C0DF
:1015F0008FEF9FEF2B96E2E10C94CA0BFC01059054
:10160000615070400110D8F7809590958E0F9F1F04
:101610000895FC016150704001900110D8F7809549
:1016200090958E0F9F1F08950F931F93CF93DF9375
:10163000FB01238121FD03C08FEF9FEF2CC022FF10
:1016400016C046815781248135814217530744F4DF
:10165000A081B1819D012F5F3F4F318320838C9307
:10166000268137812F5F3F4F3783268314C08B013C
:10167000EC01FB010084F185E02D0995892BE1F651
:10168000D80116968D919C911797019617969C9369
:101690008E931697CE01DF91CF911F910F910895F0
:1016A000FA01AA27283051F1203181F1E8946F9393
:1016B0006E7F6E5F7F4F8F4F9F4FAF4FB1E03ED039
:1016C000B4E03CD0670F781F891F9A1FA11D680FD7
:1016D000791F8A1F911DA11D6A0F711D811D911D0A
:1016E000A11D20D009F468943F912AE0269F11247F
:1016F0003019305D3193DEF6CF010895462F4770E3
:10170000405D4193B3E00FD0C9F7F6CF462F4F703D
:10171000405D4A3318F0495D31FD4052419302D09B
:10172000A9F7EACFB4E0A695979587957795679541
:10173000BA95C9F700976105710508959B01AC0141
:101740000A2E06945795479537952795BA95C9F768
:10175000620F731F841F951FA01D08952F923F9243
:101760004F925F926F927F928F929F92AF92BF92B1
:10177000CF92DF92EF92FF920F931F93CF93DF935D
:10178000CDB7DEB7CA1BDB0B0FB6F894DEBF0FBEBA
:10179000CDBF09942A88398848885F846E847D8407
:1017A0008C849B84AA84B984C884DF80EE80FD8009
:1017B0000C811B81AA81B981CE0FD11D0FB6F8947F
:0E17C000DEBF0FBECDBFED010895F894FFCF40
:1017CE002020496F54204475616C2D4368616E6E04
:1017DE00656C2020002046756E6374696F6E20471D
:1017EE00656E657261746F72200020204669726D9D
:1017FE0077617265205265763A25632E2563202027
:10180E000020204B686F6D4C6162732044657369D4
:10181E00676E202020002020202020202020202045
:10182E0020202020202020202020003C3C536875C2
:10183E0074646F776E20726571756573743E3E00C9
:10184E00446576696365207368757474696E672084
:10185E00646F776E00696E205820736563202020B8
:10186E002020202020202020200041542B43574AA6
:10187E0041503D222573222C222573220D0A00434E
:10188E006F6D6D756E69636174696F6E20657272CE
:10189E006F722100507265737320746865206275D3
:1018AE0074746F6E2020202000746F207265737424
:1018BE0061727420646576696365202020002020A3
:1018CE00203C3C3C204552524F52203E3E3E202072
:1018DE0020200041542B474C53503D310D0A0056E9
:1018EE004241543D25640D0A0041433D4F4E0D0AC1
:1018FE000041433D4F46460D0A00413A25737C0098
:10190E00663A257320487A0056413D2573567C0071
:10191E005662413D25735600423A25737C0056426D
:10192E003D2573567C005662423D25735600256355
:10193E0025632E2563256300202053687574746912
:10194E006E6720446F776E2E2E2E202000202020D2
:10195E00202020696E2058207365632020202020CF
:10196E0020002020205265626F6F74696E672E2EE4
:10197E002E202020202000526573657420746F2065
:10198E00666163746F72792E2E2E2000455350338C
:10199E0032204465766963652E2E2E2E2E2E202043
:1019AE00004553503332204465766963652E2E2EE2
:1019BE002E2E2E4F4B004F70656E696E67204E6552
:1019CE0074776F726B2E2E2E202000415445300DF1
:1019DE000A0041542B43574D4F44453D330D0A00E9
:1019EE004F70656E696E67204E6574776F726B2EE1
:1019FE002E2E4F4B004372656174696E67205365DE
:101A0E00727665722E2E2E20200041542B43575392
:101A1E0041503D22494F545F46554E4347454E2255
:101A2E002C2230222C312C300D0A0041542B4349EC
:101A3E00504D55583D310D0A004372656174696E03
:101A4E0067205365727665722E2E2E4F4B003C57D3
:101A5E00616974696E6720466F72204465766963AA
:101A6E00653E0041542B4349505345525645523D15
:101A7E00312C313732360D0A00203C4465766963CD
:101A8E006520636F6E6E65637465643E20002B3057
:101A9E002E303000205374617274696E672057695E
:101AAE002D4669204C414E2000636F6D6D756E6939
:101ABE00636174696F6E2077697A61726400415454
:101ACE002B43574D4F44453D310D0A00416E647214
:101ADE006F69642064657669636520666F756E64F0
:101AEE000046756E6347656E204D41432041646428
:101AFE00726573733A003C202020526574726965DA
:101B0E0076696E672E2E2E20203E0041542B4349BF
:101B1E00505354414D41433F0D0A0041542B43490C
:101B2E005053454E443D302C32330D0A0053534929
:101B3E00443A257300504153533A25730057692D8B
:101B4E0046692064617461207265636569766564B7
:101B5E003A00436F6E6E656374696F6E3A2053651B
:101B6E00637572656400436F6E6E656374696F6E44
:101B7E003A204F70656E2020202000446576696300
:101B8E00652069732072656164792E2E2E0D0A0010
:101B9E00554152542E776169745F666F725F6D6541
:101BAE007373616765203D20574149545F464F521C
:101BBE005F4F4B0D0A0056616C6964206D6573733F
:101BCE006167653A200056616C6964206D657373B8
:101BDE006167653A200D0A00554152542E776169AE
:101BEE00745F666F725F6D657373616765203D200C
:101BFE00574149545F464F525F52454144595F54D5
:101C0E004F5F53454E440D0A00554152542E776195
:101C1E0069745F666F725F6D657373616765203D92
:101C2E0020574149545F464F525F434F4E4E4543F6
:101C3E00540D0A00554152542E776169745F666FD8
:101C4E00725F6D657373616765203D20574149541E
:101C5E005F464F525F434C4F5345440D0A0055416A
:101C6E0052542E776169745F666F725F6D65737320
:101C7E00616765203D20574149545F464F525F537F
:101C8E00454E445F4F4B0D0A00554152542E77611D
:101C9E0069745F666F725F6D657373616765203D12
:101CAE0020574149545F464F525F52454144590DAA
:101CBE000A00554152542E776169745F666F725FE8
:101CCE006D657373616765203D20574149545F46CA
:101CDE004F525F444154410D0A00554152542E77E4
:101CEE006169745F666F725F6D657373616765209E
:101CFE003D20574149545F464F525F43524544453C
:101D0E004E5449414C530D0A00554152542E7761A1
:101D1E0069745F666F725F6D657373616765203D91
:101D2E0020574149545F464F525F4D41430D0A00C3
:00000001FF
