:100000000C9468000C9485000C9485000C94850079
:100010000C9485000C9485000C9485000C9485004C
:100020000C9485000C9485000C9485000C9485003C
:100030000C9485000C9485000C9485000C9485002C
:100040000C9485000C9485000C9485000C9485001C
:100050000C948500FA044E050F0539054E0524055C
:100060000F0539054E05240539054E0524053905CA
:100070002405390572053E06AA060E06C00574065B
:10008000DF062606BE0E930DBC0DD00DA70DE50DA7
:10009000110E270EFB0D3D0E010F530E890ED70ECC
:1000A000EC0EB314270FFE0F0C11820FED11C412CA
:1000B000D2134812371539153B153D153F1541151B
:1000C00043155D155F156115631565156715691590
:1000D00011241FBECFE5D8E0DEBFCDBF12E0A0E601
:1000E000B0E0E8E9F4E302C005900D92A434B10752
:1000F000D9F722E0A4E4B2E001C01D92A539B2070D
:10010000E1F70E945F0C0C944A1A0C9400008F9A3D
:100110008E9A8D9A8C9AB99AB89A0895979888234E
:100120000CF4979A969886FD969A959885FD959ADF
:10013000949884FD949AC19A8AEB8A95F1F700C04D
:10014000C1988AEB8A95F1F700C00895CF93C82F24
:10015000C09AC1980E948E008C2F8295807F0E9449
:100160008E00CF9108950F931F93CF93DF9300D00C
:10017000CDB7DEB78C011A821982E981FA81E80FC6
:10018000F91F80818823C9F0E981FA81E00FF11F0E
:1001900080810E94A60089819A8101969A83898331
:1001A0008FE391E00197F1F700C00000E981FA8147
:1001B000E00FF11F80818111E7CF0F900F90DF9149
:1001C000CF911F910F910895CF93C82FC098C198D8
:1001D0000E948E008C2F8295807F0E948E00CF918E
:1001E00008952FEF80E792E0215080409040E1F7A2
:1001F00000C00000C098C19880E30E948E008FE389
:100200009CE90197F1F700C0000080E30E948E0096
:1002100087E592E00197F1F700C0000080E30E94BB
:100220008E0087E592E00197F1F700C0000088E2B8
:100230000E948E0090EF9A95F1F788E20E94E40008
:1002400020EF2A95F1F788E00E94E40080EF8A957C
:10025000F1F781E00E94E4008FE79EE30197F1F758
:1002600000C0000086E00E94E40090EF9A95F1F74C
:100270008CE00E94E40020EF2A95F1F70895CF93D7
:10028000DF93EC01862F80680E94E400CE010E947B
:10029000B300DF91CF910895682F80E690E00E942F
:1002A0003F01089580E00E944C0180E40E944C01CF
:1002B00084E10E944C0184E50E944C010895CF9393
:1002C000C82F862F8068840F0E94E4008C2F0E9424
:1002D000A600CF91089584E1DB9AE3E5F3E031973E
:1002E000F1F700C00000DB98E3E5F3E03197F1F7A8
:1002F00000C00000815081F708958823B1F18CEE91
:10030000DB9AE3E5F3E03197F1F700C00000DB98FA
:10031000E3E5F3E03197F1F700C00000815081F789
:1003200088E291E0DB9AE3EAF2E03197F1F700C06E
:100330000000DB98E3EAF2E03197F1F700C000003B
:10034000019781F78CE892E0DB9AE7E3F2E03197DE
:10035000F1F700C00000DB98E7E3F2E03197F1F736
:1003600000C00000019781F7089588E291E0DB9AD0
:10037000E3EAF2E03197F1F700C00000DB98E3EA2E
:10038000F2E03197F1F700C00000019781F78CEEA1
:10039000DB9AE3E5F3E03197F1F700C00000DB986A
:1003A000E3E5F3E03197F1F700C00000815081F7F9
:1003B00080E691E0DB9AEFE6F4E03197F1F700C0D8
:1003C0000000DB98EFE6F4E03197F1F700C00000A1
:1003D000019781F70895CF930E946B010E9452010B
:1003E00060E085E790E00E943F0160E48AE890E0E9
:1003F0000E943F0164E18FE990E00E943F01C5E364
:1004000043E064E18C2F0E945F012FEF89E698E1C1
:10041000215080409040E1F700C00000C150C0333F
:1004200079F780E00E947D01DA98CF91089587B333
:10043000837F87BB88B38C6188BB84B38C6F84BB9C
:10044000D49A87B3836087BB81B3806F81BB8AB343
:100450008C7F8ABB87B3806A87BBBE98899A84B336
:10046000836084BB8A988AB38C608ABB089586B106
:10047000876886B93E9A08950E9417020E948B15DC
:10048000DA9A0E947C150E9487002FEF89E698E196
:10049000215080409040E1F700C000000E94F10030
:1004A0000E9437020895633041F4853011F4A89812
:1004B0000895863049F4A9980895853011F4A89AD2
:1004C0000895863009F4A99A0895EF92FF920F9348
:1004D0001F93CF93DF93F82EE22ECB01BA010E9437
:1004E000C21527E73CEC4BE251E40E9428160E941B
:1004F0009315EB01DF73DC01CB01072E7EE0B6958F
:10050000A795979587957A95D1F7702D8C011F73D4
:100510000E946D154F2D60E081E20E942A158D2FFB
:100520008F734F2D6C2F80640E942A15812F8F733B
:100530004F2D602F80640E942A154F2D60E080ECC3
:100540000E942A1582E0E81661F083E0E81679F04F
:1005500081E0E81212C04F2D60E280E20E942A156D
:1005600011C04F2D62E080E20E942A150BC04F2D72
:1005700068E280E20E942A1505C04F2D60E880E203
:100580000E942A150E947C156E2D8F2D0E94530209
:10059000DF91CF911F910F91FF90EF9008952FEF72
:1005A0003FE0281B390B832F8F70653041F441E009
:1005B000622F806F0E942A1580E090E008956630D7
:1005C00041F442E0622F806F0E942A1580E090E0A3
:1005D00008958FEF9FEF0895829906C0829BFECF0A
:1005E0000E946B0181E0089580E00895CF93DF932E
:1005F00000D0CDB7DEB786B382FB882780F9898328
:1006000086B383FB882780F98A8380918E028823B2
:1006100081F080918F02882361F08A81811109C065
:100620008981882331F0EEE8F2E082818F5F828356
:100630008BC080918E02811110C080918F0288231F
:1006400061F08A81811109C08981811106C0EEE8BB
:10065000F2E082818F5F828377C080918E02811168
:1006600010C080918F0281110CC08A81882349F0CB
:100670008981811106C0EEE8F2E082818F5F82837A
:1006800063C080918E02882381F080918F02811156
:100690000CC08A81882349F08981882331F0EEE8F3
:1006A000F2E082818F5F82834FC080918E02882327
:1006B00081F080918F02882361F08A81882349F03C
:1006C0008981811106C0EEE8F2E083818F5F838328
:1006D0003BC080918E02882381F080918F0281112E
:1006E0000CC08A81811109C08981811106C0EEE8A0
:1006F000F2E083818F5F838327C080918E02811116
:1007000010C080918F0281110CC08A81811109C0B3
:100710008981882331F0EEE8F2E083818F5F838363
:1007200013C080918E0281110FC080918F028823A7
:1007300059F08A81882341F08981882329F0EEE8E5
:10074000F2E083818F5F83838FEC97E00197F1F76D
:1007500000C0000080919002843021F41092900239
:1007600081E009C080919102843021F410929102BD
:1007700082E001C080E09A81EEE8F2E09083998106
:1007800091830F900F90DF91CF9108952FEF829F6B
:10079000C001112464E670E00E94BD16609547E038
:1007A00081E10E942A1508958536F8F429E1829F97
:1007B000C001112464E670E00E94BD16655B70E024
:1007C00080E090E00E94C4152DEC3CEC43E252E442
:1007D0000E9428160E949315872F8F7042E0806731
:1007E0000E942A1580E090E008958FEF9FEF089512
:1007F000CF93C0E08C2F0E94D4038FE19EE4019739
:10080000F1F700C00000CF5FC536A1F7CF91089582
:100810007F70853019F0863099F024C0442341F070
:1008200043E0872F80670E942A1580E090E00895BA
:1008300043E0872F806F0E942A1580E090E00895A2
:10084000442341F044E0872F80670E942A1580E00E
:1008500090E0089544E0872F806F0E942A1580E081
:1008600090E008958FEF9FEF089517B8369A369964
:10087000FECF64B175B180E090E00E94C21521E323
:1008800038E04CE05FE30E9428160E9493157093B5
:100890006302609362020895389A369A3699FECFC1
:1008A00084B195B1853A914020F081E08093640253
:1008B000089510926402089547E050E060E370E00C
:1008C00085E692E00E940D1747E050E060E370E09B
:1008D0008CE692E00E940D1720E330E3309374021F
:1008E000209373023093760220937502E5E6F2E0DE
:1008F0004FE456E4518F408F86E4828F548F438FAC
:10090000858FA7E7B2E011963C932E9380E3129671
:100910008C93AAE7B2E011963C932E9312968C9397
:100920009BE2968F978F41E350E357A346A380A79E
:1009300054A343A385A331A320A382A30895E3E98D
:10094000F2E084E68083818308958E3019F08F3041
:1009500031F00895809193020E94D403089580910C
:1009600094020E94C6030895CF92DF92EF92FF9205
:100970000F931F93CF93DF93022F2223C1F0EA013D
:10098000C20FD11D10E00F2EFAE0CF2ED12CE12C9A
:10099000F12CF02DA70196010E94D116605D6A939B
:1009A000622F732F842F952F1F5F0113F3CFDF91D9
:1009B000CF911F910F91FF90EF90DF90CF9008950E
:1009C000EF92FF920F931F93CF93DF93CDB7DEB7D4
:1009D000823011F010926102413009F074C0862F0C
:1009E00090E08031910508F056C4FC01E65DFF4FB0
:1009F0000C94F31640E060E080E20E945F0140E06A
:100A000060E480E20E945F0140E064E180E20E94D5
:100A10005F0140E064E580E20E945F013CC440E089
:100A200060E08EE30E945F0140E060E480E20E94AB
:100A30005F0140E064E180E20E945F0140E064E524
:100A400080E20E945F0127C440E060E080E20E94F3
:100A50005F0140E060E48EE30E945F0140E064E1FA
:100A600080E20E945F0140E064E580E20E945F0155
:100A700012C440E060E080E20E945F0140E060E478
:100A800080E20E945F0140E064E18EE30E945F012A
:100A900040E064E580E20E945F01FDC340E060E069
:100AA00080E20E945F0140E060E480E20E945F011A
:100AB00040E064E180E20E945F0140E064E58EE393
:100AC0000E945F01E8C3423009F0AEC1862F90E07A
:100AD000FC013297E830F10508F0DDC3E65CFF4F1A
:100AE0000C94F3168D898330E9F028F4813041F0BD
:100AF000823079F030C08430F1F0853029F12BC09C
:100B0000E5E6F2E083E5808F89E4818F8EE4828FD1
:100B100022C0E5E6F2E084E5808F82E5818F8EE4F5
:100B2000828F19C0E5E6F2E083E5808F81E5818F51
:100B300082E5828F10C0E5E6F2E080E2808F84E4F7
:100B4000818F83E4828F07C0E5E6F2E08FE4808F37
:100B500086E4818F828F05E612E041E160E0F801D2
:100B6000808D0E945F0142E160E0F801818D0E946A
:100B70005F0143E160E0F801828D0E945F018BC359
:100B80008E898330E9F028F4813041F0823079F0A9
:100B900030C08430F1F0853029F12BC0E5E6F2E079
:100BA00083E5838F89E4848F8EE4858F22C0E5E618
:100BB000F2E084E5838F82E5848F8EE4858F19C00F
:100BC000E5E6F2E083E5838F81E5848F82E5858F1A
:100BD00010C0E5E6F2E080E2838F84E4848F83E452
:100BE000858F07C0E5E6F2E08FE4838F86E4848F8B
:100BF000858F05E612E041E160E0F801838D0E94F7
:100C00005F0142E160E0F801848D0E945F0143E1F1
:100C100060E0F801858D0E945F013DC369897A8992
:100C200080E090E022E043E752E00E94B40405E651
:100C300012E04EE060E4F80186850E945F014FE01B
:100C400060E4F80187850E945F0125C36B897C8978
:100C500080E090E022E045E752E00E94B40405E61F
:100C600012E04EE060E4F80180890E945F014FE0ED
:100C700060E4F80181890E945F010DC369857A856E
:100C80008B859C8527E045E652E00E94B40405E68A
:100C900012E047E064E1F80180810E945F0149E0D1
:100CA00064E1F80181810E945F014AE064E1F8019A
:100CB00082810E945F014BE064E1F80183810E9420
:100CC0005F014DE064E1F80184810E945F014EE024
:100CD00064E1F80185810E945F014FE064E1F80161
:100CE00086810E945F01D7C26D857E858F85988938
:100CF00027E04CE652E00E94B40405E612E047E02B
:100D000064E1F80187810E945F0149E064E1F80134
:100D100080850E945F014AE064E1F80181850E94BC
:100D20005F014BE064E1F80182850E945F014DE0C4
:100D300064E1F80183850E945F014EE064E1F801FF
:100D400084850E945F014FE064E1F80185850E947F
:100D50005F01A1C28B8D811104C08BE2809383025D
:100D600003C08DE2809383026F89788D77231CF412
:100D7000719561957109072E000C880B990B23E082
:100D800047E752E00E94B40405E612E047E064E55C
:100D9000F801868D0E945F0148E064E5F8018289D0
:100DA0000E945F014AE064E5F80183890E945F01C7
:100DB0004BE064E5F80184890E945F016CC28C8D70
:100DC000811104C08BE28093840203C08DE2809382
:100DD0008402698D7A8D77231CF471956195710970
:100DE000072E000C880B990B23E04AE752E00E9483
:100DF000B40405E612E047E064E5F801878D0E943F
:100E00005F0148E064E5F80185890E945F014AE0DE
:100E100064E5F80186890E945F014BE064E5F80112
:100E200087890E945F0137C2433009F043C06E30AA
:100E300019F06F3001F12FC26091930270E080E0F1
:100E400090E023E048E852E00E94B40405E612E096
:100E50004DE060E4F80183A10E945F014EE060E490
:100E6000F80184A10E945F014FE060E4F80185A1D0
:100E70000E945F0110C26091940270E080E090E0F7
:100E800023E04BE852E00E94B40405E612E04DE096
:100E900064E1F80186A10E945F014EE064E1F8017F
:100EA00087A10E945F014FE064E1F80180A50E94E4
:100EB0005F01F1C1823009F4FCC030F4882359F09D
:100EC000813009F47FC0E7C1843009F455C1853011
:100ED00009F467C1E0C160E084EB90E00E943F014B
:100EE00060E489EC90E00E943F0164E18EED90E0C7
:100EF0000E943F0164E583EF90E00E943F0105E618
:100F000012E041E160E0F801808D0E945F0142E162
:100F100060E0F801818D0E945F0143E160E0F8012B
:100F2000828D0E945F014EE060E4F80186850E9498
:100F30005F014FE060E4F80187850E945F0147E0B0
:100F400064E1F80180810E945F0149E064E1F801F9
:100F500081810E945F014AE064E1F80182810E9480
:100F60005F014BE064E1F80183810E945F014DE085
:100F700064E1F80184810E945F014EE064E1F801C0
:100F800085810E945F014FE064E1F80186810E9443
:100F90005F0147E064E5F801868D0E945F0148E04B
:100FA00064E5F80182890E945F014AE064E5F80186
:100FB00083890E945F014BE064E5F80184890E9407
:100FC0005F0169C160E088E091E00E943F0160E458
:100FD00089EC90E00E943F0164E18EED90E00E9478
:100FE0003F0164E583EF90E00E943F0105E612E0D7
:100FF00041E160E0F801838D0E945F0142E160E021
:10100000F801848D0E945F0143E160E0F801858D65
:101010000E945F014EE060E4F80180890E945F0158
:101020004FE060E4F80181890E945F0147E064E1DC
:10103000F80187810E945F0149E064E1F801808541
:101040000E945F014AE064E1F80181850E945F012E
:101050004BE064E1F80182850E945F014DE064E1AC
:10106000F80183850E945F014EE064E1F801848508
:101070000E945F014FE064E1F80185850E945F01F5
:1010800047E064E5F801878D0E945F0148E064E570
:10109000F80185890E945F014AE064E5F8018689CC
:1010A0000E945F014BE064E5F80187890E945F01BF
:1010B000F2C0809161028111C5C081E0809361021C
:1010C00060E08DE191E00E943F0160E482E391E005
:1010D0000E943F0164E187E491E00E943F0164E5E2
:1010E0008CE591E00E943F010F2EF2E6EF2EF2E038
:1010F000FF2EF02DF7016081718180E090E023E008
:1011000045E852E00E94B40405E612E04DE060E0DC
:10111000F80180A10E945F014FE060E0F80181A129
:101120000E945F0140E160E0F80182A10E945F013E
:10113000F7018281882381F040E160E48FE40E941E
:101140005F0141E160E48EE40E945F0142E160E4FE
:1011500080E20E945F019FC040E160E48FE40E9452
:101160005F0141E160E486E40E945F0142E160E4E6
:1011700086E40E945F018FC060E081E791E00E94F9
:101180003F0160E486E891E00E943F0164E18BE961
:1011900091E00E943F0164E580EB91E00E943F01F5
:1011A0007AC060E085EC91E00E943F0160E48AED46
:1011B00091E00E943F0164E18FEE91E00E943F01C7
:1011C00064E580E690E00E943F0103E912E0F80147
:1011D000608170E080E090E023E048E852E00E9407
:1011E000B404F801618170E080E090E023E04BE816
:1011F00052E00E94B40405E612E04DE060E4F8011C
:1012000083A10E945F014EE060E4F80184A10E9486
:101210005F014FE060E4F80185A10E945F014DE0AD
:1012200064E1F80186A10E945F014EE064E1F801EB
:1012300087A10E945F014FE064E1F80180A50E9450
:101240005F0129C00F2EF2E6EF2EF2E0FF2EF02D07
:10125000F7016081718180E090E023E045E852E091
:101260000E94B40405E612E04DE060E0F80180A1C0
:101270000E945F014FE060E0F80181A10E945F01E0
:1012800040E160E0F80182A10E945F01F7018281E4
:10129000811152CF61CFDF91CF911F910F91FF90BC
:1012A000EF9008950F931F93CF93DF93CDB7DEB7E1
:1012B00064970FB6F894DEBF0FBECDBF0E945201F7
:1012C00060E084E092E00E943F011F9282E38F93EE
:1012D0001F9290E39F931F928F9389E192E09F93D7
:1012E0008F931F9284E18F938E010F5F1F4F1F9387
:1012F0000F930E94141760E4C8010E943F0164E547
:101300008EE292E00E943F012FEF84E39CE02150A7
:1013100080409040E1F700C000000FB6F894DEBFB7
:101320000FBECDBF64960FB6F894DEBF0FBECDBF23
:10133000DF91CF911F910F9108950E94F80384E6E9
:101340000E94D40384E60E94C6030E94520981E0F1
:101350000E947D010895CF93DF93CDB7DEB74D8115
:101360005E816F81788580E090E00E94F619E199B6
:10137000FECF49855A856B857C8584E090E00E948C
:10138000F619E199FECF6D8588E090E00E94E91999
:10139000E199FECF6F8589E090E00E94E919E1991B
:1013A000FECF6F898AE090E00E94E919E199FECFB3
:1013B000688D8BE090E00E94E919E199FECF6B897E
:1013C0007C8977231CF47195619571098CE090E01C
:1013D0000E94FE19E199FECF6D897E8977231CF466
:1013E0007195619571098EE090E00E94FE19E19976
:1013F000FECF698980E190E00E94E919E199FECF72
:101400006A8981E190E00E94E919E199FECF60913B
:10141000930282E190E00E94E919E199FECF609188
:10142000940283E190E00E94E919E199FECFDF91F7
:10143000CF9108952F923F924F925F926F927F9239
:101440008F929F92AF92BF92CF92DF92EF92FF92D4
:101450000F931F93CF93DF9300D000D0CDB7DEB7AB
:1014600080E090E00E94DD192B013C01E199FECF64
:1014700084E090E00E94DD1969837A838B839C83EA
:10148000E199FECF88E090E00E94D519D82EE1992D
:10149000FECF89E090E00E94D519E82EE199FECFB9
:1014A0008AE090E00E94D519F82E2224239481111D
:1014B00001C0212CE199FECF8BE090E00E94D5196C
:1014C000382EE199FECFF11008C08CE090E00E9428
:1014D000E3195C01E199FECF0DC08CE090E00E9421
:1014E000E31999231CF4919581959109AA24BB24B1
:1014F000A81AB90AE199FECF311008C08EE090E039
:101500000E94E3194C01E199FECF0FC089A49AA46F
:101510008EE090E00E94E31999231CF49195819547
:101520009109AA24BB24A81AB90AE199FECF80E147
:1015300090E00E94D519082FE199FECF81E190E05B
:101540000E94D519182FE199FECF82E190E00E9408
:10155000D519C82E80939302E199FECF83E190E0E4
:101560000E94D51980939402E199FECF6C2D70E012
:1015700080E090E023E048E852E00E94B4046091EB
:10158000940270E080E090E023E04BE852E00E949B
:10159000B404B501BB2024F4662777276A197B09B8
:1015A0005B01072E000C880B990B23E047E752E004
:1015B0000E94B404B401992024F46627772768199F
:1015C0007909072E000C880B990B23E04AE752E0BB
:1015D0000E94B40427E04CE652E069817A818B8155
:1015E0009C810E94B40427E045E652E0C301B201A9
:1015F0000E94B4048E2D90E0A0E0B0E022E045E728
:1016000052E0BC01CD010E94B4048D2D90E0A0E019
:10161000B0E022E043E752E0BC01CD010E94B404F7
:10162000311004C08BE28093840203C08DE280936A
:101630008402F11004C08BE28093830203C08DE228
:10164000809383021330E9F028F4113041F0123016
:1016500079F030C01430F1F0153029F12BC0E5E6F7
:10166000F2E083E5838F89E4848F8EE4858F22C046
:10167000E5E6F2E084E5838F82E5848F8EE4858F52
:1016800019C0E5E6F2E083E5838F81E5848F82E58A
:10169000858F10C0E5E6F2E080E2838F84E4848FDA
:1016A00083E4858F07C0E5E6F2E08FE4838F86E46C
:1016B000848F858F0330E9F028F4013041F0023047
:1016C00079F030C00430F1F0053029F12BC0E5E6A7
:1016D000F2E083E5808F89E4818F8EE4828F22C0DF
:1016E000E5E6F2E084E5808F82E5818F8EE4828FEB
:1016F00019C0E5E6F2E083E5808F81E5818F82E520
:10170000828F10C0E5E6F2E080E2808F84E4818F72
:1017100083E4828F07C0E5E6F2E08FE4808F86E401
:10172000818F828F202FB301A20185E00E94650284
:10173000212F49815A816B817C8186E00E9465025C
:101740006D2D70E080E090E00E94C21520E030E056
:101750004AE652E40E9428160E949315DC01CB0150
:1017600065E00E94CF026E2D70E080E090E00E9464
:10177000C21520E030E04AE652E40E9428160E949A
:101780009315DC01CB0166E00E94CF02F11020C06E
:1017900041E060E070E085E00E9408042FEF3FE048
:1017A000A29EC001A39E900DB29E900D11246AE4EA
:1017B00071E00E94BD16062F172F40E085E00E94C1
:1017C000080441E060E070E085E00E9408041FC06A
:1017D00040E060E070E085E00E9408042FEF3FE009
:1017E000A29EC001A39E900DB29E900D11246AE4AA
:1017F00071E00E94BD16062F172F41E085E00E9480
:10180000080440E060E070E085E00E940804422D9A
:10181000602F712F85E00E94080403E912E0F801AF
:1018200081810E94C603F80180810E94D4030F9039
:101830000F900F900F90DF91CF911F910F91FF901C
:10184000EF90DF90CF90BF90AF909F908F907F9060
:101850006F905F904F903F902F90089525E040E06B
:1018600050E0BA0185E00E94650225E040E050E0CA
:10187000BA0186E00E94650265E080E090E00E9487
:10188000CF0266E080E090E00E94CF0241E060E09D
:1018900070E085E00E94080440E060E070E085E0D0
:1018A0000E94080441E060E070E086E00E940804C5
:1018B00040E060E070E086E00E94080408950E9425
:1018C0003C020E949D090E942E0CEFE5F2E011827D
:1018D000108210925E020E945C040E949F048DB7E9
:1018E0009EB744970FB6F8949EBF0FBE8DBFADB79D
:1018F000BEB7119684E1EAE4F2E001900D928A9578
:10190000E1F74091490260E080E00E94E004EDB719
:10191000FEB774960FB6F894FEBF0FBEEDBFCFE5CD
:10192000D2E011E00F2EF3E9CF2EF2E0DF2EF02D02
:101930000F2EF4E67F2EF02D0F2EF0E42F2EF2E482
:101940003F2EFFE04F2E512CF02D0F2EF3E06F2E87
:10195000F02D6894AA24A2F80F2EF5E0BF2EF02DEA
:101960000F2EF2E6EF2EF2E0FF2EF02D0E94F6028F
:10197000082F0E94EC02982E8881882311F118828A
:101980008DB79EB744970FB6F8949EBF0FBE8DBF1C
:10199000ADB7BEB7119684E1EAE4F2E001900D9292
:1019A0008A95E1F7409149026091480289810E943D
:1019B000E004EDB7FEB774960FB6F894FEBF0FBE05
:1019C000EDBF80914702882331F010924702809149
:1019D00048020E94A50480914902811193C0898127
:1019E0008230B9F128F4882351F08130E9F0BECF7C
:1019F000843009F45FC0853009F470C0B7CF01307E
:101A000019F419831883B2CF023021F4F2E0F9837C
:101A10001883ACCF992009F4A9CF1093490222E092
:101A2000209348021883A2CF013021F482E08983F9
:101A300018839CCF023019F41982188397CF99200C
:101A400009F494CF1093490286E0809348021883EA
:101A50008DCF013019F4198218830DC0023019F4AA
:101A60001983188308C0992031F0109349028AE045
:101A70008093480218830E944C040E943504F701A9
:101A8000208131818091450290914602019628176C
:101A9000390729F018833093460220934502F70155
:101AA000828190914402891709F460CF1883809352
:101AB00044025CCF013019F4B982188357CF023049
:101AC00019F4B982188352CF992009F44FCF10939B
:101AD00049028CE080934802188348CF013019F402
:101AE000A982188343CF023019F4A98218833ECF0C
:101AF000992009F43BCF109349028EE0809348026D
:101B0000188334CF813009F091C1E09148028E2FC3
:101B100090E0FC013197EF30F10508F027CFEE5B44
:101B2000FF4F0C94F316013021F4B0924802188351
:101B30001DCF023021F4A0924802188317CF9920BC
:101B400009F414CFF2E0F093490218830FCF01306B
:101B500021F460924802188309CF023029F422E070
:101B600020934802188302CF992009F4FFCE82E027
:101B7000809349021883FACE013021F4A0924802E2
:101B80001883F4CE023021F4B09248021883EECECE
:101B9000992009F4EBCE92E0909349021883E6CEA7
:101BA000013029F4E2E0E09348021883DFCE0230EE
:101BB00021F4609248021883D9CE992009F4D6CE38
:101BC000F2E0F09349021883D1CE013029F489E084
:101BD000809348021883CACE023029F488E08093AB
:101BE00048021883C3CE992009F4C0CE22E0209386
:101BF00049021883BBCE013029F487E08093480264
:101C00001883B4CE023029F486E08093480218830A
:101C1000ADCE992009F4AACE82E0809349021883C0
:101C2000A5CE013029F488E08093480218839ECE27
:101C3000023029F489E080934802188397CE9920D6
:101C400009F494CE92E09093490218838FCE01302C
:101C500029F486E080934802188388CE023029F464
:101C600087E080934802188381CE992009F47ECEC4
:101C7000E2E0E0934902188379CE013029F48BE049
:101C800080934802188372CE023029F48BE080934F
:101C9000480218836BCE992009F468CE109249024D
:101CA000A982188363CE013029F48DE08093480225
:101CB00018835CCE023021F410934802188356CE6C
:101CC000992009F453CE10924902109248021883C9
:101CD000F2E0F9838DB79EB744970FB6F8949EBF94
:101CE0000FBE8DBFADB7BEB7119684E1EAE4F2E056
:101CF00001900D928A95E1F70E94AB090E946B0159
:101D0000EDB7FEB774960FB6F894FEBF0FBEEDBFE9
:101D10002DCE013021F410934802188327CE0230D3
:101D200029F48CE080934802188320CE992009F48E
:101D30001DCE10924902109248021883A9828DB7D5
:101D40009EB744970FB6F8949EBF0FBE8DBFADB738
:101D5000BEB7119684E1EAE4F2E001900D928A9513
:101D6000E1F70E941A0A0E946B01EDB7FEB7749664
:101D70000FB6F894FEBF0FBEEDBFF8CD013029F4C9
:101D80008CE0809348021883F1CD023029F48DE075
:101D9000809348021883EACD992009F4E7CD109288
:101DA0004902109248021883F2E0F983DFCD013036
:101DB00029F48FE0809348021883D8CD023029F4AB
:101DC0008FE0809348021883D1CD992009F4CECDBD
:101DD000609249021883CACD013029F48EE08093C5
:101DE00048021883C3CD023029F48EE08093480264
:101DF0001883BCCD992009F4B9CD609249021883AB
:101E0000B5CD013029F48AE0809348021883AECD25
:101E1000023029F48AE0809348021883A7CD9920E4
:101E200009F4A4CD80E00E94EB01A0CD823009F03E
:101E3000A3C5E09148028E2F90E0FC013197E93074
:101E4000F10508F093CDEF5AFF4F0C94F3160130D3
:101E500039F5188380915602823079F018F4813078
:101E600041F011C0833061F0853069F4109356025F
:101E70000CC022E02093560208C06092560205C0B2
:101E8000A092560202C0B0925602EAE4F2E040810B
:101E900051816281738124858B2D0E94650266CDFC
:101EA000023039F5188380915602823071F018F4AF
:101EB000813041F011C0833059F0853069F4A0922F
:101EC00056020CC0B092560209C01093560206C0CA
:101ED00082E08093560202C060925602EAE4F2E089
:101EE000408151816281738124858B2D0E9465021E
:101EF0003DCD992009F43ACD1092490218831092F1
:101F0000480234CD0130B9F5188380915202909186
:101F100053028634910538F0E6E4F0E0F093530282
:101F2000E093520212C020915E02222319F0213068
:101F300039F00BC00196909353028093520205C072
:101F40000A969093530280935202609152027091CC
:101F5000530280E090E00E94C21520E030E04AE6A3
:101F600052E40E9428160E949315DC01CB016B2DD0
:101F70000E94CF02FBCC023079F518838091520287
:101F800090915302009791F020915E02222319F064
:101F9000213039F00BC00197909353028093520285
:101FA00005C00A97909353028093520260915202A7
:101FB0007091530280E090E00E94C21520E030E072
:101FC0004AE652E40E9428160E949315DC01CB01D8
:101FD0006B2D0E94CF02CACC992009F4C7CC809106
:101FE0005E02811103C010935E0206C010925E0271
:101FF00010924902109248021883B8CC013009F0BF
:1020000080C0188380914A0290914B02A0914C02AB
:10201000B0914D028034F2E49F07FFE0AF07B105B5
:1020200048F020924A0230924B0240924C02509269
:102030004D025CC020915E02223029F128F4222357
:1020400051F02130A1F052C02430B9F148F12530CF
:1020500009F440C04BC00196A11DB11D80934A02F6
:1020600090934B02A0934C02B0934D023FC00A964E
:10207000A11DB11D80934A0290934B02A0934C0284
:10208000B0934D0233C08C599F4FAF4FBF4F8093D9
:102090004A0290934B02A0934C02B0934D0226C08B
:1020A00088519C4FAF4FBF4F80934A0290934B0291
:1020B000A0934C02B0934D0219C0805F984DAF4F72
:1020C000BF4F80934A0290934B02A0934C02B0936F
:1020D0004D020CC080569947AE4FBF4F80934A02C5
:1020E00090934B02A0934C02B0934D02EAE4F2E0CD
:1020F000408151816281738124858B2D0E9465020C
:1021000035CC023009F075C0188380914A02909155
:102110004B02A0914C02B0914D020097A105B10570
:1021200009F45CC020915E02223029F128F42223B8
:1021300051F02130A1F052C02430B9F148F12530DE
:1021400009F440C04BC00197A109B10980934A022C
:1021500090934B02A0934C02B0934D023FC00A975C
:10216000A109B10980934A0290934B02A0934C02BB
:10217000B0934D0233C084569109A109B1098093EF
:102180004A0290934B02A0934C02B0934D0226C09A
:10219000885E9340A109B10980934A0290934B0253
:1021A000A0934C02B0934D0219C080519742A109EF
:1021B000B10980934A0290934B02A0934C02B093D2
:1021C0004D020CC0805A9648A140B10980934A0242
:1021D00090934B02A0934C02B0934D02EAE4F2E0DC
:1021E000408151816281738124858B2D0E9465021B
:1021F000BDCB992009F4BACB80915E02853020F4E2
:102200008F5F80935E0206C010925E0210924902B8
:10221000109248021883AACB013009F064C01883D9
:10222000809158029091590299231CF410935C02FA
:1022300002C010925C028A3421E092073CF08AE4EA
:1022400091E090935902809358021AC020915E0247
:10225000213051F018F0223069F012C001969093AD
:102260005902809358020CC00A96909359028093A9
:10227000580206C08C599F4F909359028093580280
:1022800080915C02811107C0412F60E070E08B2DCE
:102290000E94080406C040E060E070E08B2D0E94C0
:1022A00008040F2EFAE48F2EF2E09F2EF02DF40199
:1022B0006685778577231CF4719561957109072EE2
:1022C000000C880B990B0E94C41526E636E646E4FE
:1022D00051E40E9428160E949315F40142898B2D27
:1022E0000E94080443CB023009F064C01883809137
:1022F00058029091590299231CF410935C0202C079
:1023000010925C02873BFEEF9F073CF486EB9EEF4A
:1023100090935902809358021AC020915E02213096
:1023200051F018F0223069F012C0019790935902D1
:10233000809358020CC00A979093590280935802D8
:1023400006C0845691099093590280935802809157
:102350005C02811107C0412F60E070E08B2D0E946C
:10236000080406C040E060E070E08B2D0E94080485
:102370000F2EFAE48F2EF2E09F2EF02DF4016685E9
:10238000778577231CF4719561957109072E000CF0
:10239000880B990B0E94C41526E636E646E451E404
:1023A0000E9428160E949315F40142898B2D0E94E9
:1023B0000804DCCA992009F4D9CA80915E028230EF
:1023C00020F48F5F80935E0206C010925E0210922E
:1023D0004902109248021883C9CA013039F518839E
:1023E00080915702823079F018F4813041F011C0A9
:1023F000833061F0853069F4109357020CC0F2E02D
:10240000F093570208C06092570205C0A09257028D
:1024100002C0B0925702EAE4F2E04481558166813D
:102420007781258586E00E946502A0CA023039F5D1
:10243000188380915702823071F018F4813041F096
:1024400011C0833059F0853069F4A09257020CC056
:10245000B092570209C01093570206C022E02093A1
:10246000570202C060925702EAE4F2E044815581CB
:1024700066817781258586E00E94650277CA99206A
:1024800009F474CA109249021883109248026ECA65
:102490000130B9F518838091540290915502863429
:1024A000910538F086E490E09093550280935402B1
:1024B00012C020915E02222319F0213039F00BC0A6
:1024C0000196909355028093540205C00A9690930A
:1024D000550280935402609154027091550280E03D
:1024E00090E00E94C21520E030E04AE652E40E94EB
:1024F00028160E949315DC01CB0166E00E94CF02F2
:1025000035CA023079F518838091540290915502B2
:10251000009791F020915E02222319F0213039F0CA
:102520000BC00197909355028093540205C00A97FF
:102530009093550280935402609154027091550219
:1025400080E090E00E94C21520E030E04AE652E4CC
:102550000E9428160E949315DC01CB0166E00E94C0
:10256000CF0204CA992009F401CA80915E02811148
:1025700003C010935E0206C010925E0210924902E0
:10258000109248021883F2C9013009F080C0188304
:1025900080914E0290914F02A0915002B091510251
:1025A0008034E2E49E07EFE0AE07B10548F02092E8
:1025B0004E0230924F0240925002509251025CC043
:1025C00020915E02223029F128F4222351F021309B
:1025D000A1F052C02430B9F148F1253009F440C0CF
:1025E0004BC00196A11DB11D80934E0290934F02E6
:1025F000A0935002B09351023FC00A96A11DB11D95
:1026000080934E0290934F02A0935002B0935102D8
:1026100033C08C599F4FAF4FBF4F80934E02909362
:102620004F02A0935002B093510226C088519C4F94
:10263000AF4FBF4F80934E0290934F02A093500232
:10264000B093510219C0805F984DAF4FBF4F809338
:102650004E0290934F02A0935002B09351020CC0CF
:1026600080569947AE4FBF4F80934E0290934F02D2
:10267000A0935002B0935102EAE4F2E04481558104
:1026800066817781258586E00E9465026FC90230E8
:1026900009F075C0188380914E0290914F02A0916D
:1026A0005002B09151020097A105B10509F45CC038
:1026B00020915E02223029F128F4222351F02130AA
:1026C000A1F052C02430B9F148F1253009F440C0DE
:1026D0004BC00197A109B10980934E0290934F021C
:1026E000A0935002B09351023FC00A97A109B109CB
:1026F00080934E0290934F02A0935002B0935102E8
:1027000033C084569109A109B10980934E02909378
:102710004F02A0935002B093510226C0885E9340AE
:10272000A109B10980934E0290934F02A0935002E9
:10273000B093510219C080519742A109B109809309
:102740004E0290934F02A0935002B09351020CC0DE
:10275000805A9648A140B10980934E0290934F024F
:10276000A0935002B0935102EAE4F2E04481558113
:1027700066817781258586E00E946502F7C89920E9
:1027800009F4F4C880915E02853020F48F5F809355
:102790005E0206C010925E02109249021092480238
:1027A0001883E4C8013009F064C0188380915A028C
:1027B00090915B0299231CF410935D0202C0109269
:1027C0005D028A34F1E09F073CF08AE491E0909347
:1027D0005B0280935A021AC020915E02213051F0B0
:1027E00018F0223069F012C0019690935B0280933A
:1027F0005A020CC00A9690935B0280935A0206C05C
:102800008C599F4F90935B0280935A0280915D0296
:10281000811107C0412F60E070E086E00E9408044B
:1028200006C040E060E070E086E00E9408040F2EE1
:10283000FAE48F2EF2E09F2EF02DF4016089718969
:1028400077231CF4719561957109072E000C880B94
:10285000990B0E94C41526E636E646E451E40E9430
:1028600028160E949315F401438986E00E9408040B
:102870007DC8023009F064C0188380915A0290919B
:102880005B0299231CF410935D0202C010925D025A
:10289000873BFEEF9F073CF486EB9EEF90935B0235
:1028A00080935A021AC020915E02213051F018F034
:1028B000223069F012C0019790935B0280935A0214
:1028C0000CC00A9790935B0280935A0206C084560C
:1028D000910990935B0280935A0280915D0281116D
:1028E00007C0412F60E070E086E00E94080406C047
:1028F00040E060E070E086E00E9408040F2EFAE4F9
:102900008F2EF2E09F2EF02DF401608971897723DC
:102910001CF4719561957109072E000C880B990BB9
:102920000E94C41526E636E646E451E40E942816C5
:102930000E949315F401438986E00E94080416C89A
:10294000992009F413C880915E02823020F48F5FD1
:1029500080935E0206C010925E02109249021092AD
:102960004802188303C81092490210924802188343
:10297000F2E0F9830C94B60C809148028E3039F065
:102980008F3091F1813011F00C94B60C5AC00130A7
:1029900079F4188310934702F6018081843618F089
:1029A00070820C94B60C8F5FF60180830C94B60C89
:1029B000023079F4188310934702F6018081811167
:1029C00003C010820C94B60C8150F60180830C94E5
:1029D000B60C992011F40C94B60C10924902109286
:1029E000480218830C94B60C013079F418831093C4
:1029F0004702F6018181843618F071820C94B60C7E
:102A00008F5FF60181830C94B60C023079F4188341
:102A100010934702F6018181811103C011820C9449
:102A2000B60C8150F60181830C94B60C992011F4F8
:102A30000C94B60C109249021092480218830C9420
:102A4000B60C10924902109248021883F2E0F98302
:102A50000C94B60C0F931F93042F10E0F8013197DC
:102A6000E730F10588F4E65AFF4F0C94F316AA9864
:102A70000BC0AB9809C0AC9807C0AD9805C0AE9824
:102A800003C0AF9801C0DC9898E29A95F1F78FB92E
:102A9000779BFECF88E28A95F1F76FB9779BFECFDF
:102AA00098E29A95F1F750E0FA013197E730F10595
:102AB00088F4EF59FF4F0C94F316AA9A0BC0AB9A07
:102AC00009C0AC9A07C0AD9A05C0AE9A03C0AF9AD0
:102AD00001C0DC9A1F910F91089585B38C6F85BB5F
:102AE000DC9A89E58DB981E08EB98FE19EE401978A
:102AF000F1F700C00000089585B38C6F85BBDC9AA8
:102B000089E58DB981E08EB98FE19EE40197F1F7F7
:102B100000C00000089510BC83E089B988E08AB93C
:102B20008EE880BD08950E94071688F09F5798F0A0
:102B3000B92F9927B751B0F0E1F0660F771F881FC2
:102B4000991F1AF0BA95C9F714C0B13091F00E94DC
:102B50002116B1E008950C942116672F782F88274D
:102B6000B85F39F0B93FCCF3869577956795B39503
:102B7000D9F73EF490958095709561957F4F8F4F72
:102B80009F4F0895E89409C097FB3EF49095809577
:102B9000709561957F4F8F4F9F4F9923A9F0F92F23
:102BA00096E9BB279395F695879577956795B795A1
:102BB000F111F8CFFAF4BB0F11F460FF1BC06F5F87
:102BC0007F4F8F4F9F4F16C0882311F096E911C099
:102BD000772321F09EE8872F762F05C0662371F0BA
:102BE00096E8862F70E060E02AF09A95660F771FCE
:102BF000881FDAF7880F9695879597F9089557FDFE
:102C00009058440F551F59F05F3F71F04795880F5A
:102C100097FB991F61F09F3F79F0879508951216F1
:102C200013061406551FF2CF4695F1DF08C016169D
:102C300017061806991FF1CF86957105610508944E
:102C40000895E894BB2766277727CB0197F9089565
:102C50000E943B160C94AC160E949E1638F00E94FF
:102C6000A51620F0952311F00C9495160C949B1644
:102C700011240C9422160E94FF1570F3959FC1F346
:102C8000950F50E0551F629FF001729FBB27F00D1A
:102C9000B11D639FAA27F00DB11DAA1F649F66276F
:102CA000B00DA11D661F829F2227B00DA11D621FBE
:102CB000739FB00DA11D621F839FA00D611D221F78
:102CC000749F3327A00D611D231F849F600D211D5C
:102CD000822F762F6A2F11249F5750409AF0F1F0DF
:102CE00088234AF0EE0FFF1FBB1F661F771F881F48
:102CF00091505040A9F79E3F510580F00C949516D5
:102D00000C9422165F3FE4F3983ED4F386957795B2
:102D10006795B795F795E7959F5FC1F7FE2B880FED
:102D2000911D9695879597F9089597F99F6780E883
:102D300070E060E008959FEF80EC089500240A940D
:102D40001616170618060906089500240A94121686
:102D50001306140605060895092E0394000C11F4B9
:102D6000882352F0BB0F40F4BF2B11F460FF04C066
:102D70006F5F7F4F8F4F9F4F089597FB072E16F47D
:102D8000009407D077FD09D00E94F91607FC05D002
:102D90003EF4909581959F4F0895709561957F4F72
:102DA0000895A1E21A2EAA1BBB1BFD010DC0AA1F8C
:102DB000BB1FEE1FFF1FA217B307E407F50720F0A4
:102DC000A21BB30BE40BF50B661F771F881F991F1F
:102DD0001A9469F760957095809590959B01AC0168
:102DE000BD01CF010895EE0FFF1F0590F491E02D76
:102DF0000994AA1BBB1B51E107C0AA1FBB1FA61742
:102E0000B70710F0A61BB70B881F991F5A95A9F793
:102E100080959095BC01CD010895DC0101C06D93B2
:102E200041505040E0F70895AEE0B0E0EAE1F7E14C
:102E30000C94211A0D891E898F89988D26E02C8388
:102E40001A83098397FF02C080E090E801979E8370
:102E50008D83AE01455E5F4F698D7A8DCE010196FF
:102E60000E9444174D815E8157FD0AC02F8138852D
:102E7000421753070CF49A01F801E20FF31F108276
:102E80002E96E4E00C943D1AABE0B0E0EAE4F7E102
:102E90000C94131A6C017B018A01FC0117821682C3
:102EA000838181FFCCC1CE0101963C01F601938163
:102EB000F70193FD859193FF81917F01882309F4A8
:102EC000BAC1853239F493FD859193FF81917F01D9
:102ED000853229F4B60190E00E943B19E7CF912C8E
:102EE000212C312CFFE1F315D8F08B3279F038F436
:102EF000803279F08332A1F4232D20611DC08D3200
:102F000061F0803369F4232D216016C0832D826027
:102F1000382EE32DE4603E2E2AC0F32DF8601DC04C
:102F200037FC2DC020ED280F2A3040F08E32B9F446
:102F300036FC81C1232D2064322E19C036FE06C016
:102F40008AE0989E200D1124922E11C0EAE02E9E58
:102F5000200D1124222EF32DF0623F2E08C08C3656
:102F600021F4832D8068382E02C0883641F4F701A1
:102F700093FD859193FF81917F018111B3CF982FAC
:102F80009F7D9554933028F40C5F1F4F9FE39983E6
:102F90000DC0833631F0833771F0833509F059C0A5
:102FA00021C0F801808189830E5F1F4F882483949C
:102FB000912C530113C02801F2E04F0E511CF8016F
:102FC000A080B18036FE03C0692D70E002C06FEFB3
:102FD0007FEFC5010E9430194C018201F32DFF776C
:102FE0003F2E16C0280122E0420E511CF801A0809D
:102FF000B18036FE03C0692D70E002C06FEF7FEF35
:10300000C5010E9425194C01F32DF0683F2E820165
:1030100033FC1BC0822D90E088169906B0F4B601EF
:1030200080E290E00E943B192A94F4CFF50137FC2E
:10303000859137FE81915F01B60190E00E943B19B6
:1030400021102A9421E0821A91088114910471F7C9
:10305000E8C0843611F0893641F5F80137FE07C023
:1030600060817181828193810C5F1F4F08C06081F4
:103070007181072E000C880B990B0E5F1F4FF32DEB
:10308000FF763F2E97FF09C09095809570956195CA
:103090007F4F8F4F9F4FF0683F2E2AE030E0A30113
:1030A0000E947719882E861845C0853731F4232D64
:1030B0002F7EB22E2AE030E025C0932D997FB92EC5
:1030C0008F36C1F018F4883579F0B5C0803719F023
:1030D000883721F0B0C0E92FE061BE2EB4FE0DC0EC
:1030E000FB2DF460BF2E09C034FE0AC0292F2660D4
:1030F000B22E06C028E030E005C020E130E002C07A
:1031000020E132E0F801B7FE07C060817181828161
:1031100093810C5F1F4F06C06081718180E090E059
:103120000E5F1F4FA3010E947719882E8618FB2D72
:10313000FF773F2E36FE0DC0232D2E7FA22E891441
:1031400058F434FE0BC032FC09C0832D8E7EA82EAD
:1031500005C0B82CA32C03C0B82C01C0B92CA4FE08
:103160000FC0FE01E80DF11D8081803321F49A2DFE
:10317000997EA92E09C0A2FE06C0B394B39404C0E0
:103180008A2D867809F0B394A3FC11C0A0FE06C076
:10319000B21488F4280C922C9B180EC0B21460F460
:1031A000B60180E290E00E943B19B394F7CFB214CD
:1031B00018F42B1802C0982C212CA4FE10C0B601C4
:1031C00080E390E00E943B19A2FE17C0A1FC03C05F
:1031D00088E790E002C088E590E0B6010CC08A2D37
:1031E000867859F0A1FE02C08BE201C080E2A7FC04
:1031F0008DE2B60190E00E943B19891438F4B601C3
:1032000080E390E00E943B199A94F7CF8A94F301EF
:10321000E80DF11D8081B60190E00E943B198110FC
:10322000F5CF222009F442CEB60180E290E00E9460
:103230003B192A94F6CFF6018681978102C08FEF61
:103240009FEF2B96E2E10C942F1AFC010590615040
:1032500070400110D8F7809590958E0F9F1F0895AC
:10326000FC016150704001900110D8F78095909555
:103270008E0F9F1F08950F931F93CF93DF93FB0132
:10328000238121FD03C08FEF9FEF2CC022FF16C0CA
:1032900046815781248135814217530744F4A08128
:1032A000B1819D012F5F3F4F318320838C93268115
:1032B00037812F5F3F4F3783268314C08B01EC018A
:1032C000FB010084F185E02D0995892BE1F6D801F9
:1032D00016968D919C911797019617969C938E93B5
:1032E0001697CE01DF91CF911F910F910895FA01AA
:1032F000AA27283051F1203181F1E8946F936E7F35
:103300006E5F7F4F8F4F9F4FAF4FB1E03ED0B4E025
:103310003CD0670F781F891F9A1FA11D680F791F66
:103320008A1F911DA11D6A0F711D811D911DA11D77
:1033300020D009F468943F912AE0269F1124301987
:10334000305D3193DEF6CF010895462F4770405D22
:103350004193B3E00FD0C9F7F6CF462F4F70405DD1
:103360004A3318F0495D31FD4052419302D0A9F72C
:10337000EACFB4E0A6959795879577956795BA9526
:10338000C9F700976105710508959B01AC010A2EEC
:1033900006945795479537952795BA95C9F7620FC3
:1033A000731F841F951FA01D0895E199FECF9FBB39
:1033B0008EBBE09A99278DB30895A6E1B0E044E072
:1033C00050E00C94051AA8E1B0E042E050E00C9403
:1033D000051A262FE199FECF9FBB8EBB2DBB0FB6E2
:1033E000F894E29AE19A0FBE01960895242F0E9464
:1033F000EA19252F0E94EA190C94FE190E94E91976
:10340000272F0C94EA19DC01CB01FC01E199FECFD6
:1034100006C0FFBBEEBBE09A31960DB20D92415053
:103420005040B8F708952F923F924F925F926F925B
:103430007F928F929F92AF92BF92CF92DF92EF9244
:10344000FF920F931F93CF93DF93CDB7DEB7CA1BC5
:10345000DB0B0FB6F894DEBF0FBECDBF09942A88F0
:10346000398848885F846E847D848C849B84AA8498
:10347000B984C884DF80EE80FD800C811B81AA8125
:10348000B981CE0FD11D0FB6F894DEBF0FBECDBFF0
:08349000ED010895F894FFCF4F
:103498002020202020202020202020202020202024
:1034A80020202020003C3C53687574646F776E20A0
:1034B800726571756573743E3E004465766963652F
:1034C800207368757474696E6720646F776E00691D
:1034D8006E20582073656320202020202020202083
:1034E80020202000204368616E6E656C3A412C20D4
:1034F800547970653A4F46460020416D706C697486
:103508007564653A20302E30305B565D20002046C9
:103518007265713A20302E3030302E3030305B48B2
:103528007A5D0020426961733A202B302E30305B7F
:10353800565D202020202000204368616E6E656C57
:103548003A422C20547970653A4F4646002020565E
:103558002842617474657279293A582E58585B5616
:103568005D002020555342204368617267696E6789
:103578003A205858582000202053657474696E67A3
:103588007320202020202020202020002020536885
:103598007574646F776E2020202020202020202042
:1035A80000203C50726F66696C65205365747469BD
:1035B8006E67733E20002020536176652050726F3D
:1035C80066696C652020202020200020204C6F6137
:1035D800642050726F66696C6520202020202000CE
:1035E800202020202020203C4241434B3E20202008
:1035F800202020200020203C3C4C4344205365746C
:1036080074696E67733E3E2020002020427269670D
:1036180068746E6573733A3130305B255D20002025
:1036280020436F6E74726173743A20203130305BBE
:10363800255D20003C3C506F727461626C652046C9
:10364800756E6347656E3E3E00204669726D776110
:103658007265205625632E25632E256320002020C1
:103668003C496E697469616C697A696E672E2E2EA1
:043678003E200000F0
:00000001FF
